{
	"contracts/_StudentDatabase.sol": {
		"StudentDatabase": {
			"abi": [
				{
					"inputs": [
						{
							"internalType": "int256",
							"name": "_ID",
							"type": "int256"
						},
						{
							"internalType": "string",
							"name": "_firstName",
							"type": "string"
						},
						{
							"internalType": "string",
							"name": "_lastName",
							"type": "string"
						}
					],
					"name": "addNewStudent",
					"outputs": [],
					"stateMutability": "nonpayable",
					"type": "function"
				},
				{
					"inputs": [
						{
							"internalType": "int256",
							"name": "studentID",
							"type": "int256"
						}
					],
					"name": "getStudentDetails",
					"outputs": [
						{
							"internalType": "int256",
							"name": "",
							"type": "int256"
						},
						{
							"internalType": "string",
							"name": "",
							"type": "string"
						},
						{
							"internalType": "string",
							"name": "",
							"type": "string"
						}
					],
					"stateMutability": "view",
					"type": "function"
				},
				{
					"inputs": [
						{
							"internalType": "int256",
							"name": "",
							"type": "int256"
						}
					],
					"name": "studentRecords",
					"outputs": [
						{
							"internalType": "int256",
							"name": "ID",
							"type": "int256"
						},
						{
							"internalType": "string",
							"name": "firstName",
							"type": "string"
						},
						{
							"internalType": "string",
							"name": "lastName",
							"type": "string"
						}
					],
					"stateMutability": "view",
					"type": "function"
				}
			],
			"devdoc": {
				"kind": "dev",
				"methods": {},
				"version": 1
			},
			"evm": {
				"assembly": "    /* \"contracts/_StudentDatabase.sol\":69:1159  contract StudentDatabase{\r... */\n  mstore(0x40, 0x80)\n    /* \"contracts/_StudentDatabase.sol\":249:250  0 */\n  0x00\n    /* \"contracts/_StudentDatabase.sol\":233:250  int studentID = 0 */\n  dup1\n  sstore\n    /* \"contracts/_StudentDatabase.sol\":69:1159  contract StudentDatabase{\r... */\n  callvalue\n  dup1\n  iszero\n  tag_1\n  jumpi\n  0x00\n  dup1\n  revert\ntag_1:\n  pop\n  dataSize(sub_0)\n  dup1\n  dataOffset(sub_0)\n  0x00\n  codecopy\n  0x00\n  return\nstop\n\nsub_0: assembly {\n        /* \"contracts/_StudentDatabase.sol\":69:1159  contract StudentDatabase{\r... */\n      mstore(0x40, 0x80)\n      callvalue\n      dup1\n      iszero\n      tag_1\n      jumpi\n      0x00\n      dup1\n      revert\n    tag_1:\n      pop\n      jumpi(tag_2, lt(calldatasize, 0x04))\n      shr(0xe0, calldataload(0x00))\n      dup1\n      0x6a7ae124\n      eq\n      tag_3\n      jumpi\n      dup1\n      0xb6f41098\n      eq\n      tag_4\n      jumpi\n      dup1\n      0xfcd56be3\n      eq\n      tag_5\n      jumpi\n    tag_2:\n      0x00\n      dup1\n      revert\n        /* \"contracts/_StudentDatabase.sol\":257:302  mapping(int => Student) public studentRecords */\n    tag_3:\n      tag_6\n      0x04\n      dup1\n      calldatasize\n      sub\n      dup2\n      add\n      swap1\n      tag_7\n      swap2\n      swap1\n      tag_8\n      jump\t// in\n    tag_7:\n      tag_9\n      jump\t// in\n    tag_6:\n      mload(0x40)\n      tag_10\n      swap4\n      swap3\n      swap2\n      swap1\n      tag_11\n      jump\t// in\n    tag_10:\n      mload(0x40)\n      dup1\n      swap2\n      sub\n      swap1\n      return\n        /* \"contracts/_StudentDatabase.sol\":514:821  function addNewStudent(int _ID, string memory _firstName, string memory _lastName) public {\r... */\n    tag_4:\n      tag_12\n      0x04\n      dup1\n      calldatasize\n      sub\n      dup2\n      add\n      swap1\n      tag_13\n      swap2\n      swap1\n      tag_14\n      jump\t// in\n    tag_13:\n      tag_15\n      jump\t// in\n    tag_12:\n      stop\n        /* \"contracts/_StudentDatabase.sol\":869:1146  function getStudentDetails(int studentID) public view returns (int, string memory, string memory) {\r... */\n    tag_5:\n      tag_16\n      0x04\n      dup1\n      calldatasize\n      sub\n      dup2\n      add\n      swap1\n      tag_17\n      swap2\n      swap1\n      tag_8\n      jump\t// in\n    tag_17:\n      tag_18\n      jump\t// in\n    tag_16:\n      mload(0x40)\n      tag_19\n      swap4\n      swap3\n      swap2\n      swap1\n      tag_11\n      jump\t// in\n    tag_19:\n      mload(0x40)\n      dup1\n      swap2\n      sub\n      swap1\n      return\n        /* \"contracts/_StudentDatabase.sol\":257:302  mapping(int => Student) public studentRecords */\n    tag_9:\n      mstore(0x20, 0x01)\n      dup1\n      0x00\n      mstore\n      keccak256(0x00, 0x40)\n      0x00\n      swap2\n      pop\n      swap1\n      pop\n      dup1\n      0x00\n      add\n      sload\n      swap1\n      dup1\n      0x01\n      add\n      dup1\n      sload\n      tag_20\n      swap1\n      tag_21\n      jump\t// in\n    tag_20:\n      dup1\n      0x1f\n      add\n      0x20\n      dup1\n      swap2\n      div\n      mul\n      0x20\n      add\n      mload(0x40)\n      swap1\n      dup2\n      add\n      0x40\n      mstore\n      dup1\n      swap3\n      swap2\n      swap1\n      dup2\n      dup2\n      mstore\n      0x20\n      add\n      dup3\n      dup1\n      sload\n      tag_22\n      swap1\n      tag_21\n      jump\t// in\n    tag_22:\n      dup1\n      iszero\n      tag_23\n      jumpi\n      dup1\n      0x1f\n      lt\n      tag_24\n      jumpi\n      0x0100\n      dup1\n      dup4\n      sload\n      div\n      mul\n      dup4\n      mstore\n      swap2\n      0x20\n      add\n      swap2\n      jump(tag_23)\n    tag_24:\n      dup3\n      add\n      swap2\n      swap1\n      0x00\n      mstore\n      keccak256(0x00, 0x20)\n      swap1\n    tag_25:\n      dup2\n      sload\n      dup2\n      mstore\n      swap1\n      0x01\n      add\n      swap1\n      0x20\n      add\n      dup1\n      dup4\n      gt\n      tag_25\n      jumpi\n      dup3\n      swap1\n      sub\n      0x1f\n      and\n      dup3\n      add\n      swap2\n    tag_23:\n      pop\n      pop\n      pop\n      pop\n      pop\n      swap1\n      dup1\n      0x02\n      add\n      dup1\n      sload\n      tag_26\n      swap1\n      tag_21\n      jump\t// in\n    tag_26:\n      dup1\n      0x1f\n      add\n      0x20\n      dup1\n      swap2\n      div\n      mul\n      0x20\n      add\n      mload(0x40)\n      swap1\n      dup2\n      add\n      0x40\n      mstore\n      dup1\n      swap3\n      swap2\n      swap1\n      dup2\n      dup2\n      mstore\n      0x20\n      add\n      dup3\n      dup1\n      sload\n      tag_27\n      swap1\n      tag_21\n      jump\t// in\n    tag_27:\n      dup1\n      iszero\n      tag_28\n      jumpi\n      dup1\n      0x1f\n      lt\n      tag_29\n      jumpi\n      0x0100\n      dup1\n      dup4\n      sload\n      div\n      mul\n      dup4\n      mstore\n      swap2\n      0x20\n      add\n      swap2\n      jump(tag_28)\n    tag_29:\n      dup3\n      add\n      swap2\n      swap1\n      0x00\n      mstore\n      keccak256(0x00, 0x20)\n      swap1\n    tag_30:\n      dup2\n      sload\n      dup2\n      mstore\n      swap1\n      0x01\n      add\n      swap1\n      0x20\n      add\n      dup1\n      dup4\n      gt\n      tag_30\n      jumpi\n      dup3\n      swap1\n      sub\n      0x1f\n      and\n      dup3\n      add\n      swap2\n    tag_28:\n      pop\n      pop\n      pop\n      pop\n      pop\n      swap1\n      pop\n      dup4\n      jump\t// out\n        /* \"contracts/_StudentDatabase.sol\":514:821  function addNewStudent(int _ID, string memory _firstName, string memory _lastName) public {\r... */\n    tag_15:\n        /* \"contracts/_StudentDatabase.sol\":699:700  1 */\n      0x01\n        /* \"contracts/_StudentDatabase.sol\":687:696  studentID */\n      sload(0x00)\n        /* \"contracts/_StudentDatabase.sol\":687:700  studentID + 1 */\n      tag_32\n      swap2\n      swap1\n      tag_33\n      jump\t// in\n    tag_32:\n        /* \"contracts/_StudentDatabase.sol\":675:684  studentID */\n      0x00\n        /* \"contracts/_StudentDatabase.sol\":675:700  studentID = studentID + 1 */\n      dup2\n      swap1\n      sstore\n      pop\n        /* \"contracts/_StudentDatabase.sol\":778:813  Student(_ID, _firstName, _lastName) */\n      mload(0x40)\n      dup1\n      0x60\n      add\n      0x40\n      mstore\n      dup1\n        /* \"contracts/_StudentDatabase.sol\":786:789  _ID */\n      dup5\n        /* \"contracts/_StudentDatabase.sol\":778:813  Student(_ID, _firstName, _lastName) */\n      dup2\n      mstore\n      0x20\n      add\n        /* \"contracts/_StudentDatabase.sol\":791:801  _firstName */\n      dup4\n        /* \"contracts/_StudentDatabase.sol\":778:813  Student(_ID, _firstName, _lastName) */\n      dup2\n      mstore\n      0x20\n      add\n        /* \"contracts/_StudentDatabase.sol\":803:812  _lastName */\n      dup3\n        /* \"contracts/_StudentDatabase.sol\":778:813  Student(_ID, _firstName, _lastName) */\n      dup2\n      mstore\n      pop\n        /* \"contracts/_StudentDatabase.sol\":750:764  studentRecords */\n      0x01\n        /* \"contracts/_StudentDatabase.sol\":750:775  studentRecords[studentID] */\n      0x00\n        /* \"contracts/_StudentDatabase.sol\":765:774  studentID */\n      dup1\n      sload\n        /* \"contracts/_StudentDatabase.sol\":750:775  studentRecords[studentID] */\n      dup2\n      mstore\n      0x20\n      add\n      swap1\n      dup2\n      mstore\n      0x20\n      add\n      0x00\n      keccak256\n        /* \"contracts/_StudentDatabase.sol\":750:813  studentRecords[studentID] = Student(_ID, _firstName, _lastName) */\n      0x00\n      dup3\n      add\n      mload\n      dup2\n      0x00\n      add\n      sstore\n      0x20\n      dup3\n      add\n      mload\n      dup2\n      0x01\n      add\n      swap1\n      dup1\n      mload\n      swap1\n      0x20\n      add\n      swap1\n      tag_34\n      swap3\n      swap2\n      swap1\n      tag_35\n      jump\t// in\n    tag_34:\n      pop\n      0x40\n      dup3\n      add\n      mload\n      dup2\n      0x02\n      add\n      swap1\n      dup1\n      mload\n      swap1\n      0x20\n      add\n      swap1\n      tag_36\n      swap3\n      swap2\n      swap1\n      tag_35\n      jump\t// in\n    tag_36:\n      pop\n      swap1\n      pop\n      pop\n        /* \"contracts/_StudentDatabase.sol\":514:821  function addNewStudent(int _ID, string memory _firstName, string memory _lastName) public {\r... */\n      pop\n      pop\n      pop\n      jump\t// out\n        /* \"contracts/_StudentDatabase.sol\":869:1146  function getStudentDetails(int studentID) public view returns (int, string memory, string memory) {\r... */\n    tag_18:\n        /* \"contracts/_StudentDatabase.sol\":932:935  int */\n      0x00\n        /* \"contracts/_StudentDatabase.sol\":937:950  string memory */\n      0x60\n        /* \"contracts/_StudentDatabase.sol\":952:965  string memory */\n      dup1\n        /* \"contracts/_StudentDatabase.sol\":1000:1014  studentRecords */\n      0x01\n        /* \"contracts/_StudentDatabase.sol\":1000:1025  studentRecords[studentID] */\n      0x00\n        /* \"contracts/_StudentDatabase.sol\":1015:1024  studentID */\n      dup6\n        /* \"contracts/_StudentDatabase.sol\":1000:1025  studentRecords[studentID] */\n      dup2\n      mstore\n      0x20\n      add\n      swap1\n      dup2\n      mstore\n      0x20\n      add\n      0x00\n      keccak256\n        /* \"contracts/_StudentDatabase.sol\":1000:1028  studentRecords[studentID].ID */\n      0x00\n      add\n      sload\n        /* \"contracts/_StudentDatabase.sol\":1043:1057  studentRecords */\n      0x01\n        /* \"contracts/_StudentDatabase.sol\":1043:1068  studentRecords[studentID] */\n      0x00\n        /* \"contracts/_StudentDatabase.sol\":1058:1067  studentID */\n      dup7\n        /* \"contracts/_StudentDatabase.sol\":1043:1068  studentRecords[studentID] */\n      dup2\n      mstore\n      0x20\n      add\n      swap1\n      dup2\n      mstore\n      0x20\n      add\n      0x00\n      keccak256\n        /* \"contracts/_StudentDatabase.sol\":1043:1078  studentRecords[studentID].firstName */\n      0x01\n      add\n        /* \"contracts/_StudentDatabase.sol\":1093:1107  studentRecords */\n      0x01\n        /* \"contracts/_StudentDatabase.sol\":1093:1118  studentRecords[studentID] */\n      0x00\n        /* \"contracts/_StudentDatabase.sol\":1108:1117  studentID */\n      dup8\n        /* \"contracts/_StudentDatabase.sol\":1093:1118  studentRecords[studentID] */\n      dup2\n      mstore\n      0x20\n      add\n      swap1\n      dup2\n      mstore\n      0x20\n      add\n      0x00\n      keccak256\n        /* \"contracts/_StudentDatabase.sol\":1093:1127  studentRecords[studentID].lastName */\n      0x02\n      add\n        /* \"contracts/_StudentDatabase.sol\":978:1138  return (\r... */\n      dup2\n      dup1\n      sload\n      tag_38\n      swap1\n      tag_21\n      jump\t// in\n    tag_38:\n      dup1\n      0x1f\n      add\n      0x20\n      dup1\n      swap2\n      div\n      mul\n      0x20\n      add\n      mload(0x40)\n      swap1\n      dup2\n      add\n      0x40\n      mstore\n      dup1\n      swap3\n      swap2\n      swap1\n      dup2\n      dup2\n      mstore\n      0x20\n      add\n      dup3\n      dup1\n      sload\n      tag_39\n      swap1\n      tag_21\n      jump\t// in\n    tag_39:\n      dup1\n      iszero\n      tag_40\n      jumpi\n      dup1\n      0x1f\n      lt\n      tag_41\n      jumpi\n      0x0100\n      dup1\n      dup4\n      sload\n      div\n      mul\n      dup4\n      mstore\n      swap2\n      0x20\n      add\n      swap2\n      jump(tag_40)\n    tag_41:\n      dup3\n      add\n      swap2\n      swap1\n      0x00\n      mstore\n      keccak256(0x00, 0x20)\n      swap1\n    tag_42:\n      dup2\n      sload\n      dup2\n      mstore\n      swap1\n      0x01\n      add\n      swap1\n      0x20\n      add\n      dup1\n      dup4\n      gt\n      tag_42\n      jumpi\n      dup3\n      swap1\n      sub\n      0x1f\n      and\n      dup3\n      add\n      swap2\n    tag_40:\n      pop\n      pop\n      pop\n      pop\n      pop\n      swap2\n      pop\n      dup1\n      dup1\n      sload\n      tag_43\n      swap1\n      tag_21\n      jump\t// in\n    tag_43:\n      dup1\n      0x1f\n      add\n      0x20\n      dup1\n      swap2\n      div\n      mul\n      0x20\n      add\n      mload(0x40)\n      swap1\n      dup2\n      add\n      0x40\n      mstore\n      dup1\n      swap3\n      swap2\n      swap1\n      dup2\n      dup2\n      mstore\n      0x20\n      add\n      dup3\n      dup1\n      sload\n      tag_44\n      swap1\n      tag_21\n      jump\t// in\n    tag_44:\n      dup1\n      iszero\n      tag_45\n      jumpi\n      dup1\n      0x1f\n      lt\n      tag_46\n      jumpi\n      0x0100\n      dup1\n      dup4\n      sload\n      div\n      mul\n      dup4\n      mstore\n      swap2\n      0x20\n      add\n      swap2\n      jump(tag_45)\n    tag_46:\n      dup3\n      add\n      swap2\n      swap1\n      0x00\n      mstore\n      keccak256(0x00, 0x20)\n      swap1\n    tag_47:\n      dup2\n      sload\n      dup2\n      mstore\n      swap1\n      0x01\n      add\n      swap1\n      0x20\n      add\n      dup1\n      dup4\n      gt\n      tag_47\n      jumpi\n      dup3\n      swap1\n      sub\n      0x1f\n      and\n      dup3\n      add\n      swap2\n    tag_45:\n      pop\n      pop\n      pop\n      pop\n      pop\n      swap1\n      pop\n      swap3\n      pop\n      swap3\n      pop\n      swap3\n      pop\n        /* \"contracts/_StudentDatabase.sol\":869:1146  function getStudentDetails(int studentID) public view returns (int, string memory, string memory) {\r... */\n      swap2\n      swap4\n      swap1\n      swap3\n      pop\n      jump\t// out\n    tag_35:\n      dup3\n      dup1\n      sload\n      tag_48\n      swap1\n      tag_21\n      jump\t// in\n    tag_48:\n      swap1\n      0x00\n      mstore\n      keccak256(0x00, 0x20)\n      swap1\n      0x1f\n      add\n      0x20\n      swap1\n      div\n      dup2\n      add\n      swap3\n      dup3\n      tag_50\n      jumpi\n      0x00\n      dup6\n      sstore\n      jump(tag_49)\n    tag_50:\n      dup3\n      0x1f\n      lt\n      tag_51\n      jumpi\n      dup1\n      mload\n      not(0xff)\n      and\n      dup4\n      dup1\n      add\n      or\n      dup6\n      sstore\n      jump(tag_49)\n    tag_51:\n      dup3\n      dup1\n      add\n      0x01\n      add\n      dup6\n      sstore\n      dup3\n      iszero\n      tag_49\n      jumpi\n      swap2\n      dup3\n      add\n    tag_52:\n      dup3\n      dup2\n      gt\n      iszero\n      tag_53\n      jumpi\n      dup3\n      mload\n      dup3\n      sstore\n      swap2\n      0x20\n      add\n      swap2\n      swap1\n      0x01\n      add\n      swap1\n      jump(tag_52)\n    tag_53:\n    tag_49:\n      pop\n      swap1\n      pop\n      tag_54\n      swap2\n      swap1\n      tag_55\n      jump\t// in\n    tag_54:\n      pop\n      swap1\n      jump\t// out\n    tag_55:\n    tag_56:\n      dup1\n      dup3\n      gt\n      iszero\n      tag_57\n      jumpi\n      0x00\n      dup2\n      0x00\n      swap1\n      sstore\n      pop\n      0x01\n      add\n      jump(tag_56)\n    tag_57:\n      pop\n      swap1\n      jump\t// out\n        /* \"#utility.yul\":7:351   */\n    tag_59:\n      0x00\n        /* \"#utility.yul\":110:175   */\n      tag_61\n        /* \"#utility.yul\":125:174   */\n      tag_62\n        /* \"#utility.yul\":167:173   */\n      dup5\n        /* \"#utility.yul\":125:174   */\n      tag_63\n      jump\t// in\n    tag_62:\n        /* \"#utility.yul\":110:175   */\n      tag_64\n      jump\t// in\n    tag_61:\n        /* \"#utility.yul\":101:175   */\n      swap1\n      pop\n        /* \"#utility.yul\":198:204   */\n      dup3\n        /* \"#utility.yul\":191:196   */\n      dup2\n        /* \"#utility.yul\":184:205   */\n      mstore\n        /* \"#utility.yul\":236:240   */\n      0x20\n        /* \"#utility.yul\":229:234   */\n      dup2\n        /* \"#utility.yul\":225:241   */\n      add\n        /* \"#utility.yul\":274:277   */\n      dup5\n        /* \"#utility.yul\":265:271   */\n      dup5\n        /* \"#utility.yul\":260:263   */\n      dup5\n        /* \"#utility.yul\":256:272   */\n      add\n        /* \"#utility.yul\":253:278   */\n      gt\n        /* \"#utility.yul\":250:252   */\n      iszero\n      tag_65\n      jumpi\n        /* \"#utility.yul\":291:292   */\n      0x00\n        /* \"#utility.yul\":288:289   */\n      dup1\n        /* \"#utility.yul\":281:293   */\n      revert\n        /* \"#utility.yul\":250:252   */\n    tag_65:\n        /* \"#utility.yul\":304:345   */\n      tag_66\n        /* \"#utility.yul\":338:344   */\n      dup5\n        /* \"#utility.yul\":333:336   */\n      dup3\n        /* \"#utility.yul\":328:331   */\n      dup6\n        /* \"#utility.yul\":304:345   */\n      tag_67\n      jump\t// in\n    tag_66:\n        /* \"#utility.yul\":91:351   */\n      pop\n      swap4\n      swap3\n      pop\n      pop\n      pop\n      jump\t// out\n        /* \"#utility.yul\":357:494   */\n    tag_68:\n      0x00\n        /* \"#utility.yul\":440:446   */\n      dup2\n        /* \"#utility.yul\":427:447   */\n      calldataload\n        /* \"#utility.yul\":418:447   */\n      swap1\n      pop\n        /* \"#utility.yul\":456:488   */\n      tag_70\n        /* \"#utility.yul\":482:487   */\n      dup2\n        /* \"#utility.yul\":456:488   */\n      tag_71\n      jump\t// in\n    tag_70:\n        /* \"#utility.yul\":408:494   */\n      swap3\n      swap2\n      pop\n      pop\n      jump\t// out\n        /* \"#utility.yul\":514:787   */\n    tag_72:\n      0x00\n        /* \"#utility.yul\":619:622   */\n      dup3\n        /* \"#utility.yul\":612:616   */\n      0x1f\n        /* \"#utility.yul\":604:610   */\n      dup4\n        /* \"#utility.yul\":600:617   */\n      add\n        /* \"#utility.yul\":596:623   */\n      slt\n        /* \"#utility.yul\":586:588   */\n      tag_74\n      jumpi\n        /* \"#utility.yul\":637:638   */\n      0x00\n        /* \"#utility.yul\":634:635   */\n      dup1\n        /* \"#utility.yul\":627:639   */\n      revert\n        /* \"#utility.yul\":586:588   */\n    tag_74:\n        /* \"#utility.yul\":677:683   */\n      dup2\n        /* \"#utility.yul\":664:684   */\n      calldataload\n        /* \"#utility.yul\":702:781   */\n      tag_75\n        /* \"#utility.yul\":777:780   */\n      dup5\n        /* \"#utility.yul\":769:775   */\n      dup3\n        /* \"#utility.yul\":762:766   */\n      0x20\n        /* \"#utility.yul\":754:760   */\n      dup7\n        /* \"#utility.yul\":750:767   */\n      add\n        /* \"#utility.yul\":702:781   */\n      tag_59\n      jump\t// in\n    tag_75:\n        /* \"#utility.yul\":693:781   */\n      swap2\n      pop\n        /* \"#utility.yul\":576:787   */\n      pop\n      swap3\n      swap2\n      pop\n      pop\n      jump\t// out\n        /* \"#utility.yul\":793:1053   */\n    tag_8:\n      0x00\n        /* \"#utility.yul\":900:902   */\n      0x20\n        /* \"#utility.yul\":888:897   */\n      dup3\n        /* \"#utility.yul\":879:886   */\n      dup5\n        /* \"#utility.yul\":875:898   */\n      sub\n        /* \"#utility.yul\":871:903   */\n      slt\n        /* \"#utility.yul\":868:870   */\n      iszero\n      tag_77\n      jumpi\n        /* \"#utility.yul\":916:917   */\n      0x00\n        /* \"#utility.yul\":913:914   */\n      dup1\n        /* \"#utility.yul\":906:918   */\n      revert\n        /* \"#utility.yul\":868:870   */\n    tag_77:\n        /* \"#utility.yul\":959:960   */\n      0x00\n        /* \"#utility.yul\":984:1036   */\n      tag_78\n        /* \"#utility.yul\":1028:1035   */\n      dup5\n        /* \"#utility.yul\":1019:1025   */\n      dup3\n        /* \"#utility.yul\":1008:1017   */\n      dup6\n        /* \"#utility.yul\":1004:1026   */\n      add\n        /* \"#utility.yul\":984:1036   */\n      tag_68\n      jump\t// in\n    tag_78:\n        /* \"#utility.yul\":974:1036   */\n      swap2\n      pop\n        /* \"#utility.yul\":930:1046   */\n      pop\n        /* \"#utility.yul\":858:1053   */\n      swap3\n      swap2\n      pop\n      pop\n      jump\t// out\n        /* \"#utility.yul\":1059:1835   */\n    tag_14:\n      0x00\n      dup1\n      0x00\n        /* \"#utility.yul\":1220:1222   */\n      0x60\n        /* \"#utility.yul\":1208:1217   */\n      dup5\n        /* \"#utility.yul\":1199:1206   */\n      dup7\n        /* \"#utility.yul\":1195:1218   */\n      sub\n        /* \"#utility.yul\":1191:1223   */\n      slt\n        /* \"#utility.yul\":1188:1190   */\n      iszero\n      tag_80\n      jumpi\n        /* \"#utility.yul\":1236:1237   */\n      0x00\n        /* \"#utility.yul\":1233:1234   */\n      dup1\n        /* \"#utility.yul\":1226:1238   */\n      revert\n        /* \"#utility.yul\":1188:1190   */\n    tag_80:\n        /* \"#utility.yul\":1279:1280   */\n      0x00\n        /* \"#utility.yul\":1304:1356   */\n      tag_81\n        /* \"#utility.yul\":1348:1355   */\n      dup7\n        /* \"#utility.yul\":1339:1345   */\n      dup3\n        /* \"#utility.yul\":1328:1337   */\n      dup8\n        /* \"#utility.yul\":1324:1346   */\n      add\n        /* \"#utility.yul\":1304:1356   */\n      tag_68\n      jump\t// in\n    tag_81:\n        /* \"#utility.yul\":1294:1356   */\n      swap4\n      pop\n        /* \"#utility.yul\":1250:1366   */\n      pop\n        /* \"#utility.yul\":1433:1435   */\n      0x20\n        /* \"#utility.yul\":1422:1431   */\n      dup5\n        /* \"#utility.yul\":1418:1436   */\n      add\n        /* \"#utility.yul\":1405:1437   */\n      calldataload\n        /* \"#utility.yul\":1464:1482   */\n      0xffffffffffffffff\n        /* \"#utility.yul\":1456:1462   */\n      dup2\n        /* \"#utility.yul\":1453:1483   */\n      gt\n        /* \"#utility.yul\":1450:1452   */\n      iszero\n      tag_82\n      jumpi\n        /* \"#utility.yul\":1496:1497   */\n      0x00\n        /* \"#utility.yul\":1493:1494   */\n      dup1\n        /* \"#utility.yul\":1486:1498   */\n      revert\n        /* \"#utility.yul\":1450:1452   */\n    tag_82:\n        /* \"#utility.yul\":1524:1587   */\n      tag_83\n        /* \"#utility.yul\":1579:1586   */\n      dup7\n        /* \"#utility.yul\":1570:1576   */\n      dup3\n        /* \"#utility.yul\":1559:1568   */\n      dup8\n        /* \"#utility.yul\":1555:1577   */\n      add\n        /* \"#utility.yul\":1524:1587   */\n      tag_72\n      jump\t// in\n    tag_83:\n        /* \"#utility.yul\":1514:1587   */\n      swap3\n      pop\n        /* \"#utility.yul\":1376:1597   */\n      pop\n        /* \"#utility.yul\":1664:1666   */\n      0x40\n        /* \"#utility.yul\":1653:1662   */\n      dup5\n        /* \"#utility.yul\":1649:1667   */\n      add\n        /* \"#utility.yul\":1636:1668   */\n      calldataload\n        /* \"#utility.yul\":1695:1713   */\n      0xffffffffffffffff\n        /* \"#utility.yul\":1687:1693   */\n      dup2\n        /* \"#utility.yul\":1684:1714   */\n      gt\n        /* \"#utility.yul\":1681:1683   */\n      iszero\n      tag_84\n      jumpi\n        /* \"#utility.yul\":1727:1728   */\n      0x00\n        /* \"#utility.yul\":1724:1725   */\n      dup1\n        /* \"#utility.yul\":1717:1729   */\n      revert\n        /* \"#utility.yul\":1681:1683   */\n    tag_84:\n        /* \"#utility.yul\":1755:1818   */\n      tag_85\n        /* \"#utility.yul\":1810:1817   */\n      dup7\n        /* \"#utility.yul\":1801:1807   */\n      dup3\n        /* \"#utility.yul\":1790:1799   */\n      dup8\n        /* \"#utility.yul\":1786:1808   */\n      add\n        /* \"#utility.yul\":1755:1818   */\n      tag_72\n      jump\t// in\n    tag_85:\n        /* \"#utility.yul\":1745:1818   */\n      swap2\n      pop\n        /* \"#utility.yul\":1607:1828   */\n      pop\n        /* \"#utility.yul\":1178:1835   */\n      swap3\n      pop\n      swap3\n      pop\n      swap3\n      jump\t// out\n        /* \"#utility.yul\":1841:1956   */\n    tag_86:\n        /* \"#utility.yul\":1926:1949   */\n      tag_88\n        /* \"#utility.yul\":1943:1948   */\n      dup2\n        /* \"#utility.yul\":1926:1949   */\n      tag_89\n      jump\t// in\n    tag_88:\n        /* \"#utility.yul\":1921:1924   */\n      dup3\n        /* \"#utility.yul\":1914:1950   */\n      mstore\n        /* \"#utility.yul\":1904:1956   */\n      pop\n      pop\n      jump\t// out\n        /* \"#utility.yul\":1962:2326   */\n    tag_90:\n      0x00\n        /* \"#utility.yul\":2078:2117   */\n      tag_92\n        /* \"#utility.yul\":2111:2116   */\n      dup3\n        /* \"#utility.yul\":2078:2117   */\n      tag_93\n      jump\t// in\n    tag_92:\n        /* \"#utility.yul\":2133:2204   */\n      tag_94\n        /* \"#utility.yul\":2197:2203   */\n      dup2\n        /* \"#utility.yul\":2192:2195   */\n      dup6\n        /* \"#utility.yul\":2133:2204   */\n      tag_95\n      jump\t// in\n    tag_94:\n        /* \"#utility.yul\":2126:2204   */\n      swap4\n      pop\n        /* \"#utility.yul\":2213:2265   */\n      tag_96\n        /* \"#utility.yul\":2258:2264   */\n      dup2\n        /* \"#utility.yul\":2253:2256   */\n      dup6\n        /* \"#utility.yul\":2246:2250   */\n      0x20\n        /* \"#utility.yul\":2239:2244   */\n      dup7\n        /* \"#utility.yul\":2235:2251   */\n      add\n        /* \"#utility.yul\":2213:2265   */\n      tag_97\n      jump\t// in\n    tag_96:\n        /* \"#utility.yul\":2290:2319   */\n      tag_98\n        /* \"#utility.yul\":2312:2318   */\n      dup2\n        /* \"#utility.yul\":2290:2319   */\n      tag_99\n      jump\t// in\n    tag_98:\n        /* \"#utility.yul\":2285:2288   */\n      dup5\n        /* \"#utility.yul\":2281:2320   */\n      add\n        /* \"#utility.yul\":2274:2320   */\n      swap2\n      pop\n        /* \"#utility.yul\":2054:2326   */\n      pop\n      swap3\n      swap2\n      pop\n      pop\n      jump\t// out\n        /* \"#utility.yul\":2332:2952   */\n    tag_11:\n      0x00\n        /* \"#utility.yul\":2557:2559   */\n      0x60\n        /* \"#utility.yul\":2546:2555   */\n      dup3\n        /* \"#utility.yul\":2542:2560   */\n      add\n        /* \"#utility.yul\":2534:2560   */\n      swap1\n      pop\n        /* \"#utility.yul\":2570:2639   */\n      tag_101\n        /* \"#utility.yul\":2636:2637   */\n      0x00\n        /* \"#utility.yul\":2625:2634   */\n      dup4\n        /* \"#utility.yul\":2621:2638   */\n      add\n        /* \"#utility.yul\":2612:2618   */\n      dup7\n        /* \"#utility.yul\":2570:2639   */\n      tag_86\n      jump\t// in\n    tag_101:\n        /* \"#utility.yul\":2686:2695   */\n      dup2\n        /* \"#utility.yul\":2680:2684   */\n      dup2\n        /* \"#utility.yul\":2676:2696   */\n      sub\n        /* \"#utility.yul\":2671:2673   */\n      0x20\n        /* \"#utility.yul\":2660:2669   */\n      dup4\n        /* \"#utility.yul\":2656:2674   */\n      add\n        /* \"#utility.yul\":2649:2697   */\n      mstore\n        /* \"#utility.yul\":2714:2792   */\n      tag_102\n        /* \"#utility.yul\":2787:2791   */\n      dup2\n        /* \"#utility.yul\":2778:2784   */\n      dup6\n        /* \"#utility.yul\":2714:2792   */\n      tag_90\n      jump\t// in\n    tag_102:\n        /* \"#utility.yul\":2706:2792   */\n      swap1\n      pop\n        /* \"#utility.yul\":2839:2848   */\n      dup2\n        /* \"#utility.yul\":2833:2837   */\n      dup2\n        /* \"#utility.yul\":2829:2849   */\n      sub\n        /* \"#utility.yul\":2824:2826   */\n      0x40\n        /* \"#utility.yul\":2813:2822   */\n      dup4\n        /* \"#utility.yul\":2809:2827   */\n      add\n        /* \"#utility.yul\":2802:2850   */\n      mstore\n        /* \"#utility.yul\":2867:2945   */\n      tag_103\n        /* \"#utility.yul\":2940:2944   */\n      dup2\n        /* \"#utility.yul\":2931:2937   */\n      dup5\n        /* \"#utility.yul\":2867:2945   */\n      tag_90\n      jump\t// in\n    tag_103:\n        /* \"#utility.yul\":2859:2945   */\n      swap1\n      pop\n        /* \"#utility.yul\":2524:2952   */\n      swap5\n      swap4\n      pop\n      pop\n      pop\n      pop\n      jump\t// out\n        /* \"#utility.yul\":2958:3241   */\n    tag_64:\n      0x00\n        /* \"#utility.yul\":3024:3026   */\n      0x40\n        /* \"#utility.yul\":3018:3027   */\n      mload\n        /* \"#utility.yul\":3008:3027   */\n      swap1\n      pop\n        /* \"#utility.yul\":3066:3070   */\n      dup2\n        /* \"#utility.yul\":3058:3064   */\n      dup2\n        /* \"#utility.yul\":3054:3071   */\n      add\n        /* \"#utility.yul\":3173:3179   */\n      dup2\n        /* \"#utility.yul\":3161:3171   */\n      dup2\n        /* \"#utility.yul\":3158:3180   */\n      lt\n        /* \"#utility.yul\":3137:3155   */\n      0xffffffffffffffff\n        /* \"#utility.yul\":3125:3135   */\n      dup3\n        /* \"#utility.yul\":3122:3156   */\n      gt\n        /* \"#utility.yul\":3119:3181   */\n      or\n        /* \"#utility.yul\":3116:3118   */\n      iszero\n      tag_105\n      jumpi\n        /* \"#utility.yul\":3184:3202   */\n      tag_106\n      tag_107\n      jump\t// in\n    tag_106:\n        /* \"#utility.yul\":3116:3118   */\n    tag_105:\n        /* \"#utility.yul\":3224:3234   */\n      dup1\n        /* \"#utility.yul\":3220:3222   */\n      0x40\n        /* \"#utility.yul\":3213:3235   */\n      mstore\n        /* \"#utility.yul\":2998:3241   */\n      pop\n      swap2\n      swap1\n      pop\n      jump\t// out\n        /* \"#utility.yul\":3247:3579   */\n    tag_63:\n      0x00\n        /* \"#utility.yul\":3399:3417   */\n      0xffffffffffffffff\n        /* \"#utility.yul\":3391:3397   */\n      dup3\n        /* \"#utility.yul\":3388:3418   */\n      gt\n        /* \"#utility.yul\":3385:3387   */\n      iszero\n      tag_109\n      jumpi\n        /* \"#utility.yul\":3421:3439   */\n      tag_110\n      tag_107\n      jump\t// in\n    tag_110:\n        /* \"#utility.yul\":3385:3387   */\n    tag_109:\n        /* \"#utility.yul\":3506:3510   */\n      0x1f\n        /* \"#utility.yul\":3502:3511   */\n      not\n        /* \"#utility.yul\":3495:3499   */\n      0x1f\n        /* \"#utility.yul\":3487:3493   */\n      dup4\n        /* \"#utility.yul\":3483:3500   */\n      add\n        /* \"#utility.yul\":3479:3512   */\n      and\n        /* \"#utility.yul\":3471:3512   */\n      swap1\n      pop\n        /* \"#utility.yul\":3567:3571   */\n      0x20\n        /* \"#utility.yul\":3561:3565   */\n      dup2\n        /* \"#utility.yul\":3557:3572   */\n      add\n        /* \"#utility.yul\":3549:3572   */\n      swap1\n      pop\n        /* \"#utility.yul\":3314:3579   */\n      swap2\n      swap1\n      pop\n      jump\t// out\n        /* \"#utility.yul\":3585:3684   */\n    tag_93:\n      0x00\n        /* \"#utility.yul\":3671:3676   */\n      dup2\n        /* \"#utility.yul\":3665:3677   */\n      mload\n        /* \"#utility.yul\":3655:3677   */\n      swap1\n      pop\n        /* \"#utility.yul\":3644:3684   */\n      swap2\n      swap1\n      pop\n      jump\t// out\n        /* \"#utility.yul\":3690:3859   */\n    tag_95:\n      0x00\n        /* \"#utility.yul\":3808:3814   */\n      dup3\n        /* \"#utility.yul\":3803:3806   */\n      dup3\n        /* \"#utility.yul\":3796:3815   */\n      mstore\n        /* \"#utility.yul\":3848:3852   */\n      0x20\n        /* \"#utility.yul\":3843:3846   */\n      dup3\n        /* \"#utility.yul\":3839:3853   */\n      add\n        /* \"#utility.yul\":3824:3853   */\n      swap1\n      pop\n        /* \"#utility.yul\":3786:3859   */\n      swap3\n      swap2\n      pop\n      pop\n      jump\t// out\n        /* \"#utility.yul\":3865:4390   */\n    tag_33:\n      0x00\n        /* \"#utility.yul\":3923:3942   */\n      tag_114\n        /* \"#utility.yul\":3940:3941   */\n      dup3\n        /* \"#utility.yul\":3923:3942   */\n      tag_89\n      jump\t// in\n    tag_114:\n        /* \"#utility.yul\":3918:3942   */\n      swap2\n      pop\n        /* \"#utility.yul\":3956:3975   */\n      tag_115\n        /* \"#utility.yul\":3973:3974   */\n      dup4\n        /* \"#utility.yul\":3956:3975   */\n      tag_89\n      jump\t// in\n    tag_115:\n        /* \"#utility.yul\":3951:3975   */\n      swap3\n      pop\n        /* \"#utility.yul\":4144:4145   */\n      dup2\n        /* \"#utility.yul\":4076:4142   */\n      0x7fffffffffffffffffffffffffffffffffffffffffffffffffffffffffffffff\n        /* \"#utility.yul\":4072:4146   */\n      sub\n        /* \"#utility.yul\":4069:4070   */\n      dup4\n        /* \"#utility.yul\":4065:4147   */\n      sgt\n        /* \"#utility.yul\":4060:4061   */\n      0x00\n        /* \"#utility.yul\":4057:4058   */\n      dup4\n        /* \"#utility.yul\":4053:4062   */\n      slt\n        /* \"#utility.yul\":4046:4063   */\n      iszero\n        /* \"#utility.yul\":4042:4148   */\n      and\n        /* \"#utility.yul\":4039:4041   */\n      iszero\n      tag_116\n      jumpi\n        /* \"#utility.yul\":4151:4169   */\n      tag_117\n      tag_118\n      jump\t// in\n    tag_117:\n        /* \"#utility.yul\":4039:4041   */\n    tag_116:\n        /* \"#utility.yul\":4331:4332   */\n      dup2\n        /* \"#utility.yul\":4263:4329   */\n      0x8000000000000000000000000000000000000000000000000000000000000000\n        /* \"#utility.yul\":4259:4333   */\n      sub\n        /* \"#utility.yul\":4256:4257   */\n      dup4\n        /* \"#utility.yul\":4252:4334   */\n      slt\n        /* \"#utility.yul\":4248:4249   */\n      0x00\n        /* \"#utility.yul\":4245:4246   */\n      dup4\n        /* \"#utility.yul\":4241:4250   */\n      slt\n        /* \"#utility.yul\":4237:4335   */\n      and\n        /* \"#utility.yul\":4234:4236   */\n      iszero\n      tag_119\n      jumpi\n        /* \"#utility.yul\":4338:4356   */\n      tag_120\n      tag_118\n      jump\t// in\n    tag_120:\n        /* \"#utility.yul\":4234:4236   */\n    tag_119:\n        /* \"#utility.yul\":4382:4383   */\n      dup3\n        /* \"#utility.yul\":4379:4380   */\n      dup3\n        /* \"#utility.yul\":4375:4384   */\n      add\n        /* \"#utility.yul\":4368:4384   */\n      swap1\n      pop\n        /* \"#utility.yul\":3908:4390   */\n      swap3\n      swap2\n      pop\n      pop\n      jump\t// out\n        /* \"#utility.yul\":4396:4472   */\n    tag_89:\n      0x00\n        /* \"#utility.yul\":4461:4466   */\n      dup2\n        /* \"#utility.yul\":4450:4466   */\n      swap1\n      pop\n        /* \"#utility.yul\":4440:4472   */\n      swap2\n      swap1\n      pop\n      jump\t// out\n        /* \"#utility.yul\":4478:4632   */\n    tag_67:\n        /* \"#utility.yul\":4562:4568   */\n      dup3\n        /* \"#utility.yul\":4557:4560   */\n      dup2\n        /* \"#utility.yul\":4552:4555   */\n      dup4\n        /* \"#utility.yul\":4539:4569   */\n      calldatacopy\n        /* \"#utility.yul\":4624:4625   */\n      0x00\n        /* \"#utility.yul\":4615:4621   */\n      dup4\n        /* \"#utility.yul\":4610:4613   */\n      dup4\n        /* \"#utility.yul\":4606:4622   */\n      add\n        /* \"#utility.yul\":4599:4626   */\n      mstore\n        /* \"#utility.yul\":4529:4632   */\n      pop\n      pop\n      pop\n      jump\t// out\n        /* \"#utility.yul\":4638:4945   */\n    tag_97:\n        /* \"#utility.yul\":4706:4707   */\n      0x00\n        /* \"#utility.yul\":4716:4829   */\n    tag_124:\n        /* \"#utility.yul\":4730:4736   */\n      dup4\n        /* \"#utility.yul\":4727:4728   */\n      dup2\n        /* \"#utility.yul\":4724:4737   */\n      lt\n        /* \"#utility.yul\":4716:4829   */\n      iszero\n      tag_126\n      jumpi\n        /* \"#utility.yul\":4815:4816   */\n      dup1\n        /* \"#utility.yul\":4810:4813   */\n      dup3\n        /* \"#utility.yul\":4806:4817   */\n      add\n        /* \"#utility.yul\":4800:4818   */\n      mload\n        /* \"#utility.yul\":4796:4797   */\n      dup2\n        /* \"#utility.yul\":4791:4794   */\n      dup5\n        /* \"#utility.yul\":4787:4798   */\n      add\n        /* \"#utility.yul\":4780:4819   */\n      mstore\n        /* \"#utility.yul\":4752:4754   */\n      0x20\n        /* \"#utility.yul\":4749:4750   */\n      dup2\n        /* \"#utility.yul\":4745:4755   */\n      add\n        /* \"#utility.yul\":4740:4755   */\n      swap1\n      pop\n        /* \"#utility.yul\":4716:4829   */\n      jump(tag_124)\n    tag_126:\n        /* \"#utility.yul\":4847:4853   */\n      dup4\n        /* \"#utility.yul\":4844:4845   */\n      dup2\n        /* \"#utility.yul\":4841:4854   */\n      gt\n        /* \"#utility.yul\":4838:4840   */\n      iszero\n      tag_127\n      jumpi\n        /* \"#utility.yul\":4927:4928   */\n      0x00\n        /* \"#utility.yul\":4918:4924   */\n      dup5\n        /* \"#utility.yul\":4913:4916   */\n      dup5\n        /* \"#utility.yul\":4909:4925   */\n      add\n        /* \"#utility.yul\":4902:4929   */\n      mstore\n        /* \"#utility.yul\":4838:4840   */\n    tag_127:\n        /* \"#utility.yul\":4687:4945   */\n      pop\n      pop\n      pop\n      pop\n      jump\t// out\n        /* \"#utility.yul\":4951:5271   */\n    tag_21:\n      0x00\n        /* \"#utility.yul\":5032:5033   */\n      0x02\n        /* \"#utility.yul\":5026:5030   */\n      dup3\n        /* \"#utility.yul\":5022:5034   */\n      div\n        /* \"#utility.yul\":5012:5034   */\n      swap1\n      pop\n        /* \"#utility.yul\":5079:5080   */\n      0x01\n        /* \"#utility.yul\":5073:5077   */\n      dup3\n        /* \"#utility.yul\":5069:5081   */\n      and\n        /* \"#utility.yul\":5100:5118   */\n      dup1\n        /* \"#utility.yul\":5090:5092   */\n      tag_129\n      jumpi\n        /* \"#utility.yul\":5156:5160   */\n      0x7f\n        /* \"#utility.yul\":5148:5154   */\n      dup3\n        /* \"#utility.yul\":5144:5161   */\n      and\n        /* \"#utility.yul\":5134:5161   */\n      swap2\n      pop\n        /* \"#utility.yul\":5090:5092   */\n    tag_129:\n        /* \"#utility.yul\":5218:5220   */\n      0x20\n        /* \"#utility.yul\":5210:5216   */\n      dup3\n        /* \"#utility.yul\":5207:5221   */\n      lt\n        /* \"#utility.yul\":5187:5205   */\n      dup2\n        /* \"#utility.yul\":5184:5222   */\n      eq\n        /* \"#utility.yul\":5181:5183   */\n      iszero\n      tag_130\n      jumpi\n        /* \"#utility.yul\":5237:5255   */\n      tag_131\n      tag_132\n      jump\t// in\n    tag_131:\n        /* \"#utility.yul\":5181:5183   */\n    tag_130:\n        /* \"#utility.yul\":5002:5271   */\n      pop\n      swap2\n      swap1\n      pop\n      jump\t// out\n        /* \"#utility.yul\":5277:5457   */\n    tag_118:\n        /* \"#utility.yul\":5325:5402   */\n      0x4e487b7100000000000000000000000000000000000000000000000000000000\n        /* \"#utility.yul\":5322:5323   */\n      0x00\n        /* \"#utility.yul\":5315:5403   */\n      mstore\n        /* \"#utility.yul\":5422:5426   */\n      0x11\n        /* \"#utility.yul\":5419:5420   */\n      0x04\n        /* \"#utility.yul\":5412:5427   */\n      mstore\n        /* \"#utility.yul\":5446:5450   */\n      0x24\n        /* \"#utility.yul\":5443:5444   */\n      0x00\n        /* \"#utility.yul\":5436:5451   */\n      revert\n        /* \"#utility.yul\":5463:5643   */\n    tag_132:\n        /* \"#utility.yul\":5511:5588   */\n      0x4e487b7100000000000000000000000000000000000000000000000000000000\n        /* \"#utility.yul\":5508:5509   */\n      0x00\n        /* \"#utility.yul\":5501:5589   */\n      mstore\n        /* \"#utility.yul\":5608:5612   */\n      0x22\n        /* \"#utility.yul\":5605:5606   */\n      0x04\n        /* \"#utility.yul\":5598:5613   */\n      mstore\n        /* \"#utility.yul\":5632:5636   */\n      0x24\n        /* \"#utility.yul\":5629:5630   */\n      0x00\n        /* \"#utility.yul\":5622:5637   */\n      revert\n        /* \"#utility.yul\":5649:5829   */\n    tag_107:\n        /* \"#utility.yul\":5697:5774   */\n      0x4e487b7100000000000000000000000000000000000000000000000000000000\n        /* \"#utility.yul\":5694:5695   */\n      0x00\n        /* \"#utility.yul\":5687:5775   */\n      mstore\n        /* \"#utility.yul\":5794:5798   */\n      0x41\n        /* \"#utility.yul\":5791:5792   */\n      0x04\n        /* \"#utility.yul\":5784:5799   */\n      mstore\n        /* \"#utility.yul\":5818:5822   */\n      0x24\n        /* \"#utility.yul\":5815:5816   */\n      0x00\n        /* \"#utility.yul\":5808:5823   */\n      revert\n        /* \"#utility.yul\":5835:5937   */\n    tag_99:\n      0x00\n        /* \"#utility.yul\":5927:5929   */\n      0x1f\n        /* \"#utility.yul\":5923:5930   */\n      not\n        /* \"#utility.yul\":5918:5920   */\n      0x1f\n        /* \"#utility.yul\":5911:5916   */\n      dup4\n        /* \"#utility.yul\":5907:5921   */\n      add\n        /* \"#utility.yul\":5903:5931   */\n      and\n        /* \"#utility.yul\":5893:5931   */\n      swap1\n      pop\n        /* \"#utility.yul\":5883:5937   */\n      swap2\n      swap1\n      pop\n      jump\t// out\n        /* \"#utility.yul\":5943:6063   */\n    tag_71:\n        /* \"#utility.yul\":6015:6038   */\n      tag_138\n        /* \"#utility.yul\":6032:6037   */\n      dup2\n        /* \"#utility.yul\":6015:6038   */\n      tag_89\n      jump\t// in\n    tag_138:\n        /* \"#utility.yul\":6008:6013   */\n      dup2\n        /* \"#utility.yul\":6005:6039   */\n      eq\n        /* \"#utility.yul\":5995:5997   */\n      tag_139\n      jumpi\n        /* \"#utility.yul\":6053:6054   */\n      0x00\n        /* \"#utility.yul\":6050:6051   */\n      dup1\n        /* \"#utility.yul\":6043:6055   */\n      revert\n        /* \"#utility.yul\":5995:5997   */\n    tag_139:\n        /* \"#utility.yul\":5985:6063   */\n      pop\n      jump\t// out\n\n    auxdata: 0xa26469706673582212204f91548067ea70ec989f4548ee0bce6f37894873f097e35fff149c41f36268ca64736f6c63430008000033\n}\n",
				"bytecode": {
					"linkReferences": {},
					"object": "60806040526000805534801561001457600080fd5b506108cc806100246000396000f3fe608060405234801561001057600080fd5b50600436106100415760003560e01c80636a7ae12414610046578063b6f4109814610078578063fcd56be314610094575b600080fd5b610060600480360381019061005b919061051d565b6100c6565b60405161006f9392919061060d565b60405180910390f35b610092600480360381019061008d9190610546565b610200565b005b6100ae60048036038101906100a9919061051d565b610290565b6040516100bd9392919061060d565b60405180910390f35b60016020528060005260406000206000915090508060000154908060010180546100ef906107af565b80601f016020809104026020016040519081016040528092919081815260200182805461011b906107af565b80156101685780601f1061013d57610100808354040283529160200191610168565b820191906000526020600020905b81548152906001019060200180831161014b57829003601f168201915b50505050509080600201805461017d906107af565b80601f01602080910402602001604051908101604052809291908181526020018280546101a9906107af565b80156101f65780601f106101cb576101008083540402835291602001916101f6565b820191906000526020600020905b8154815290600101906020018083116101d957829003601f168201915b5050505050905083565b600160005461020f91906106cf565b600081905550604051806060016040528084815260200183815260200182815250600160008054815260200190815260200160002060008201518160000155602082015181600101908051906020019061026a9291906103fd565b5060408201518160020190805190602001906102879291906103fd565b50905050505050565b6000606080600160008581526020019081526020016000206000015460016000868152602001908152602001600020600101600160008781526020019081526020016000206002018180546102e4906107af565b80601f0160208091040260200160405190810160405280929190818152602001828054610310906107af565b801561035d5780601f106103325761010080835404028352916020019161035d565b820191906000526020600020905b81548152906001019060200180831161034057829003601f168201915b50505050509150808054610370906107af565b80601f016020809104026020016040519081016040528092919081815260200182805461039c906107af565b80156103e95780601f106103be576101008083540402835291602001916103e9565b820191906000526020600020905b8154815290600101906020018083116103cc57829003601f168201915b505050505090509250925092509193909250565b828054610409906107af565b90600052602060002090601f01602090048101928261042b5760008555610472565b82601f1061044457805160ff1916838001178555610472565b82800160010185558215610472579182015b82811115610471578251825591602001919060010190610456565b5b50905061047f9190610483565b5090565b5b8082111561049c576000816000905550600101610484565b5090565b60006104b36104ae84610683565b610652565b9050828152602081018484840111156104cb57600080fd5b6104d684828561076d565b509392505050565b6000813590506104ed8161087f565b92915050565b600082601f83011261050457600080fd5b81356105148482602086016104a0565b91505092915050565b60006020828403121561052f57600080fd5b600061053d848285016104de565b91505092915050565b60008060006060848603121561055b57600080fd5b6000610569868287016104de565b935050602084013567ffffffffffffffff81111561058657600080fd5b610592868287016104f3565b925050604084013567ffffffffffffffff8111156105af57600080fd5b6105bb868287016104f3565b9150509250925092565b6105ce81610763565b82525050565b60006105df826106b3565b6105e981856106be565b93506105f981856020860161077c565b6106028161086e565b840191505092915050565b600060608201905061062260008301866105c5565b818103602083015261063481856105d4565b9050818103604083015261064881846105d4565b9050949350505050565b6000604051905081810181811067ffffffffffffffff821117156106795761067861083f565b5b8060405250919050565b600067ffffffffffffffff82111561069e5761069d61083f565b5b601f19601f8301169050602081019050919050565b600081519050919050565b600082825260208201905092915050565b60006106da82610763565b91506106e583610763565b9250817f7fffffffffffffffffffffffffffffffffffffffffffffffffffffffffffffff038313600083121516156107205761071f6107e1565b5b817f8000000000000000000000000000000000000000000000000000000000000000038312600083121615610758576107576107e1565b5b828201905092915050565b6000819050919050565b82818337600083830152505050565b60005b8381101561079a57808201518184015260208101905061077f565b838111156107a9576000848401525b50505050565b600060028204905060018216806107c757607f821691505b602082108114156107db576107da610810565b5b50919050565b7f4e487b7100000000000000000000000000000000000000000000000000000000600052601160045260246000fd5b7f4e487b7100000000000000000000000000000000000000000000000000000000600052602260045260246000fd5b7f4e487b7100000000000000000000000000000000000000000000000000000000600052604160045260246000fd5b6000601f19601f8301169050919050565b61088881610763565b811461089357600080fd5b5056fea26469706673582212204f91548067ea70ec989f4548ee0bce6f37894873f097e35fff149c41f36268ca64736f6c63430008000033",
					"opcodes": "PUSH1 0x80 PUSH1 0x40 MSTORE PUSH1 0x0 DUP1 SSTORE CALLVALUE DUP1 ISZERO PUSH2 0x14 JUMPI PUSH1 0x0 DUP1 REVERT JUMPDEST POP PUSH2 0x8CC DUP1 PUSH2 0x24 PUSH1 0x0 CODECOPY PUSH1 0x0 RETURN INVALID PUSH1 0x80 PUSH1 0x40 MSTORE CALLVALUE DUP1 ISZERO PUSH2 0x10 JUMPI PUSH1 0x0 DUP1 REVERT JUMPDEST POP PUSH1 0x4 CALLDATASIZE LT PUSH2 0x41 JUMPI PUSH1 0x0 CALLDATALOAD PUSH1 0xE0 SHR DUP1 PUSH4 0x6A7AE124 EQ PUSH2 0x46 JUMPI DUP1 PUSH4 0xB6F41098 EQ PUSH2 0x78 JUMPI DUP1 PUSH4 0xFCD56BE3 EQ PUSH2 0x94 JUMPI JUMPDEST PUSH1 0x0 DUP1 REVERT JUMPDEST PUSH2 0x60 PUSH1 0x4 DUP1 CALLDATASIZE SUB DUP2 ADD SWAP1 PUSH2 0x5B SWAP2 SWAP1 PUSH2 0x51D JUMP JUMPDEST PUSH2 0xC6 JUMP JUMPDEST PUSH1 0x40 MLOAD PUSH2 0x6F SWAP4 SWAP3 SWAP2 SWAP1 PUSH2 0x60D JUMP JUMPDEST PUSH1 0x40 MLOAD DUP1 SWAP2 SUB SWAP1 RETURN JUMPDEST PUSH2 0x92 PUSH1 0x4 DUP1 CALLDATASIZE SUB DUP2 ADD SWAP1 PUSH2 0x8D SWAP2 SWAP1 PUSH2 0x546 JUMP JUMPDEST PUSH2 0x200 JUMP JUMPDEST STOP JUMPDEST PUSH2 0xAE PUSH1 0x4 DUP1 CALLDATASIZE SUB DUP2 ADD SWAP1 PUSH2 0xA9 SWAP2 SWAP1 PUSH2 0x51D JUMP JUMPDEST PUSH2 0x290 JUMP JUMPDEST PUSH1 0x40 MLOAD PUSH2 0xBD SWAP4 SWAP3 SWAP2 SWAP1 PUSH2 0x60D JUMP JUMPDEST PUSH1 0x40 MLOAD DUP1 SWAP2 SUB SWAP1 RETURN JUMPDEST PUSH1 0x1 PUSH1 0x20 MSTORE DUP1 PUSH1 0x0 MSTORE PUSH1 0x40 PUSH1 0x0 KECCAK256 PUSH1 0x0 SWAP2 POP SWAP1 POP DUP1 PUSH1 0x0 ADD SLOAD SWAP1 DUP1 PUSH1 0x1 ADD DUP1 SLOAD PUSH2 0xEF SWAP1 PUSH2 0x7AF JUMP JUMPDEST DUP1 PUSH1 0x1F ADD PUSH1 0x20 DUP1 SWAP2 DIV MUL PUSH1 0x20 ADD PUSH1 0x40 MLOAD SWAP1 DUP2 ADD PUSH1 0x40 MSTORE DUP1 SWAP3 SWAP2 SWAP1 DUP2 DUP2 MSTORE PUSH1 0x20 ADD DUP3 DUP1 SLOAD PUSH2 0x11B SWAP1 PUSH2 0x7AF JUMP JUMPDEST DUP1 ISZERO PUSH2 0x168 JUMPI DUP1 PUSH1 0x1F LT PUSH2 0x13D JUMPI PUSH2 0x100 DUP1 DUP4 SLOAD DIV MUL DUP4 MSTORE SWAP2 PUSH1 0x20 ADD SWAP2 PUSH2 0x168 JUMP JUMPDEST DUP3 ADD SWAP2 SWAP1 PUSH1 0x0 MSTORE PUSH1 0x20 PUSH1 0x0 KECCAK256 SWAP1 JUMPDEST DUP2 SLOAD DUP2 MSTORE SWAP1 PUSH1 0x1 ADD SWAP1 PUSH1 0x20 ADD DUP1 DUP4 GT PUSH2 0x14B JUMPI DUP3 SWAP1 SUB PUSH1 0x1F AND DUP3 ADD SWAP2 JUMPDEST POP POP POP POP POP SWAP1 DUP1 PUSH1 0x2 ADD DUP1 SLOAD PUSH2 0x17D SWAP1 PUSH2 0x7AF JUMP JUMPDEST DUP1 PUSH1 0x1F ADD PUSH1 0x20 DUP1 SWAP2 DIV MUL PUSH1 0x20 ADD PUSH1 0x40 MLOAD SWAP1 DUP2 ADD PUSH1 0x40 MSTORE DUP1 SWAP3 SWAP2 SWAP1 DUP2 DUP2 MSTORE PUSH1 0x20 ADD DUP3 DUP1 SLOAD PUSH2 0x1A9 SWAP1 PUSH2 0x7AF JUMP JUMPDEST DUP1 ISZERO PUSH2 0x1F6 JUMPI DUP1 PUSH1 0x1F LT PUSH2 0x1CB JUMPI PUSH2 0x100 DUP1 DUP4 SLOAD DIV MUL DUP4 MSTORE SWAP2 PUSH1 0x20 ADD SWAP2 PUSH2 0x1F6 JUMP JUMPDEST DUP3 ADD SWAP2 SWAP1 PUSH1 0x0 MSTORE PUSH1 0x20 PUSH1 0x0 KECCAK256 SWAP1 JUMPDEST DUP2 SLOAD DUP2 MSTORE SWAP1 PUSH1 0x1 ADD SWAP1 PUSH1 0x20 ADD DUP1 DUP4 GT PUSH2 0x1D9 JUMPI DUP3 SWAP1 SUB PUSH1 0x1F AND DUP3 ADD SWAP2 JUMPDEST POP POP POP POP POP SWAP1 POP DUP4 JUMP JUMPDEST PUSH1 0x1 PUSH1 0x0 SLOAD PUSH2 0x20F SWAP2 SWAP1 PUSH2 0x6CF JUMP JUMPDEST PUSH1 0x0 DUP2 SWAP1 SSTORE POP PUSH1 0x40 MLOAD DUP1 PUSH1 0x60 ADD PUSH1 0x40 MSTORE DUP1 DUP5 DUP2 MSTORE PUSH1 0x20 ADD DUP4 DUP2 MSTORE PUSH1 0x20 ADD DUP3 DUP2 MSTORE POP PUSH1 0x1 PUSH1 0x0 DUP1 SLOAD DUP2 MSTORE PUSH1 0x20 ADD SWAP1 DUP2 MSTORE PUSH1 0x20 ADD PUSH1 0x0 KECCAK256 PUSH1 0x0 DUP3 ADD MLOAD DUP2 PUSH1 0x0 ADD SSTORE PUSH1 0x20 DUP3 ADD MLOAD DUP2 PUSH1 0x1 ADD SWAP1 DUP1 MLOAD SWAP1 PUSH1 0x20 ADD SWAP1 PUSH2 0x26A SWAP3 SWAP2 SWAP1 PUSH2 0x3FD JUMP JUMPDEST POP PUSH1 0x40 DUP3 ADD MLOAD DUP2 PUSH1 0x2 ADD SWAP1 DUP1 MLOAD SWAP1 PUSH1 0x20 ADD SWAP1 PUSH2 0x287 SWAP3 SWAP2 SWAP1 PUSH2 0x3FD JUMP JUMPDEST POP SWAP1 POP POP POP POP POP JUMP JUMPDEST PUSH1 0x0 PUSH1 0x60 DUP1 PUSH1 0x1 PUSH1 0x0 DUP6 DUP2 MSTORE PUSH1 0x20 ADD SWAP1 DUP2 MSTORE PUSH1 0x20 ADD PUSH1 0x0 KECCAK256 PUSH1 0x0 ADD SLOAD PUSH1 0x1 PUSH1 0x0 DUP7 DUP2 MSTORE PUSH1 0x20 ADD SWAP1 DUP2 MSTORE PUSH1 0x20 ADD PUSH1 0x0 KECCAK256 PUSH1 0x1 ADD PUSH1 0x1 PUSH1 0x0 DUP8 DUP2 MSTORE PUSH1 0x20 ADD SWAP1 DUP2 MSTORE PUSH1 0x20 ADD PUSH1 0x0 KECCAK256 PUSH1 0x2 ADD DUP2 DUP1 SLOAD PUSH2 0x2E4 SWAP1 PUSH2 0x7AF JUMP JUMPDEST DUP1 PUSH1 0x1F ADD PUSH1 0x20 DUP1 SWAP2 DIV MUL PUSH1 0x20 ADD PUSH1 0x40 MLOAD SWAP1 DUP2 ADD PUSH1 0x40 MSTORE DUP1 SWAP3 SWAP2 SWAP1 DUP2 DUP2 MSTORE PUSH1 0x20 ADD DUP3 DUP1 SLOAD PUSH2 0x310 SWAP1 PUSH2 0x7AF JUMP JUMPDEST DUP1 ISZERO PUSH2 0x35D JUMPI DUP1 PUSH1 0x1F LT PUSH2 0x332 JUMPI PUSH2 0x100 DUP1 DUP4 SLOAD DIV MUL DUP4 MSTORE SWAP2 PUSH1 0x20 ADD SWAP2 PUSH2 0x35D JUMP JUMPDEST DUP3 ADD SWAP2 SWAP1 PUSH1 0x0 MSTORE PUSH1 0x20 PUSH1 0x0 KECCAK256 SWAP1 JUMPDEST DUP2 SLOAD DUP2 MSTORE SWAP1 PUSH1 0x1 ADD SWAP1 PUSH1 0x20 ADD DUP1 DUP4 GT PUSH2 0x340 JUMPI DUP3 SWAP1 SUB PUSH1 0x1F AND DUP3 ADD SWAP2 JUMPDEST POP POP POP POP POP SWAP2 POP DUP1 DUP1 SLOAD PUSH2 0x370 SWAP1 PUSH2 0x7AF JUMP JUMPDEST DUP1 PUSH1 0x1F ADD PUSH1 0x20 DUP1 SWAP2 DIV MUL PUSH1 0x20 ADD PUSH1 0x40 MLOAD SWAP1 DUP2 ADD PUSH1 0x40 MSTORE DUP1 SWAP3 SWAP2 SWAP1 DUP2 DUP2 MSTORE PUSH1 0x20 ADD DUP3 DUP1 SLOAD PUSH2 0x39C SWAP1 PUSH2 0x7AF JUMP JUMPDEST DUP1 ISZERO PUSH2 0x3E9 JUMPI DUP1 PUSH1 0x1F LT PUSH2 0x3BE JUMPI PUSH2 0x100 DUP1 DUP4 SLOAD DIV MUL DUP4 MSTORE SWAP2 PUSH1 0x20 ADD SWAP2 PUSH2 0x3E9 JUMP JUMPDEST DUP3 ADD SWAP2 SWAP1 PUSH1 0x0 MSTORE PUSH1 0x20 PUSH1 0x0 KECCAK256 SWAP1 JUMPDEST DUP2 SLOAD DUP2 MSTORE SWAP1 PUSH1 0x1 ADD SWAP1 PUSH1 0x20 ADD DUP1 DUP4 GT PUSH2 0x3CC JUMPI DUP3 SWAP1 SUB PUSH1 0x1F AND DUP3 ADD SWAP2 JUMPDEST POP POP POP POP POP SWAP1 POP SWAP3 POP SWAP3 POP SWAP3 POP SWAP2 SWAP4 SWAP1 SWAP3 POP JUMP JUMPDEST DUP3 DUP1 SLOAD PUSH2 0x409 SWAP1 PUSH2 0x7AF JUMP JUMPDEST SWAP1 PUSH1 0x0 MSTORE PUSH1 0x20 PUSH1 0x0 KECCAK256 SWAP1 PUSH1 0x1F ADD PUSH1 0x20 SWAP1 DIV DUP2 ADD SWAP3 DUP3 PUSH2 0x42B JUMPI PUSH1 0x0 DUP6 SSTORE PUSH2 0x472 JUMP JUMPDEST DUP3 PUSH1 0x1F LT PUSH2 0x444 JUMPI DUP1 MLOAD PUSH1 0xFF NOT AND DUP4 DUP1 ADD OR DUP6 SSTORE PUSH2 0x472 JUMP JUMPDEST DUP3 DUP1 ADD PUSH1 0x1 ADD DUP6 SSTORE DUP3 ISZERO PUSH2 0x472 JUMPI SWAP2 DUP3 ADD JUMPDEST DUP3 DUP2 GT ISZERO PUSH2 0x471 JUMPI DUP3 MLOAD DUP3 SSTORE SWAP2 PUSH1 0x20 ADD SWAP2 SWAP1 PUSH1 0x1 ADD SWAP1 PUSH2 0x456 JUMP JUMPDEST JUMPDEST POP SWAP1 POP PUSH2 0x47F SWAP2 SWAP1 PUSH2 0x483 JUMP JUMPDEST POP SWAP1 JUMP JUMPDEST JUMPDEST DUP1 DUP3 GT ISZERO PUSH2 0x49C JUMPI PUSH1 0x0 DUP2 PUSH1 0x0 SWAP1 SSTORE POP PUSH1 0x1 ADD PUSH2 0x484 JUMP JUMPDEST POP SWAP1 JUMP JUMPDEST PUSH1 0x0 PUSH2 0x4B3 PUSH2 0x4AE DUP5 PUSH2 0x683 JUMP JUMPDEST PUSH2 0x652 JUMP JUMPDEST SWAP1 POP DUP3 DUP2 MSTORE PUSH1 0x20 DUP2 ADD DUP5 DUP5 DUP5 ADD GT ISZERO PUSH2 0x4CB JUMPI PUSH1 0x0 DUP1 REVERT JUMPDEST PUSH2 0x4D6 DUP5 DUP3 DUP6 PUSH2 0x76D JUMP JUMPDEST POP SWAP4 SWAP3 POP POP POP JUMP JUMPDEST PUSH1 0x0 DUP2 CALLDATALOAD SWAP1 POP PUSH2 0x4ED DUP2 PUSH2 0x87F JUMP JUMPDEST SWAP3 SWAP2 POP POP JUMP JUMPDEST PUSH1 0x0 DUP3 PUSH1 0x1F DUP4 ADD SLT PUSH2 0x504 JUMPI PUSH1 0x0 DUP1 REVERT JUMPDEST DUP2 CALLDATALOAD PUSH2 0x514 DUP5 DUP3 PUSH1 0x20 DUP7 ADD PUSH2 0x4A0 JUMP JUMPDEST SWAP2 POP POP SWAP3 SWAP2 POP POP JUMP JUMPDEST PUSH1 0x0 PUSH1 0x20 DUP3 DUP5 SUB SLT ISZERO PUSH2 0x52F JUMPI PUSH1 0x0 DUP1 REVERT JUMPDEST PUSH1 0x0 PUSH2 0x53D DUP5 DUP3 DUP6 ADD PUSH2 0x4DE JUMP JUMPDEST SWAP2 POP POP SWAP3 SWAP2 POP POP JUMP JUMPDEST PUSH1 0x0 DUP1 PUSH1 0x0 PUSH1 0x60 DUP5 DUP7 SUB SLT ISZERO PUSH2 0x55B JUMPI PUSH1 0x0 DUP1 REVERT JUMPDEST PUSH1 0x0 PUSH2 0x569 DUP7 DUP3 DUP8 ADD PUSH2 0x4DE JUMP JUMPDEST SWAP4 POP POP PUSH1 0x20 DUP5 ADD CALLDATALOAD PUSH8 0xFFFFFFFFFFFFFFFF DUP2 GT ISZERO PUSH2 0x586 JUMPI PUSH1 0x0 DUP1 REVERT JUMPDEST PUSH2 0x592 DUP7 DUP3 DUP8 ADD PUSH2 0x4F3 JUMP JUMPDEST SWAP3 POP POP PUSH1 0x40 DUP5 ADD CALLDATALOAD PUSH8 0xFFFFFFFFFFFFFFFF DUP2 GT ISZERO PUSH2 0x5AF JUMPI PUSH1 0x0 DUP1 REVERT JUMPDEST PUSH2 0x5BB DUP7 DUP3 DUP8 ADD PUSH2 0x4F3 JUMP JUMPDEST SWAP2 POP POP SWAP3 POP SWAP3 POP SWAP3 JUMP JUMPDEST PUSH2 0x5CE DUP2 PUSH2 0x763 JUMP JUMPDEST DUP3 MSTORE POP POP JUMP JUMPDEST PUSH1 0x0 PUSH2 0x5DF DUP3 PUSH2 0x6B3 JUMP JUMPDEST PUSH2 0x5E9 DUP2 DUP6 PUSH2 0x6BE JUMP JUMPDEST SWAP4 POP PUSH2 0x5F9 DUP2 DUP6 PUSH1 0x20 DUP7 ADD PUSH2 0x77C JUMP JUMPDEST PUSH2 0x602 DUP2 PUSH2 0x86E JUMP JUMPDEST DUP5 ADD SWAP2 POP POP SWAP3 SWAP2 POP POP JUMP JUMPDEST PUSH1 0x0 PUSH1 0x60 DUP3 ADD SWAP1 POP PUSH2 0x622 PUSH1 0x0 DUP4 ADD DUP7 PUSH2 0x5C5 JUMP JUMPDEST DUP2 DUP2 SUB PUSH1 0x20 DUP4 ADD MSTORE PUSH2 0x634 DUP2 DUP6 PUSH2 0x5D4 JUMP JUMPDEST SWAP1 POP DUP2 DUP2 SUB PUSH1 0x40 DUP4 ADD MSTORE PUSH2 0x648 DUP2 DUP5 PUSH2 0x5D4 JUMP JUMPDEST SWAP1 POP SWAP5 SWAP4 POP POP POP POP JUMP JUMPDEST PUSH1 0x0 PUSH1 0x40 MLOAD SWAP1 POP DUP2 DUP2 ADD DUP2 DUP2 LT PUSH8 0xFFFFFFFFFFFFFFFF DUP3 GT OR ISZERO PUSH2 0x679 JUMPI PUSH2 0x678 PUSH2 0x83F JUMP JUMPDEST JUMPDEST DUP1 PUSH1 0x40 MSTORE POP SWAP2 SWAP1 POP JUMP JUMPDEST PUSH1 0x0 PUSH8 0xFFFFFFFFFFFFFFFF DUP3 GT ISZERO PUSH2 0x69E JUMPI PUSH2 0x69D PUSH2 0x83F JUMP JUMPDEST JUMPDEST PUSH1 0x1F NOT PUSH1 0x1F DUP4 ADD AND SWAP1 POP PUSH1 0x20 DUP2 ADD SWAP1 POP SWAP2 SWAP1 POP JUMP JUMPDEST PUSH1 0x0 DUP2 MLOAD SWAP1 POP SWAP2 SWAP1 POP JUMP JUMPDEST PUSH1 0x0 DUP3 DUP3 MSTORE PUSH1 0x20 DUP3 ADD SWAP1 POP SWAP3 SWAP2 POP POP JUMP JUMPDEST PUSH1 0x0 PUSH2 0x6DA DUP3 PUSH2 0x763 JUMP JUMPDEST SWAP2 POP PUSH2 0x6E5 DUP4 PUSH2 0x763 JUMP JUMPDEST SWAP3 POP DUP2 PUSH32 0x7FFFFFFFFFFFFFFFFFFFFFFFFFFFFFFFFFFFFFFFFFFFFFFFFFFFFFFFFFFFFFFF SUB DUP4 SGT PUSH1 0x0 DUP4 SLT ISZERO AND ISZERO PUSH2 0x720 JUMPI PUSH2 0x71F PUSH2 0x7E1 JUMP JUMPDEST JUMPDEST DUP2 PUSH32 0x8000000000000000000000000000000000000000000000000000000000000000 SUB DUP4 SLT PUSH1 0x0 DUP4 SLT AND ISZERO PUSH2 0x758 JUMPI PUSH2 0x757 PUSH2 0x7E1 JUMP JUMPDEST JUMPDEST DUP3 DUP3 ADD SWAP1 POP SWAP3 SWAP2 POP POP JUMP JUMPDEST PUSH1 0x0 DUP2 SWAP1 POP SWAP2 SWAP1 POP JUMP JUMPDEST DUP3 DUP2 DUP4 CALLDATACOPY PUSH1 0x0 DUP4 DUP4 ADD MSTORE POP POP POP JUMP JUMPDEST PUSH1 0x0 JUMPDEST DUP4 DUP2 LT ISZERO PUSH2 0x79A JUMPI DUP1 DUP3 ADD MLOAD DUP2 DUP5 ADD MSTORE PUSH1 0x20 DUP2 ADD SWAP1 POP PUSH2 0x77F JUMP JUMPDEST DUP4 DUP2 GT ISZERO PUSH2 0x7A9 JUMPI PUSH1 0x0 DUP5 DUP5 ADD MSTORE JUMPDEST POP POP POP POP JUMP JUMPDEST PUSH1 0x0 PUSH1 0x2 DUP3 DIV SWAP1 POP PUSH1 0x1 DUP3 AND DUP1 PUSH2 0x7C7 JUMPI PUSH1 0x7F DUP3 AND SWAP2 POP JUMPDEST PUSH1 0x20 DUP3 LT DUP2 EQ ISZERO PUSH2 0x7DB JUMPI PUSH2 0x7DA PUSH2 0x810 JUMP JUMPDEST JUMPDEST POP SWAP2 SWAP1 POP JUMP JUMPDEST PUSH32 0x4E487B7100000000000000000000000000000000000000000000000000000000 PUSH1 0x0 MSTORE PUSH1 0x11 PUSH1 0x4 MSTORE PUSH1 0x24 PUSH1 0x0 REVERT JUMPDEST PUSH32 0x4E487B7100000000000000000000000000000000000000000000000000000000 PUSH1 0x0 MSTORE PUSH1 0x22 PUSH1 0x4 MSTORE PUSH1 0x24 PUSH1 0x0 REVERT JUMPDEST PUSH32 0x4E487B7100000000000000000000000000000000000000000000000000000000 PUSH1 0x0 MSTORE PUSH1 0x41 PUSH1 0x4 MSTORE PUSH1 0x24 PUSH1 0x0 REVERT JUMPDEST PUSH1 0x0 PUSH1 0x1F NOT PUSH1 0x1F DUP4 ADD AND SWAP1 POP SWAP2 SWAP1 POP JUMP JUMPDEST PUSH2 0x888 DUP2 PUSH2 0x763 JUMP JUMPDEST DUP2 EQ PUSH2 0x893 JUMPI PUSH1 0x0 DUP1 REVERT JUMPDEST POP JUMP INVALID LOG2 PUSH5 0x6970667358 0x22 SLT KECCAK256 0x4F SWAP2 SLOAD DUP1 PUSH8 0xEA70EC989F4548EE SIGNEXTEND 0xCE PUSH16 0x37894873F097E35FFF149C41F36268CA PUSH5 0x736F6C6343 STOP ADDMOD STOP STOP CALLER "
				},
				"gasEstimates": {
					"creation": {
						"codeDepositCost": "450400",
						"executionCost": "5492",
						"totalCost": "455892"
					},
					"external": {
						"addNewStudent(int256,string,string)": "infinite",
						"getStudentDetails(int256)": "infinite",
						"studentRecords(int256)": "infinite"
					}
				},
				"methodIdentifiers": {
					"addNewStudent(int256,string,string)": "b6f41098",
					"getStudentDetails(int256)": "fcd56be3",
					"studentRecords(int256)": "6a7ae124"
				}
			},
			"storageLayout": {
				"storage": [
					{
						"astId": 11,
						"contract": "contracts/_StudentDatabase.sol:StudentDatabase",
						"label": "studentID",
						"offset": 0,
						"slot": "0",
						"type": "t_int256"
					},
					{
						"astId": 16,
						"contract": "contracts/_StudentDatabase.sol:StudentDatabase",
						"label": "studentRecords",
						"offset": 0,
						"slot": "1",
						"type": "t_mapping(t_int256,t_struct(Student)8_storage)"
					}
				],
				"types": {
					"t_int256": {
						"encoding": "inplace",
						"label": "int256",
						"numberOfBytes": "32"
					},
					"t_mapping(t_int256,t_struct(Student)8_storage)": {
						"encoding": "mapping",
						"key": "t_int256",
						"label": "mapping(int256 => struct StudentDatabase.Student)",
						"numberOfBytes": "32",
						"value": "t_struct(Student)8_storage"
					},
					"t_string_storage": {
						"encoding": "bytes",
						"label": "string",
						"numberOfBytes": "32"
					},
					"t_struct(Student)8_storage": {
						"encoding": "inplace",
						"label": "struct StudentDatabase.Student",
						"members": [
							{
								"astId": 3,
								"contract": "contracts/_StudentDatabase.sol:StudentDatabase",
								"label": "ID",
								"offset": 0,
								"slot": "0",
								"type": "t_int256"
							},
							{
								"astId": 5,
								"contract": "contracts/_StudentDatabase.sol:StudentDatabase",
								"label": "firstName",
								"offset": 0,
								"slot": "1",
								"type": "t_string_storage"
							},
							{
								"astId": 7,
								"contract": "contracts/_StudentDatabase.sol:StudentDatabase",
								"label": "lastName",
								"offset": 0,
								"slot": "2",
								"type": "t_string_storage"
							}
						],
						"numberOfBytes": "96"
					}
				}
			},
			"userdoc": {
				"kind": "user",
				"methods": {},
				"version": 1
			}
		}
	}
}