{
	"contracts/_StudentDatabase.sol": {
		"StudentDatabase": {
			"abi": [
				{
					"inputs": [
						{
							"internalType": "int256",
							"name": "_ID",
							"type": "int256"
						},
						{
							"internalType": "string",
							"name": "_firstName",
							"type": "string"
						},
						{
							"internalType": "string",
							"name": "_lastName",
							"type": "string"
						}
					],
					"name": "addNewStudent",
					"outputs": [],
					"stateMutability": "nonpayable",
					"type": "function"
				},
				{
					"inputs": [
						{
							"internalType": "int256",
							"name": "",
							"type": "int256"
						}
					],
					"name": "getStudentDetails",
					"outputs": [
						{
							"internalType": "int256",
							"name": "",
							"type": "int256"
						},
						{
							"internalType": "string",
							"name": "",
							"type": "string"
						},
						{
							"internalType": "string",
							"name": "",
							"type": "string"
						}
					],
					"stateMutability": "view",
					"type": "function"
				},
				{
					"inputs": [],
					"name": "studentID",
					"outputs": [
						{
							"internalType": "int256",
							"name": "",
							"type": "int256"
						}
					],
					"stateMutability": "view",
					"type": "function"
				},
				{
					"inputs": [
						{
							"internalType": "int256",
							"name": "",
							"type": "int256"
						}
					],
					"name": "studentRecords",
					"outputs": [
						{
							"internalType": "int256",
							"name": "ID",
							"type": "int256"
						},
						{
							"internalType": "string",
							"name": "firstName",
							"type": "string"
						},
						{
							"internalType": "string",
							"name": "lastName",
							"type": "string"
						}
					],
					"stateMutability": "view",
					"type": "function"
				}
			],
			"devdoc": {
				"kind": "dev",
				"methods": {},
				"version": 1
			},
			"evm": {
				"assembly": "    /* \"contracts/_StudentDatabase.sol\":69:991  contract StudentDatabase{\r... */\n  mstore(0x40, 0x80)\n    /* \"contracts/_StudentDatabase.sol\":256:257  0 */\n  0x00\n    /* \"contracts/_StudentDatabase.sol\":233:257  int public studentID = 0 */\n  dup1\n  sstore\n    /* \"contracts/_StudentDatabase.sol\":69:991  contract StudentDatabase{\r... */\n  callvalue\n  dup1\n  iszero\n  tag_1\n  jumpi\n  0x00\n  dup1\n  revert\ntag_1:\n  pop\n  dataSize(sub_0)\n  dup1\n  dataOffset(sub_0)\n  0x00\n  codecopy\n  0x00\n  return\nstop\n\nsub_0: assembly {\n        /* \"contracts/_StudentDatabase.sol\":69:991  contract StudentDatabase{\r... */\n      mstore(0x40, 0x80)\n      callvalue\n      dup1\n      iszero\n      tag_1\n      jumpi\n      0x00\n      dup1\n      revert\n    tag_1:\n      pop\n      jumpi(tag_2, lt(calldatasize, 0x04))\n      shr(0xe0, calldataload(0x00))\n      dup1\n      0x6a7ae124\n      eq\n      tag_3\n      jumpi\n      dup1\n      0xb6f41098\n      eq\n      tag_4\n      jumpi\n      dup1\n      0xb7e00013\n      eq\n      tag_5\n      jumpi\n      dup1\n      0xfcd56be3\n      eq\n      tag_6\n      jumpi\n    tag_2:\n      0x00\n      dup1\n      revert\n        /* \"contracts/_StudentDatabase.sol\":264:309  mapping(int => Student) public studentRecords */\n    tag_3:\n      tag_7\n      0x04\n      dup1\n      calldatasize\n      sub\n      dup2\n      add\n      swap1\n      tag_8\n      swap2\n      swap1\n      tag_9\n      jump\t// in\n    tag_8:\n      tag_10\n      jump\t// in\n    tag_7:\n      mload(0x40)\n      tag_11\n      swap4\n      swap3\n      swap2\n      swap1\n      tag_12\n      jump\t// in\n    tag_11:\n      mload(0x40)\n      dup1\n      swap2\n      sub\n      swap1\n      return\n        /* \"contracts/_StudentDatabase.sol\":356:663  function addNewStudent(int _ID, string memory _firstName, string memory _lastName) public {\r... */\n    tag_4:\n      tag_13\n      0x04\n      dup1\n      calldatasize\n      sub\n      dup2\n      add\n      swap1\n      tag_14\n      swap2\n      swap1\n      tag_15\n      jump\t// in\n    tag_14:\n      tag_16\n      jump\t// in\n    tag_13:\n      stop\n        /* \"contracts/_StudentDatabase.sol\":233:257  int public studentID = 0 */\n    tag_5:\n      tag_17\n      tag_18\n      jump\t// in\n    tag_17:\n      mload(0x40)\n      tag_19\n      swap2\n      swap1\n      tag_20\n      jump\t// in\n    tag_19:\n      mload(0x40)\n      dup1\n      swap2\n      sub\n      swap1\n      return\n        /* \"contracts/_StudentDatabase.sol\":711:978  function getStudentDetails(int) public view returns (int, string memory, string memory) {\r... */\n    tag_6:\n      tag_21\n      0x04\n      dup1\n      calldatasize\n      sub\n      dup2\n      add\n      swap1\n      tag_22\n      swap2\n      swap1\n      tag_9\n      jump\t// in\n    tag_22:\n      tag_23\n      jump\t// in\n    tag_21:\n      mload(0x40)\n      tag_24\n      swap4\n      swap3\n      swap2\n      swap1\n      tag_12\n      jump\t// in\n    tag_24:\n      mload(0x40)\n      dup1\n      swap2\n      sub\n      swap1\n      return\n        /* \"contracts/_StudentDatabase.sol\":264:309  mapping(int => Student) public studentRecords */\n    tag_10:\n      mstore(0x20, 0x01)\n      dup1\n      0x00\n      mstore\n      keccak256(0x00, 0x40)\n      0x00\n      swap2\n      pop\n      swap1\n      pop\n      dup1\n      0x00\n      add\n      sload\n      swap1\n      dup1\n      0x01\n      add\n      dup1\n      sload\n      tag_25\n      swap1\n      tag_26\n      jump\t// in\n    tag_25:\n      dup1\n      0x1f\n      add\n      0x20\n      dup1\n      swap2\n      div\n      mul\n      0x20\n      add\n      mload(0x40)\n      swap1\n      dup2\n      add\n      0x40\n      mstore\n      dup1\n      swap3\n      swap2\n      swap1\n      dup2\n      dup2\n      mstore\n      0x20\n      add\n      dup3\n      dup1\n      sload\n      tag_27\n      swap1\n      tag_26\n      jump\t// in\n    tag_27:\n      dup1\n      iszero\n      tag_28\n      jumpi\n      dup1\n      0x1f\n      lt\n      tag_29\n      jumpi\n      0x0100\n      dup1\n      dup4\n      sload\n      div\n      mul\n      dup4\n      mstore\n      swap2\n      0x20\n      add\n      swap2\n      jump(tag_28)\n    tag_29:\n      dup3\n      add\n      swap2\n      swap1\n      0x00\n      mstore\n      keccak256(0x00, 0x20)\n      swap1\n    tag_30:\n      dup2\n      sload\n      dup2\n      mstore\n      swap1\n      0x01\n      add\n      swap1\n      0x20\n      add\n      dup1\n      dup4\n      gt\n      tag_30\n      jumpi\n      dup3\n      swap1\n      sub\n      0x1f\n      and\n      dup3\n      add\n      swap2\n    tag_28:\n      pop\n      pop\n      pop\n      pop\n      pop\n      swap1\n      dup1\n      0x02\n      add\n      dup1\n      sload\n      tag_31\n      swap1\n      tag_26\n      jump\t// in\n    tag_31:\n      dup1\n      0x1f\n      add\n      0x20\n      dup1\n      swap2\n      div\n      mul\n      0x20\n      add\n      mload(0x40)\n      swap1\n      dup2\n      add\n      0x40\n      mstore\n      dup1\n      swap3\n      swap2\n      swap1\n      dup2\n      dup2\n      mstore\n      0x20\n      add\n      dup3\n      dup1\n      sload\n      tag_32\n      swap1\n      tag_26\n      jump\t// in\n    tag_32:\n      dup1\n      iszero\n      tag_33\n      jumpi\n      dup1\n      0x1f\n      lt\n      tag_34\n      jumpi\n      0x0100\n      dup1\n      dup4\n      sload\n      div\n      mul\n      dup4\n      mstore\n      swap2\n      0x20\n      add\n      swap2\n      jump(tag_33)\n    tag_34:\n      dup3\n      add\n      swap2\n      swap1\n      0x00\n      mstore\n      keccak256(0x00, 0x20)\n      swap1\n    tag_35:\n      dup2\n      sload\n      dup2\n      mstore\n      swap1\n      0x01\n      add\n      swap1\n      0x20\n      add\n      dup1\n      dup4\n      gt\n      tag_35\n      jumpi\n      dup3\n      swap1\n      sub\n      0x1f\n      and\n      dup3\n      add\n      swap2\n    tag_33:\n      pop\n      pop\n      pop\n      pop\n      pop\n      swap1\n      pop\n      dup4\n      jump\t// out\n        /* \"contracts/_StudentDatabase.sol\":356:663  function addNewStudent(int _ID, string memory _firstName, string memory _lastName) public {\r... */\n    tag_16:\n        /* \"contracts/_StudentDatabase.sol\":541:542  1 */\n      0x01\n        /* \"contracts/_StudentDatabase.sol\":529:538  studentID */\n      sload(0x00)\n        /* \"contracts/_StudentDatabase.sol\":529:542  studentID + 1 */\n      tag_37\n      swap2\n      swap1\n      tag_38\n      jump\t// in\n    tag_37:\n        /* \"contracts/_StudentDatabase.sol\":517:526  studentID */\n      0x00\n        /* \"contracts/_StudentDatabase.sol\":517:542  studentID = studentID + 1 */\n      dup2\n      swap1\n      sstore\n      pop\n        /* \"contracts/_StudentDatabase.sol\":620:655  Student(_ID, _firstName, _lastName) */\n      mload(0x40)\n      dup1\n      0x60\n      add\n      0x40\n      mstore\n      dup1\n        /* \"contracts/_StudentDatabase.sol\":628:631  _ID */\n      dup5\n        /* \"contracts/_StudentDatabase.sol\":620:655  Student(_ID, _firstName, _lastName) */\n      dup2\n      mstore\n      0x20\n      add\n        /* \"contracts/_StudentDatabase.sol\":633:643  _firstName */\n      dup4\n        /* \"contracts/_StudentDatabase.sol\":620:655  Student(_ID, _firstName, _lastName) */\n      dup2\n      mstore\n      0x20\n      add\n        /* \"contracts/_StudentDatabase.sol\":645:654  _lastName */\n      dup3\n        /* \"contracts/_StudentDatabase.sol\":620:655  Student(_ID, _firstName, _lastName) */\n      dup2\n      mstore\n      pop\n        /* \"contracts/_StudentDatabase.sol\":592:606  studentRecords */\n      0x01\n        /* \"contracts/_StudentDatabase.sol\":592:617  studentRecords[studentID] */\n      0x00\n        /* \"contracts/_StudentDatabase.sol\":607:616  studentID */\n      dup1\n      sload\n        /* \"contracts/_StudentDatabase.sol\":592:617  studentRecords[studentID] */\n      dup2\n      mstore\n      0x20\n      add\n      swap1\n      dup2\n      mstore\n      0x20\n      add\n      0x00\n      keccak256\n        /* \"contracts/_StudentDatabase.sol\":592:655  studentRecords[studentID] = Student(_ID, _firstName, _lastName) */\n      0x00\n      dup3\n      add\n      mload\n      dup2\n      0x00\n      add\n      sstore\n      0x20\n      dup3\n      add\n      mload\n      dup2\n      0x01\n      add\n      swap1\n      dup1\n      mload\n      swap1\n      0x20\n      add\n      swap1\n      tag_39\n      swap3\n      swap2\n      swap1\n      tag_40\n      jump\t// in\n    tag_39:\n      pop\n      0x40\n      dup3\n      add\n      mload\n      dup2\n      0x02\n      add\n      swap1\n      dup1\n      mload\n      swap1\n      0x20\n      add\n      swap1\n      tag_41\n      swap3\n      swap2\n      swap1\n      tag_40\n      jump\t// in\n    tag_41:\n      pop\n      swap1\n      pop\n      pop\n        /* \"contracts/_StudentDatabase.sol\":356:663  function addNewStudent(int _ID, string memory _firstName, string memory _lastName) public {\r... */\n      pop\n      pop\n      pop\n      jump\t// out\n        /* \"contracts/_StudentDatabase.sol\":233:257  int public studentID = 0 */\n    tag_18:\n      sload(0x00)\n      dup2\n      jump\t// out\n        /* \"contracts/_StudentDatabase.sol\":711:978  function getStudentDetails(int) public view returns (int, string memory, string memory) {\r... */\n    tag_23:\n        /* \"contracts/_StudentDatabase.sol\":764:767  int */\n      0x00\n        /* \"contracts/_StudentDatabase.sol\":769:782  string memory */\n      0x60\n        /* \"contracts/_StudentDatabase.sol\":784:797  string memory */\n      dup1\n        /* \"contracts/_StudentDatabase.sol\":832:846  studentRecords */\n      0x01\n        /* \"contracts/_StudentDatabase.sol\":832:857  studentRecords[studentID] */\n      0x00\n        /* \"contracts/_StudentDatabase.sol\":847:856  studentID */\n      dup1\n      sload\n        /* \"contracts/_StudentDatabase.sol\":832:857  studentRecords[studentID] */\n      dup2\n      mstore\n      0x20\n      add\n      swap1\n      dup2\n      mstore\n      0x20\n      add\n      0x00\n      keccak256\n        /* \"contracts/_StudentDatabase.sol\":832:860  studentRecords[studentID].ID */\n      0x00\n      add\n      sload\n        /* \"contracts/_StudentDatabase.sol\":875:889  studentRecords */\n      0x01\n        /* \"contracts/_StudentDatabase.sol\":875:900  studentRecords[studentID] */\n      0x00\n        /* \"contracts/_StudentDatabase.sol\":890:899  studentID */\n      dup1\n      sload\n        /* \"contracts/_StudentDatabase.sol\":875:900  studentRecords[studentID] */\n      dup2\n      mstore\n      0x20\n      add\n      swap1\n      dup2\n      mstore\n      0x20\n      add\n      0x00\n      keccak256\n        /* \"contracts/_StudentDatabase.sol\":875:910  studentRecords[studentID].firstName */\n      0x01\n      add\n        /* \"contracts/_StudentDatabase.sol\":925:939  studentRecords */\n      0x01\n        /* \"contracts/_StudentDatabase.sol\":925:950  studentRecords[studentID] */\n      0x00\n        /* \"contracts/_StudentDatabase.sol\":940:949  studentID */\n      dup1\n      sload\n        /* \"contracts/_StudentDatabase.sol\":925:950  studentRecords[studentID] */\n      dup2\n      mstore\n      0x20\n      add\n      swap1\n      dup2\n      mstore\n      0x20\n      add\n      0x00\n      keccak256\n        /* \"contracts/_StudentDatabase.sol\":925:959  studentRecords[studentID].lastName */\n      0x02\n      add\n        /* \"contracts/_StudentDatabase.sol\":810:970  return (\r... */\n      dup2\n      dup1\n      sload\n      tag_43\n      swap1\n      tag_26\n      jump\t// in\n    tag_43:\n      dup1\n      0x1f\n      add\n      0x20\n      dup1\n      swap2\n      div\n      mul\n      0x20\n      add\n      mload(0x40)\n      swap1\n      dup2\n      add\n      0x40\n      mstore\n      dup1\n      swap3\n      swap2\n      swap1\n      dup2\n      dup2\n      mstore\n      0x20\n      add\n      dup3\n      dup1\n      sload\n      tag_44\n      swap1\n      tag_26\n      jump\t// in\n    tag_44:\n      dup1\n      iszero\n      tag_45\n      jumpi\n      dup1\n      0x1f\n      lt\n      tag_46\n      jumpi\n      0x0100\n      dup1\n      dup4\n      sload\n      div\n      mul\n      dup4\n      mstore\n      swap2\n      0x20\n      add\n      swap2\n      jump(tag_45)\n    tag_46:\n      dup3\n      add\n      swap2\n      swap1\n      0x00\n      mstore\n      keccak256(0x00, 0x20)\n      swap1\n    tag_47:\n      dup2\n      sload\n      dup2\n      mstore\n      swap1\n      0x01\n      add\n      swap1\n      0x20\n      add\n      dup1\n      dup4\n      gt\n      tag_47\n      jumpi\n      dup3\n      swap1\n      sub\n      0x1f\n      and\n      dup3\n      add\n      swap2\n    tag_45:\n      pop\n      pop\n      pop\n      pop\n      pop\n      swap2\n      pop\n      dup1\n      dup1\n      sload\n      tag_48\n      swap1\n      tag_26\n      jump\t// in\n    tag_48:\n      dup1\n      0x1f\n      add\n      0x20\n      dup1\n      swap2\n      div\n      mul\n      0x20\n      add\n      mload(0x40)\n      swap1\n      dup2\n      add\n      0x40\n      mstore\n      dup1\n      swap3\n      swap2\n      swap1\n      dup2\n      dup2\n      mstore\n      0x20\n      add\n      dup3\n      dup1\n      sload\n      tag_49\n      swap1\n      tag_26\n      jump\t// in\n    tag_49:\n      dup1\n      iszero\n      tag_50\n      jumpi\n      dup1\n      0x1f\n      lt\n      tag_51\n      jumpi\n      0x0100\n      dup1\n      dup4\n      sload\n      div\n      mul\n      dup4\n      mstore\n      swap2\n      0x20\n      add\n      swap2\n      jump(tag_50)\n    tag_51:\n      dup3\n      add\n      swap2\n      swap1\n      0x00\n      mstore\n      keccak256(0x00, 0x20)\n      swap1\n    tag_52:\n      dup2\n      sload\n      dup2\n      mstore\n      swap1\n      0x01\n      add\n      swap1\n      0x20\n      add\n      dup1\n      dup4\n      gt\n      tag_52\n      jumpi\n      dup3\n      swap1\n      sub\n      0x1f\n      and\n      dup3\n      add\n      swap2\n    tag_50:\n      pop\n      pop\n      pop\n      pop\n      pop\n      swap1\n      pop\n      swap3\n      pop\n      swap3\n      pop\n      swap3\n      pop\n        /* \"contracts/_StudentDatabase.sol\":711:978  function getStudentDetails(int) public view returns (int, string memory, string memory) {\r... */\n      swap2\n      swap4\n      swap1\n      swap3\n      pop\n      jump\t// out\n    tag_40:\n      dup3\n      dup1\n      sload\n      tag_53\n      swap1\n      tag_26\n      jump\t// in\n    tag_53:\n      swap1\n      0x00\n      mstore\n      keccak256(0x00, 0x20)\n      swap1\n      0x1f\n      add\n      0x20\n      swap1\n      div\n      dup2\n      add\n      swap3\n      dup3\n      tag_55\n      jumpi\n      0x00\n      dup6\n      sstore\n      jump(tag_54)\n    tag_55:\n      dup3\n      0x1f\n      lt\n      tag_56\n      jumpi\n      dup1\n      mload\n      not(0xff)\n      and\n      dup4\n      dup1\n      add\n      or\n      dup6\n      sstore\n      jump(tag_54)\n    tag_56:\n      dup3\n      dup1\n      add\n      0x01\n      add\n      dup6\n      sstore\n      dup3\n      iszero\n      tag_54\n      jumpi\n      swap2\n      dup3\n      add\n    tag_57:\n      dup3\n      dup2\n      gt\n      iszero\n      tag_58\n      jumpi\n      dup3\n      mload\n      dup3\n      sstore\n      swap2\n      0x20\n      add\n      swap2\n      swap1\n      0x01\n      add\n      swap1\n      jump(tag_57)\n    tag_58:\n    tag_54:\n      pop\n      swap1\n      pop\n      tag_59\n      swap2\n      swap1\n      tag_60\n      jump\t// in\n    tag_59:\n      pop\n      swap1\n      jump\t// out\n    tag_60:\n    tag_61:\n      dup1\n      dup3\n      gt\n      iszero\n      tag_62\n      jumpi\n      0x00\n      dup2\n      0x00\n      swap1\n      sstore\n      pop\n      0x01\n      add\n      jump(tag_61)\n    tag_62:\n      pop\n      swap1\n      jump\t// out\n        /* \"#utility.yul\":7:351   */\n    tag_64:\n      0x00\n        /* \"#utility.yul\":110:175   */\n      tag_66\n        /* \"#utility.yul\":125:174   */\n      tag_67\n        /* \"#utility.yul\":167:173   */\n      dup5\n        /* \"#utility.yul\":125:174   */\n      tag_68\n      jump\t// in\n    tag_67:\n        /* \"#utility.yul\":110:175   */\n      tag_69\n      jump\t// in\n    tag_66:\n        /* \"#utility.yul\":101:175   */\n      swap1\n      pop\n        /* \"#utility.yul\":198:204   */\n      dup3\n        /* \"#utility.yul\":191:196   */\n      dup2\n        /* \"#utility.yul\":184:205   */\n      mstore\n        /* \"#utility.yul\":236:240   */\n      0x20\n        /* \"#utility.yul\":229:234   */\n      dup2\n        /* \"#utility.yul\":225:241   */\n      add\n        /* \"#utility.yul\":274:277   */\n      dup5\n        /* \"#utility.yul\":265:271   */\n      dup5\n        /* \"#utility.yul\":260:263   */\n      dup5\n        /* \"#utility.yul\":256:272   */\n      add\n        /* \"#utility.yul\":253:278   */\n      gt\n        /* \"#utility.yul\":250:252   */\n      iszero\n      tag_70\n      jumpi\n        /* \"#utility.yul\":291:292   */\n      0x00\n        /* \"#utility.yul\":288:289   */\n      dup1\n        /* \"#utility.yul\":281:293   */\n      revert\n        /* \"#utility.yul\":250:252   */\n    tag_70:\n        /* \"#utility.yul\":304:345   */\n      tag_71\n        /* \"#utility.yul\":338:344   */\n      dup5\n        /* \"#utility.yul\":333:336   */\n      dup3\n        /* \"#utility.yul\":328:331   */\n      dup6\n        /* \"#utility.yul\":304:345   */\n      tag_72\n      jump\t// in\n    tag_71:\n        /* \"#utility.yul\":91:351   */\n      pop\n      swap4\n      swap3\n      pop\n      pop\n      pop\n      jump\t// out\n        /* \"#utility.yul\":357:494   */\n    tag_73:\n      0x00\n        /* \"#utility.yul\":440:446   */\n      dup2\n        /* \"#utility.yul\":427:447   */\n      calldataload\n        /* \"#utility.yul\":418:447   */\n      swap1\n      pop\n        /* \"#utility.yul\":456:488   */\n      tag_75\n        /* \"#utility.yul\":482:487   */\n      dup2\n        /* \"#utility.yul\":456:488   */\n      tag_76\n      jump\t// in\n    tag_75:\n        /* \"#utility.yul\":408:494   */\n      swap3\n      swap2\n      pop\n      pop\n      jump\t// out\n        /* \"#utility.yul\":514:787   */\n    tag_77:\n      0x00\n        /* \"#utility.yul\":619:622   */\n      dup3\n        /* \"#utility.yul\":612:616   */\n      0x1f\n        /* \"#utility.yul\":604:610   */\n      dup4\n        /* \"#utility.yul\":600:617   */\n      add\n        /* \"#utility.yul\":596:623   */\n      slt\n        /* \"#utility.yul\":586:588   */\n      tag_79\n      jumpi\n        /* \"#utility.yul\":637:638   */\n      0x00\n        /* \"#utility.yul\":634:635   */\n      dup1\n        /* \"#utility.yul\":627:639   */\n      revert\n        /* \"#utility.yul\":586:588   */\n    tag_79:\n        /* \"#utility.yul\":677:683   */\n      dup2\n        /* \"#utility.yul\":664:684   */\n      calldataload\n        /* \"#utility.yul\":702:781   */\n      tag_80\n        /* \"#utility.yul\":777:780   */\n      dup5\n        /* \"#utility.yul\":769:775   */\n      dup3\n        /* \"#utility.yul\":762:766   */\n      0x20\n        /* \"#utility.yul\":754:760   */\n      dup7\n        /* \"#utility.yul\":750:767   */\n      add\n        /* \"#utility.yul\":702:781   */\n      tag_64\n      jump\t// in\n    tag_80:\n        /* \"#utility.yul\":693:781   */\n      swap2\n      pop\n        /* \"#utility.yul\":576:787   */\n      pop\n      swap3\n      swap2\n      pop\n      pop\n      jump\t// out\n        /* \"#utility.yul\":793:1053   */\n    tag_9:\n      0x00\n        /* \"#utility.yul\":900:902   */\n      0x20\n        /* \"#utility.yul\":888:897   */\n      dup3\n        /* \"#utility.yul\":879:886   */\n      dup5\n        /* \"#utility.yul\":875:898   */\n      sub\n        /* \"#utility.yul\":871:903   */\n      slt\n        /* \"#utility.yul\":868:870   */\n      iszero\n      tag_82\n      jumpi\n        /* \"#utility.yul\":916:917   */\n      0x00\n        /* \"#utility.yul\":913:914   */\n      dup1\n        /* \"#utility.yul\":906:918   */\n      revert\n        /* \"#utility.yul\":868:870   */\n    tag_82:\n        /* \"#utility.yul\":959:960   */\n      0x00\n        /* \"#utility.yul\":984:1036   */\n      tag_83\n        /* \"#utility.yul\":1028:1035   */\n      dup5\n        /* \"#utility.yul\":1019:1025   */\n      dup3\n        /* \"#utility.yul\":1008:1017   */\n      dup6\n        /* \"#utility.yul\":1004:1026   */\n      add\n        /* \"#utility.yul\":984:1036   */\n      tag_73\n      jump\t// in\n    tag_83:\n        /* \"#utility.yul\":974:1036   */\n      swap2\n      pop\n        /* \"#utility.yul\":930:1046   */\n      pop\n        /* \"#utility.yul\":858:1053   */\n      swap3\n      swap2\n      pop\n      pop\n      jump\t// out\n        /* \"#utility.yul\":1059:1835   */\n    tag_15:\n      0x00\n      dup1\n      0x00\n        /* \"#utility.yul\":1220:1222   */\n      0x60\n        /* \"#utility.yul\":1208:1217   */\n      dup5\n        /* \"#utility.yul\":1199:1206   */\n      dup7\n        /* \"#utility.yul\":1195:1218   */\n      sub\n        /* \"#utility.yul\":1191:1223   */\n      slt\n        /* \"#utility.yul\":1188:1190   */\n      iszero\n      tag_85\n      jumpi\n        /* \"#utility.yul\":1236:1237   */\n      0x00\n        /* \"#utility.yul\":1233:1234   */\n      dup1\n        /* \"#utility.yul\":1226:1238   */\n      revert\n        /* \"#utility.yul\":1188:1190   */\n    tag_85:\n        /* \"#utility.yul\":1279:1280   */\n      0x00\n        /* \"#utility.yul\":1304:1356   */\n      tag_86\n        /* \"#utility.yul\":1348:1355   */\n      dup7\n        /* \"#utility.yul\":1339:1345   */\n      dup3\n        /* \"#utility.yul\":1328:1337   */\n      dup8\n        /* \"#utility.yul\":1324:1346   */\n      add\n        /* \"#utility.yul\":1304:1356   */\n      tag_73\n      jump\t// in\n    tag_86:\n        /* \"#utility.yul\":1294:1356   */\n      swap4\n      pop\n        /* \"#utility.yul\":1250:1366   */\n      pop\n        /* \"#utility.yul\":1433:1435   */\n      0x20\n        /* \"#utility.yul\":1422:1431   */\n      dup5\n        /* \"#utility.yul\":1418:1436   */\n      add\n        /* \"#utility.yul\":1405:1437   */\n      calldataload\n        /* \"#utility.yul\":1464:1482   */\n      0xffffffffffffffff\n        /* \"#utility.yul\":1456:1462   */\n      dup2\n        /* \"#utility.yul\":1453:1483   */\n      gt\n        /* \"#utility.yul\":1450:1452   */\n      iszero\n      tag_87\n      jumpi\n        /* \"#utility.yul\":1496:1497   */\n      0x00\n        /* \"#utility.yul\":1493:1494   */\n      dup1\n        /* \"#utility.yul\":1486:1498   */\n      revert\n        /* \"#utility.yul\":1450:1452   */\n    tag_87:\n        /* \"#utility.yul\":1524:1587   */\n      tag_88\n        /* \"#utility.yul\":1579:1586   */\n      dup7\n        /* \"#utility.yul\":1570:1576   */\n      dup3\n        /* \"#utility.yul\":1559:1568   */\n      dup8\n        /* \"#utility.yul\":1555:1577   */\n      add\n        /* \"#utility.yul\":1524:1587   */\n      tag_77\n      jump\t// in\n    tag_88:\n        /* \"#utility.yul\":1514:1587   */\n      swap3\n      pop\n        /* \"#utility.yul\":1376:1597   */\n      pop\n        /* \"#utility.yul\":1664:1666   */\n      0x40\n        /* \"#utility.yul\":1653:1662   */\n      dup5\n        /* \"#utility.yul\":1649:1667   */\n      add\n        /* \"#utility.yul\":1636:1668   */\n      calldataload\n        /* \"#utility.yul\":1695:1713   */\n      0xffffffffffffffff\n        /* \"#utility.yul\":1687:1693   */\n      dup2\n        /* \"#utility.yul\":1684:1714   */\n      gt\n        /* \"#utility.yul\":1681:1683   */\n      iszero\n      tag_89\n      jumpi\n        /* \"#utility.yul\":1727:1728   */\n      0x00\n        /* \"#utility.yul\":1724:1725   */\n      dup1\n        /* \"#utility.yul\":1717:1729   */\n      revert\n        /* \"#utility.yul\":1681:1683   */\n    tag_89:\n        /* \"#utility.yul\":1755:1818   */\n      tag_90\n        /* \"#utility.yul\":1810:1817   */\n      dup7\n        /* \"#utility.yul\":1801:1807   */\n      dup3\n        /* \"#utility.yul\":1790:1799   */\n      dup8\n        /* \"#utility.yul\":1786:1808   */\n      add\n        /* \"#utility.yul\":1755:1818   */\n      tag_77\n      jump\t// in\n    tag_90:\n        /* \"#utility.yul\":1745:1818   */\n      swap2\n      pop\n        /* \"#utility.yul\":1607:1828   */\n      pop\n        /* \"#utility.yul\":1178:1835   */\n      swap3\n      pop\n      swap3\n      pop\n      swap3\n      jump\t// out\n        /* \"#utility.yul\":1841:1956   */\n    tag_91:\n        /* \"#utility.yul\":1926:1949   */\n      tag_93\n        /* \"#utility.yul\":1943:1948   */\n      dup2\n        /* \"#utility.yul\":1926:1949   */\n      tag_94\n      jump\t// in\n    tag_93:\n        /* \"#utility.yul\":1921:1924   */\n      dup3\n        /* \"#utility.yul\":1914:1950   */\n      mstore\n        /* \"#utility.yul\":1904:1956   */\n      pop\n      pop\n      jump\t// out\n        /* \"#utility.yul\":1962:2326   */\n    tag_95:\n      0x00\n        /* \"#utility.yul\":2078:2117   */\n      tag_97\n        /* \"#utility.yul\":2111:2116   */\n      dup3\n        /* \"#utility.yul\":2078:2117   */\n      tag_98\n      jump\t// in\n    tag_97:\n        /* \"#utility.yul\":2133:2204   */\n      tag_99\n        /* \"#utility.yul\":2197:2203   */\n      dup2\n        /* \"#utility.yul\":2192:2195   */\n      dup6\n        /* \"#utility.yul\":2133:2204   */\n      tag_100\n      jump\t// in\n    tag_99:\n        /* \"#utility.yul\":2126:2204   */\n      swap4\n      pop\n        /* \"#utility.yul\":2213:2265   */\n      tag_101\n        /* \"#utility.yul\":2258:2264   */\n      dup2\n        /* \"#utility.yul\":2253:2256   */\n      dup6\n        /* \"#utility.yul\":2246:2250   */\n      0x20\n        /* \"#utility.yul\":2239:2244   */\n      dup7\n        /* \"#utility.yul\":2235:2251   */\n      add\n        /* \"#utility.yul\":2213:2265   */\n      tag_102\n      jump\t// in\n    tag_101:\n        /* \"#utility.yul\":2290:2319   */\n      tag_103\n        /* \"#utility.yul\":2312:2318   */\n      dup2\n        /* \"#utility.yul\":2290:2319   */\n      tag_104\n      jump\t// in\n    tag_103:\n        /* \"#utility.yul\":2285:2288   */\n      dup5\n        /* \"#utility.yul\":2281:2320   */\n      add\n        /* \"#utility.yul\":2274:2320   */\n      swap2\n      pop\n        /* \"#utility.yul\":2054:2326   */\n      pop\n      swap3\n      swap2\n      pop\n      pop\n      jump\t// out\n        /* \"#utility.yul\":2332:2550   */\n    tag_20:\n      0x00\n        /* \"#utility.yul\":2461:2463   */\n      0x20\n        /* \"#utility.yul\":2450:2459   */\n      dup3\n        /* \"#utility.yul\":2446:2464   */\n      add\n        /* \"#utility.yul\":2438:2464   */\n      swap1\n      pop\n        /* \"#utility.yul\":2474:2543   */\n      tag_106\n        /* \"#utility.yul\":2540:2541   */\n      0x00\n        /* \"#utility.yul\":2529:2538   */\n      dup4\n        /* \"#utility.yul\":2525:2542   */\n      add\n        /* \"#utility.yul\":2516:2522   */\n      dup5\n        /* \"#utility.yul\":2474:2543   */\n      tag_91\n      jump\t// in\n    tag_106:\n        /* \"#utility.yul\":2428:2550   */\n      swap3\n      swap2\n      pop\n      pop\n      jump\t// out\n        /* \"#utility.yul\":2556:3176   */\n    tag_12:\n      0x00\n        /* \"#utility.yul\":2781:2783   */\n      0x60\n        /* \"#utility.yul\":2770:2779   */\n      dup3\n        /* \"#utility.yul\":2766:2784   */\n      add\n        /* \"#utility.yul\":2758:2784   */\n      swap1\n      pop\n        /* \"#utility.yul\":2794:2863   */\n      tag_108\n        /* \"#utility.yul\":2860:2861   */\n      0x00\n        /* \"#utility.yul\":2849:2858   */\n      dup4\n        /* \"#utility.yul\":2845:2862   */\n      add\n        /* \"#utility.yul\":2836:2842   */\n      dup7\n        /* \"#utility.yul\":2794:2863   */\n      tag_91\n      jump\t// in\n    tag_108:\n        /* \"#utility.yul\":2910:2919   */\n      dup2\n        /* \"#utility.yul\":2904:2908   */\n      dup2\n        /* \"#utility.yul\":2900:2920   */\n      sub\n        /* \"#utility.yul\":2895:2897   */\n      0x20\n        /* \"#utility.yul\":2884:2893   */\n      dup4\n        /* \"#utility.yul\":2880:2898   */\n      add\n        /* \"#utility.yul\":2873:2921   */\n      mstore\n        /* \"#utility.yul\":2938:3016   */\n      tag_109\n        /* \"#utility.yul\":3011:3015   */\n      dup2\n        /* \"#utility.yul\":3002:3008   */\n      dup6\n        /* \"#utility.yul\":2938:3016   */\n      tag_95\n      jump\t// in\n    tag_109:\n        /* \"#utility.yul\":2930:3016   */\n      swap1\n      pop\n        /* \"#utility.yul\":3063:3072   */\n      dup2\n        /* \"#utility.yul\":3057:3061   */\n      dup2\n        /* \"#utility.yul\":3053:3073   */\n      sub\n        /* \"#utility.yul\":3048:3050   */\n      0x40\n        /* \"#utility.yul\":3037:3046   */\n      dup4\n        /* \"#utility.yul\":3033:3051   */\n      add\n        /* \"#utility.yul\":3026:3074   */\n      mstore\n        /* \"#utility.yul\":3091:3169   */\n      tag_110\n        /* \"#utility.yul\":3164:3168   */\n      dup2\n        /* \"#utility.yul\":3155:3161   */\n      dup5\n        /* \"#utility.yul\":3091:3169   */\n      tag_95\n      jump\t// in\n    tag_110:\n        /* \"#utility.yul\":3083:3169   */\n      swap1\n      pop\n        /* \"#utility.yul\":2748:3176   */\n      swap5\n      swap4\n      pop\n      pop\n      pop\n      pop\n      jump\t// out\n        /* \"#utility.yul\":3182:3465   */\n    tag_69:\n      0x00\n        /* \"#utility.yul\":3248:3250   */\n      0x40\n        /* \"#utility.yul\":3242:3251   */\n      mload\n        /* \"#utility.yul\":3232:3251   */\n      swap1\n      pop\n        /* \"#utility.yul\":3290:3294   */\n      dup2\n        /* \"#utility.yul\":3282:3288   */\n      dup2\n        /* \"#utility.yul\":3278:3295   */\n      add\n        /* \"#utility.yul\":3397:3403   */\n      dup2\n        /* \"#utility.yul\":3385:3395   */\n      dup2\n        /* \"#utility.yul\":3382:3404   */\n      lt\n        /* \"#utility.yul\":3361:3379   */\n      0xffffffffffffffff\n        /* \"#utility.yul\":3349:3359   */\n      dup3\n        /* \"#utility.yul\":3346:3380   */\n      gt\n        /* \"#utility.yul\":3343:3405   */\n      or\n        /* \"#utility.yul\":3340:3342   */\n      iszero\n      tag_112\n      jumpi\n        /* \"#utility.yul\":3408:3426   */\n      tag_113\n      tag_114\n      jump\t// in\n    tag_113:\n        /* \"#utility.yul\":3340:3342   */\n    tag_112:\n        /* \"#utility.yul\":3448:3458   */\n      dup1\n        /* \"#utility.yul\":3444:3446   */\n      0x40\n        /* \"#utility.yul\":3437:3459   */\n      mstore\n        /* \"#utility.yul\":3222:3465   */\n      pop\n      swap2\n      swap1\n      pop\n      jump\t// out\n        /* \"#utility.yul\":3471:3803   */\n    tag_68:\n      0x00\n        /* \"#utility.yul\":3623:3641   */\n      0xffffffffffffffff\n        /* \"#utility.yul\":3615:3621   */\n      dup3\n        /* \"#utility.yul\":3612:3642   */\n      gt\n        /* \"#utility.yul\":3609:3611   */\n      iszero\n      tag_116\n      jumpi\n        /* \"#utility.yul\":3645:3663   */\n      tag_117\n      tag_114\n      jump\t// in\n    tag_117:\n        /* \"#utility.yul\":3609:3611   */\n    tag_116:\n        /* \"#utility.yul\":3730:3734   */\n      0x1f\n        /* \"#utility.yul\":3726:3735   */\n      not\n        /* \"#utility.yul\":3719:3723   */\n      0x1f\n        /* \"#utility.yul\":3711:3717   */\n      dup4\n        /* \"#utility.yul\":3707:3724   */\n      add\n        /* \"#utility.yul\":3703:3736   */\n      and\n        /* \"#utility.yul\":3695:3736   */\n      swap1\n      pop\n        /* \"#utility.yul\":3791:3795   */\n      0x20\n        /* \"#utility.yul\":3785:3789   */\n      dup2\n        /* \"#utility.yul\":3781:3796   */\n      add\n        /* \"#utility.yul\":3773:3796   */\n      swap1\n      pop\n        /* \"#utility.yul\":3538:3803   */\n      swap2\n      swap1\n      pop\n      jump\t// out\n        /* \"#utility.yul\":3809:3908   */\n    tag_98:\n      0x00\n        /* \"#utility.yul\":3895:3900   */\n      dup2\n        /* \"#utility.yul\":3889:3901   */\n      mload\n        /* \"#utility.yul\":3879:3901   */\n      swap1\n      pop\n        /* \"#utility.yul\":3868:3908   */\n      swap2\n      swap1\n      pop\n      jump\t// out\n        /* \"#utility.yul\":3914:4083   */\n    tag_100:\n      0x00\n        /* \"#utility.yul\":4032:4038   */\n      dup3\n        /* \"#utility.yul\":4027:4030   */\n      dup3\n        /* \"#utility.yul\":4020:4039   */\n      mstore\n        /* \"#utility.yul\":4072:4076   */\n      0x20\n        /* \"#utility.yul\":4067:4070   */\n      dup3\n        /* \"#utility.yul\":4063:4077   */\n      add\n        /* \"#utility.yul\":4048:4077   */\n      swap1\n      pop\n        /* \"#utility.yul\":4010:4083   */\n      swap3\n      swap2\n      pop\n      pop\n      jump\t// out\n        /* \"#utility.yul\":4089:4614   */\n    tag_38:\n      0x00\n        /* \"#utility.yul\":4147:4166   */\n      tag_121\n        /* \"#utility.yul\":4164:4165   */\n      dup3\n        /* \"#utility.yul\":4147:4166   */\n      tag_94\n      jump\t// in\n    tag_121:\n        /* \"#utility.yul\":4142:4166   */\n      swap2\n      pop\n        /* \"#utility.yul\":4180:4199   */\n      tag_122\n        /* \"#utility.yul\":4197:4198   */\n      dup4\n        /* \"#utility.yul\":4180:4199   */\n      tag_94\n      jump\t// in\n    tag_122:\n        /* \"#utility.yul\":4175:4199   */\n      swap3\n      pop\n        /* \"#utility.yul\":4368:4369   */\n      dup2\n        /* \"#utility.yul\":4300:4366   */\n      0x7fffffffffffffffffffffffffffffffffffffffffffffffffffffffffffffff\n        /* \"#utility.yul\":4296:4370   */\n      sub\n        /* \"#utility.yul\":4293:4294   */\n      dup4\n        /* \"#utility.yul\":4289:4371   */\n      sgt\n        /* \"#utility.yul\":4284:4285   */\n      0x00\n        /* \"#utility.yul\":4281:4282   */\n      dup4\n        /* \"#utility.yul\":4277:4286   */\n      slt\n        /* \"#utility.yul\":4270:4287   */\n      iszero\n        /* \"#utility.yul\":4266:4372   */\n      and\n        /* \"#utility.yul\":4263:4265   */\n      iszero\n      tag_123\n      jumpi\n        /* \"#utility.yul\":4375:4393   */\n      tag_124\n      tag_125\n      jump\t// in\n    tag_124:\n        /* \"#utility.yul\":4263:4265   */\n    tag_123:\n        /* \"#utility.yul\":4555:4556   */\n      dup2\n        /* \"#utility.yul\":4487:4553   */\n      0x8000000000000000000000000000000000000000000000000000000000000000\n        /* \"#utility.yul\":4483:4557   */\n      sub\n        /* \"#utility.yul\":4480:4481   */\n      dup4\n        /* \"#utility.yul\":4476:4558   */\n      slt\n        /* \"#utility.yul\":4472:4473   */\n      0x00\n        /* \"#utility.yul\":4469:4470   */\n      dup4\n        /* \"#utility.yul\":4465:4474   */\n      slt\n        /* \"#utility.yul\":4461:4559   */\n      and\n        /* \"#utility.yul\":4458:4460   */\n      iszero\n      tag_126\n      jumpi\n        /* \"#utility.yul\":4562:4580   */\n      tag_127\n      tag_125\n      jump\t// in\n    tag_127:\n        /* \"#utility.yul\":4458:4460   */\n    tag_126:\n        /* \"#utility.yul\":4606:4607   */\n      dup3\n        /* \"#utility.yul\":4603:4604   */\n      dup3\n        /* \"#utility.yul\":4599:4608   */\n      add\n        /* \"#utility.yul\":4592:4608   */\n      swap1\n      pop\n        /* \"#utility.yul\":4132:4614   */\n      swap3\n      swap2\n      pop\n      pop\n      jump\t// out\n        /* \"#utility.yul\":4620:4696   */\n    tag_94:\n      0x00\n        /* \"#utility.yul\":4685:4690   */\n      dup2\n        /* \"#utility.yul\":4674:4690   */\n      swap1\n      pop\n        /* \"#utility.yul\":4664:4696   */\n      swap2\n      swap1\n      pop\n      jump\t// out\n        /* \"#utility.yul\":4702:4856   */\n    tag_72:\n        /* \"#utility.yul\":4786:4792   */\n      dup3\n        /* \"#utility.yul\":4781:4784   */\n      dup2\n        /* \"#utility.yul\":4776:4779   */\n      dup4\n        /* \"#utility.yul\":4763:4793   */\n      calldatacopy\n        /* \"#utility.yul\":4848:4849   */\n      0x00\n        /* \"#utility.yul\":4839:4845   */\n      dup4\n        /* \"#utility.yul\":4834:4837   */\n      dup4\n        /* \"#utility.yul\":4830:4846   */\n      add\n        /* \"#utility.yul\":4823:4850   */\n      mstore\n        /* \"#utility.yul\":4753:4856   */\n      pop\n      pop\n      pop\n      jump\t// out\n        /* \"#utility.yul\":4862:5169   */\n    tag_102:\n        /* \"#utility.yul\":4930:4931   */\n      0x00\n        /* \"#utility.yul\":4940:5053   */\n    tag_131:\n        /* \"#utility.yul\":4954:4960   */\n      dup4\n        /* \"#utility.yul\":4951:4952   */\n      dup2\n        /* \"#utility.yul\":4948:4961   */\n      lt\n        /* \"#utility.yul\":4940:5053   */\n      iszero\n      tag_133\n      jumpi\n        /* \"#utility.yul\":5039:5040   */\n      dup1\n        /* \"#utility.yul\":5034:5037   */\n      dup3\n        /* \"#utility.yul\":5030:5041   */\n      add\n        /* \"#utility.yul\":5024:5042   */\n      mload\n        /* \"#utility.yul\":5020:5021   */\n      dup2\n        /* \"#utility.yul\":5015:5018   */\n      dup5\n        /* \"#utility.yul\":5011:5022   */\n      add\n        /* \"#utility.yul\":5004:5043   */\n      mstore\n        /* \"#utility.yul\":4976:4978   */\n      0x20\n        /* \"#utility.yul\":4973:4974   */\n      dup2\n        /* \"#utility.yul\":4969:4979   */\n      add\n        /* \"#utility.yul\":4964:4979   */\n      swap1\n      pop\n        /* \"#utility.yul\":4940:5053   */\n      jump(tag_131)\n    tag_133:\n        /* \"#utility.yul\":5071:5077   */\n      dup4\n        /* \"#utility.yul\":5068:5069   */\n      dup2\n        /* \"#utility.yul\":5065:5078   */\n      gt\n        /* \"#utility.yul\":5062:5064   */\n      iszero\n      tag_134\n      jumpi\n        /* \"#utility.yul\":5151:5152   */\n      0x00\n        /* \"#utility.yul\":5142:5148   */\n      dup5\n        /* \"#utility.yul\":5137:5140   */\n      dup5\n        /* \"#utility.yul\":5133:5149   */\n      add\n        /* \"#utility.yul\":5126:5153   */\n      mstore\n        /* \"#utility.yul\":5062:5064   */\n    tag_134:\n        /* \"#utility.yul\":4911:5169   */\n      pop\n      pop\n      pop\n      pop\n      jump\t// out\n        /* \"#utility.yul\":5175:5495   */\n    tag_26:\n      0x00\n        /* \"#utility.yul\":5256:5257   */\n      0x02\n        /* \"#utility.yul\":5250:5254   */\n      dup3\n        /* \"#utility.yul\":5246:5258   */\n      div\n        /* \"#utility.yul\":5236:5258   */\n      swap1\n      pop\n        /* \"#utility.yul\":5303:5304   */\n      0x01\n        /* \"#utility.yul\":5297:5301   */\n      dup3\n        /* \"#utility.yul\":5293:5305   */\n      and\n        /* \"#utility.yul\":5324:5342   */\n      dup1\n        /* \"#utility.yul\":5314:5316   */\n      tag_136\n      jumpi\n        /* \"#utility.yul\":5380:5384   */\n      0x7f\n        /* \"#utility.yul\":5372:5378   */\n      dup3\n        /* \"#utility.yul\":5368:5385   */\n      and\n        /* \"#utility.yul\":5358:5385   */\n      swap2\n      pop\n        /* \"#utility.yul\":5314:5316   */\n    tag_136:\n        /* \"#utility.yul\":5442:5444   */\n      0x20\n        /* \"#utility.yul\":5434:5440   */\n      dup3\n        /* \"#utility.yul\":5431:5445   */\n      lt\n        /* \"#utility.yul\":5411:5429   */\n      dup2\n        /* \"#utility.yul\":5408:5446   */\n      eq\n        /* \"#utility.yul\":5405:5407   */\n      iszero\n      tag_137\n      jumpi\n        /* \"#utility.yul\":5461:5479   */\n      tag_138\n      tag_139\n      jump\t// in\n    tag_138:\n        /* \"#utility.yul\":5405:5407   */\n    tag_137:\n        /* \"#utility.yul\":5226:5495   */\n      pop\n      swap2\n      swap1\n      pop\n      jump\t// out\n        /* \"#utility.yul\":5501:5681   */\n    tag_125:\n        /* \"#utility.yul\":5549:5626   */\n      0x4e487b7100000000000000000000000000000000000000000000000000000000\n        /* \"#utility.yul\":5546:5547   */\n      0x00\n        /* \"#utility.yul\":5539:5627   */\n      mstore\n        /* \"#utility.yul\":5646:5650   */\n      0x11\n        /* \"#utility.yul\":5643:5644   */\n      0x04\n        /* \"#utility.yul\":5636:5651   */\n      mstore\n        /* \"#utility.yul\":5670:5674   */\n      0x24\n        /* \"#utility.yul\":5667:5668   */\n      0x00\n        /* \"#utility.yul\":5660:5675   */\n      revert\n        /* \"#utility.yul\":5687:5867   */\n    tag_139:\n        /* \"#utility.yul\":5735:5812   */\n      0x4e487b7100000000000000000000000000000000000000000000000000000000\n        /* \"#utility.yul\":5732:5733   */\n      0x00\n        /* \"#utility.yul\":5725:5813   */\n      mstore\n        /* \"#utility.yul\":5832:5836   */\n      0x22\n        /* \"#utility.yul\":5829:5830   */\n      0x04\n        /* \"#utility.yul\":5822:5837   */\n      mstore\n        /* \"#utility.yul\":5856:5860   */\n      0x24\n        /* \"#utility.yul\":5853:5854   */\n      0x00\n        /* \"#utility.yul\":5846:5861   */\n      revert\n        /* \"#utility.yul\":5873:6053   */\n    tag_114:\n        /* \"#utility.yul\":5921:5998   */\n      0x4e487b7100000000000000000000000000000000000000000000000000000000\n        /* \"#utility.yul\":5918:5919   */\n      0x00\n        /* \"#utility.yul\":5911:5999   */\n      mstore\n        /* \"#utility.yul\":6018:6022   */\n      0x41\n        /* \"#utility.yul\":6015:6016   */\n      0x04\n        /* \"#utility.yul\":6008:6023   */\n      mstore\n        /* \"#utility.yul\":6042:6046   */\n      0x24\n        /* \"#utility.yul\":6039:6040   */\n      0x00\n        /* \"#utility.yul\":6032:6047   */\n      revert\n        /* \"#utility.yul\":6059:6161   */\n    tag_104:\n      0x00\n        /* \"#utility.yul\":6151:6153   */\n      0x1f\n        /* \"#utility.yul\":6147:6154   */\n      not\n        /* \"#utility.yul\":6142:6144   */\n      0x1f\n        /* \"#utility.yul\":6135:6140   */\n      dup4\n        /* \"#utility.yul\":6131:6145   */\n      add\n        /* \"#utility.yul\":6127:6155   */\n      and\n        /* \"#utility.yul\":6117:6155   */\n      swap1\n      pop\n        /* \"#utility.yul\":6107:6161   */\n      swap2\n      swap1\n      pop\n      jump\t// out\n        /* \"#utility.yul\":6167:6287   */\n    tag_76:\n        /* \"#utility.yul\":6239:6262   */\n      tag_145\n        /* \"#utility.yul\":6256:6261   */\n      dup2\n        /* \"#utility.yul\":6239:6262   */\n      tag_94\n      jump\t// in\n    tag_145:\n        /* \"#utility.yul\":6232:6237   */\n      dup2\n        /* \"#utility.yul\":6229:6263   */\n      eq\n        /* \"#utility.yul\":6219:6221   */\n      tag_146\n      jumpi\n        /* \"#utility.yul\":6277:6278   */\n      0x00\n        /* \"#utility.yul\":6274:6275   */\n      dup1\n        /* \"#utility.yul\":6267:6279   */\n      revert\n        /* \"#utility.yul\":6219:6221   */\n    tag_146:\n        /* \"#utility.yul\":6209:6287   */\n      pop\n      jump\t// out\n\n    auxdata: 0xa26469706673582212205af1b1871371ce27916ada51d15e98c2f5a2ed08b8d236ee27678ad58cbb49e364736f6c63430008000033\n}\n",
				"bytecode": {
					"linkReferences": {},
					"object": "60806040526000805534801561001457600080fd5b50610919806100246000396000f3fe608060405234801561001057600080fd5b506004361061004c5760003560e01c80636a7ae12414610051578063b6f4109814610083578063b7e000131461009f578063fcd56be3146100bd575b600080fd5b61006b6004803603810190610066919061054f565b6100ef565b60405161007a9392919061065a565b60405180910390f35b61009d60048036038101906100989190610578565b610229565b005b6100a76102b9565b6040516100b4919061063f565b60405180910390f35b6100d760048036038101906100d2919061054f565b6102bf565b6040516100e69392919061065a565b60405180910390f35b6001602052806000526040600020600091509050806000015490806001018054610118906107fc565b80601f0160208091040260200160405190810160405280929190818152602001828054610144906107fc565b80156101915780601f1061016657610100808354040283529160200191610191565b820191906000526020600020905b81548152906001019060200180831161017457829003601f168201915b5050505050908060020180546101a6906107fc565b80601f01602080910402602001604051908101604052809291908181526020018280546101d2906107fc565b801561021f5780601f106101f45761010080835404028352916020019161021f565b820191906000526020600020905b81548152906001019060200180831161020257829003601f168201915b5050505050905083565b6001600054610238919061071c565b600081905550604051806060016040528084815260200183815260200182815250600160008054815260200190815260200160002060008201518160000155602082015181600101908051906020019061029392919061042f565b5060408201518160020190805190602001906102b092919061042f565b50905050505050565b60005481565b600060608060016000805481526020019081526020016000206000015460016000805481526020019081526020016000206001016001600080548152602001908152602001600020600201818054610316906107fc565b80601f0160208091040260200160405190810160405280929190818152602001828054610342906107fc565b801561038f5780601f106103645761010080835404028352916020019161038f565b820191906000526020600020905b81548152906001019060200180831161037257829003601f168201915b505050505091508080546103a2906107fc565b80601f01602080910402602001604051908101604052809291908181526020018280546103ce906107fc565b801561041b5780601f106103f05761010080835404028352916020019161041b565b820191906000526020600020905b8154815290600101906020018083116103fe57829003601f168201915b505050505090509250925092509193909250565b82805461043b906107fc565b90600052602060002090601f01602090048101928261045d57600085556104a4565b82601f1061047657805160ff19168380011785556104a4565b828001600101855582156104a4579182015b828111156104a3578251825591602001919060010190610488565b5b5090506104b191906104b5565b5090565b5b808211156104ce5760008160009055506001016104b6565b5090565b60006104e56104e0846106d0565b61069f565b9050828152602081018484840111156104fd57600080fd5b6105088482856107ba565b509392505050565b60008135905061051f816108cc565b92915050565b600082601f83011261053657600080fd5b81356105468482602086016104d2565b91505092915050565b60006020828403121561056157600080fd5b600061056f84828501610510565b91505092915050565b60008060006060848603121561058d57600080fd5b600061059b86828701610510565b935050602084013567ffffffffffffffff8111156105b857600080fd5b6105c486828701610525565b925050604084013567ffffffffffffffff8111156105e157600080fd5b6105ed86828701610525565b9150509250925092565b610600816107b0565b82525050565b600061061182610700565b61061b818561070b565b935061062b8185602086016107c9565b610634816108bb565b840191505092915050565b600060208201905061065460008301846105f7565b92915050565b600060608201905061066f60008301866105f7565b81810360208301526106818185610606565b905081810360408301526106958184610606565b9050949350505050565b6000604051905081810181811067ffffffffffffffff821117156106c6576106c561088c565b5b8060405250919050565b600067ffffffffffffffff8211156106eb576106ea61088c565b5b601f19601f8301169050602081019050919050565b600081519050919050565b600082825260208201905092915050565b6000610727826107b0565b9150610732836107b0565b9250817f7fffffffffffffffffffffffffffffffffffffffffffffffffffffffffffffff0383136000831215161561076d5761076c61082e565b5b817f80000000000000000000000000000000000000000000000000000000000000000383126000831216156107a5576107a461082e565b5b828201905092915050565b6000819050919050565b82818337600083830152505050565b60005b838110156107e75780820151818401526020810190506107cc565b838111156107f6576000848401525b50505050565b6000600282049050600182168061081457607f821691505b602082108114156108285761082761085d565b5b50919050565b7f4e487b7100000000000000000000000000000000000000000000000000000000600052601160045260246000fd5b7f4e487b7100000000000000000000000000000000000000000000000000000000600052602260045260246000fd5b7f4e487b7100000000000000000000000000000000000000000000000000000000600052604160045260246000fd5b6000601f19601f8301169050919050565b6108d5816107b0565b81146108e057600080fd5b5056fea26469706673582212205af1b1871371ce27916ada51d15e98c2f5a2ed08b8d236ee27678ad58cbb49e364736f6c63430008000033",
					"opcodes": "PUSH1 0x80 PUSH1 0x40 MSTORE PUSH1 0x0 DUP1 SSTORE CALLVALUE DUP1 ISZERO PUSH2 0x14 JUMPI PUSH1 0x0 DUP1 REVERT JUMPDEST POP PUSH2 0x919 DUP1 PUSH2 0x24 PUSH1 0x0 CODECOPY PUSH1 0x0 RETURN INVALID PUSH1 0x80 PUSH1 0x40 MSTORE CALLVALUE DUP1 ISZERO PUSH2 0x10 JUMPI PUSH1 0x0 DUP1 REVERT JUMPDEST POP PUSH1 0x4 CALLDATASIZE LT PUSH2 0x4C JUMPI PUSH1 0x0 CALLDATALOAD PUSH1 0xE0 SHR DUP1 PUSH4 0x6A7AE124 EQ PUSH2 0x51 JUMPI DUP1 PUSH4 0xB6F41098 EQ PUSH2 0x83 JUMPI DUP1 PUSH4 0xB7E00013 EQ PUSH2 0x9F JUMPI DUP1 PUSH4 0xFCD56BE3 EQ PUSH2 0xBD JUMPI JUMPDEST PUSH1 0x0 DUP1 REVERT JUMPDEST PUSH2 0x6B PUSH1 0x4 DUP1 CALLDATASIZE SUB DUP2 ADD SWAP1 PUSH2 0x66 SWAP2 SWAP1 PUSH2 0x54F JUMP JUMPDEST PUSH2 0xEF JUMP JUMPDEST PUSH1 0x40 MLOAD PUSH2 0x7A SWAP4 SWAP3 SWAP2 SWAP1 PUSH2 0x65A JUMP JUMPDEST PUSH1 0x40 MLOAD DUP1 SWAP2 SUB SWAP1 RETURN JUMPDEST PUSH2 0x9D PUSH1 0x4 DUP1 CALLDATASIZE SUB DUP2 ADD SWAP1 PUSH2 0x98 SWAP2 SWAP1 PUSH2 0x578 JUMP JUMPDEST PUSH2 0x229 JUMP JUMPDEST STOP JUMPDEST PUSH2 0xA7 PUSH2 0x2B9 JUMP JUMPDEST PUSH1 0x40 MLOAD PUSH2 0xB4 SWAP2 SWAP1 PUSH2 0x63F JUMP JUMPDEST PUSH1 0x40 MLOAD DUP1 SWAP2 SUB SWAP1 RETURN JUMPDEST PUSH2 0xD7 PUSH1 0x4 DUP1 CALLDATASIZE SUB DUP2 ADD SWAP1 PUSH2 0xD2 SWAP2 SWAP1 PUSH2 0x54F JUMP JUMPDEST PUSH2 0x2BF JUMP JUMPDEST PUSH1 0x40 MLOAD PUSH2 0xE6 SWAP4 SWAP3 SWAP2 SWAP1 PUSH2 0x65A JUMP JUMPDEST PUSH1 0x40 MLOAD DUP1 SWAP2 SUB SWAP1 RETURN JUMPDEST PUSH1 0x1 PUSH1 0x20 MSTORE DUP1 PUSH1 0x0 MSTORE PUSH1 0x40 PUSH1 0x0 KECCAK256 PUSH1 0x0 SWAP2 POP SWAP1 POP DUP1 PUSH1 0x0 ADD SLOAD SWAP1 DUP1 PUSH1 0x1 ADD DUP1 SLOAD PUSH2 0x118 SWAP1 PUSH2 0x7FC JUMP JUMPDEST DUP1 PUSH1 0x1F ADD PUSH1 0x20 DUP1 SWAP2 DIV MUL PUSH1 0x20 ADD PUSH1 0x40 MLOAD SWAP1 DUP2 ADD PUSH1 0x40 MSTORE DUP1 SWAP3 SWAP2 SWAP1 DUP2 DUP2 MSTORE PUSH1 0x20 ADD DUP3 DUP1 SLOAD PUSH2 0x144 SWAP1 PUSH2 0x7FC JUMP JUMPDEST DUP1 ISZERO PUSH2 0x191 JUMPI DUP1 PUSH1 0x1F LT PUSH2 0x166 JUMPI PUSH2 0x100 DUP1 DUP4 SLOAD DIV MUL DUP4 MSTORE SWAP2 PUSH1 0x20 ADD SWAP2 PUSH2 0x191 JUMP JUMPDEST DUP3 ADD SWAP2 SWAP1 PUSH1 0x0 MSTORE PUSH1 0x20 PUSH1 0x0 KECCAK256 SWAP1 JUMPDEST DUP2 SLOAD DUP2 MSTORE SWAP1 PUSH1 0x1 ADD SWAP1 PUSH1 0x20 ADD DUP1 DUP4 GT PUSH2 0x174 JUMPI DUP3 SWAP1 SUB PUSH1 0x1F AND DUP3 ADD SWAP2 JUMPDEST POP POP POP POP POP SWAP1 DUP1 PUSH1 0x2 ADD DUP1 SLOAD PUSH2 0x1A6 SWAP1 PUSH2 0x7FC JUMP JUMPDEST DUP1 PUSH1 0x1F ADD PUSH1 0x20 DUP1 SWAP2 DIV MUL PUSH1 0x20 ADD PUSH1 0x40 MLOAD SWAP1 DUP2 ADD PUSH1 0x40 MSTORE DUP1 SWAP3 SWAP2 SWAP1 DUP2 DUP2 MSTORE PUSH1 0x20 ADD DUP3 DUP1 SLOAD PUSH2 0x1D2 SWAP1 PUSH2 0x7FC JUMP JUMPDEST DUP1 ISZERO PUSH2 0x21F JUMPI DUP1 PUSH1 0x1F LT PUSH2 0x1F4 JUMPI PUSH2 0x100 DUP1 DUP4 SLOAD DIV MUL DUP4 MSTORE SWAP2 PUSH1 0x20 ADD SWAP2 PUSH2 0x21F JUMP JUMPDEST DUP3 ADD SWAP2 SWAP1 PUSH1 0x0 MSTORE PUSH1 0x20 PUSH1 0x0 KECCAK256 SWAP1 JUMPDEST DUP2 SLOAD DUP2 MSTORE SWAP1 PUSH1 0x1 ADD SWAP1 PUSH1 0x20 ADD DUP1 DUP4 GT PUSH2 0x202 JUMPI DUP3 SWAP1 SUB PUSH1 0x1F AND DUP3 ADD SWAP2 JUMPDEST POP POP POP POP POP SWAP1 POP DUP4 JUMP JUMPDEST PUSH1 0x1 PUSH1 0x0 SLOAD PUSH2 0x238 SWAP2 SWAP1 PUSH2 0x71C JUMP JUMPDEST PUSH1 0x0 DUP2 SWAP1 SSTORE POP PUSH1 0x40 MLOAD DUP1 PUSH1 0x60 ADD PUSH1 0x40 MSTORE DUP1 DUP5 DUP2 MSTORE PUSH1 0x20 ADD DUP4 DUP2 MSTORE PUSH1 0x20 ADD DUP3 DUP2 MSTORE POP PUSH1 0x1 PUSH1 0x0 DUP1 SLOAD DUP2 MSTORE PUSH1 0x20 ADD SWAP1 DUP2 MSTORE PUSH1 0x20 ADD PUSH1 0x0 KECCAK256 PUSH1 0x0 DUP3 ADD MLOAD DUP2 PUSH1 0x0 ADD SSTORE PUSH1 0x20 DUP3 ADD MLOAD DUP2 PUSH1 0x1 ADD SWAP1 DUP1 MLOAD SWAP1 PUSH1 0x20 ADD SWAP1 PUSH2 0x293 SWAP3 SWAP2 SWAP1 PUSH2 0x42F JUMP JUMPDEST POP PUSH1 0x40 DUP3 ADD MLOAD DUP2 PUSH1 0x2 ADD SWAP1 DUP1 MLOAD SWAP1 PUSH1 0x20 ADD SWAP1 PUSH2 0x2B0 SWAP3 SWAP2 SWAP1 PUSH2 0x42F JUMP JUMPDEST POP SWAP1 POP POP POP POP POP JUMP JUMPDEST PUSH1 0x0 SLOAD DUP2 JUMP JUMPDEST PUSH1 0x0 PUSH1 0x60 DUP1 PUSH1 0x1 PUSH1 0x0 DUP1 SLOAD DUP2 MSTORE PUSH1 0x20 ADD SWAP1 DUP2 MSTORE PUSH1 0x20 ADD PUSH1 0x0 KECCAK256 PUSH1 0x0 ADD SLOAD PUSH1 0x1 PUSH1 0x0 DUP1 SLOAD DUP2 MSTORE PUSH1 0x20 ADD SWAP1 DUP2 MSTORE PUSH1 0x20 ADD PUSH1 0x0 KECCAK256 PUSH1 0x1 ADD PUSH1 0x1 PUSH1 0x0 DUP1 SLOAD DUP2 MSTORE PUSH1 0x20 ADD SWAP1 DUP2 MSTORE PUSH1 0x20 ADD PUSH1 0x0 KECCAK256 PUSH1 0x2 ADD DUP2 DUP1 SLOAD PUSH2 0x316 SWAP1 PUSH2 0x7FC JUMP JUMPDEST DUP1 PUSH1 0x1F ADD PUSH1 0x20 DUP1 SWAP2 DIV MUL PUSH1 0x20 ADD PUSH1 0x40 MLOAD SWAP1 DUP2 ADD PUSH1 0x40 MSTORE DUP1 SWAP3 SWAP2 SWAP1 DUP2 DUP2 MSTORE PUSH1 0x20 ADD DUP3 DUP1 SLOAD PUSH2 0x342 SWAP1 PUSH2 0x7FC JUMP JUMPDEST DUP1 ISZERO PUSH2 0x38F JUMPI DUP1 PUSH1 0x1F LT PUSH2 0x364 JUMPI PUSH2 0x100 DUP1 DUP4 SLOAD DIV MUL DUP4 MSTORE SWAP2 PUSH1 0x20 ADD SWAP2 PUSH2 0x38F JUMP JUMPDEST DUP3 ADD SWAP2 SWAP1 PUSH1 0x0 MSTORE PUSH1 0x20 PUSH1 0x0 KECCAK256 SWAP1 JUMPDEST DUP2 SLOAD DUP2 MSTORE SWAP1 PUSH1 0x1 ADD SWAP1 PUSH1 0x20 ADD DUP1 DUP4 GT PUSH2 0x372 JUMPI DUP3 SWAP1 SUB PUSH1 0x1F AND DUP3 ADD SWAP2 JUMPDEST POP POP POP POP POP SWAP2 POP DUP1 DUP1 SLOAD PUSH2 0x3A2 SWAP1 PUSH2 0x7FC JUMP JUMPDEST DUP1 PUSH1 0x1F ADD PUSH1 0x20 DUP1 SWAP2 DIV MUL PUSH1 0x20 ADD PUSH1 0x40 MLOAD SWAP1 DUP2 ADD PUSH1 0x40 MSTORE DUP1 SWAP3 SWAP2 SWAP1 DUP2 DUP2 MSTORE PUSH1 0x20 ADD DUP3 DUP1 SLOAD PUSH2 0x3CE SWAP1 PUSH2 0x7FC JUMP JUMPDEST DUP1 ISZERO PUSH2 0x41B JUMPI DUP1 PUSH1 0x1F LT PUSH2 0x3F0 JUMPI PUSH2 0x100 DUP1 DUP4 SLOAD DIV MUL DUP4 MSTORE SWAP2 PUSH1 0x20 ADD SWAP2 PUSH2 0x41B JUMP JUMPDEST DUP3 ADD SWAP2 SWAP1 PUSH1 0x0 MSTORE PUSH1 0x20 PUSH1 0x0 KECCAK256 SWAP1 JUMPDEST DUP2 SLOAD DUP2 MSTORE SWAP1 PUSH1 0x1 ADD SWAP1 PUSH1 0x20 ADD DUP1 DUP4 GT PUSH2 0x3FE JUMPI DUP3 SWAP1 SUB PUSH1 0x1F AND DUP3 ADD SWAP2 JUMPDEST POP POP POP POP POP SWAP1 POP SWAP3 POP SWAP3 POP SWAP3 POP SWAP2 SWAP4 SWAP1 SWAP3 POP JUMP JUMPDEST DUP3 DUP1 SLOAD PUSH2 0x43B SWAP1 PUSH2 0x7FC JUMP JUMPDEST SWAP1 PUSH1 0x0 MSTORE PUSH1 0x20 PUSH1 0x0 KECCAK256 SWAP1 PUSH1 0x1F ADD PUSH1 0x20 SWAP1 DIV DUP2 ADD SWAP3 DUP3 PUSH2 0x45D JUMPI PUSH1 0x0 DUP6 SSTORE PUSH2 0x4A4 JUMP JUMPDEST DUP3 PUSH1 0x1F LT PUSH2 0x476 JUMPI DUP1 MLOAD PUSH1 0xFF NOT AND DUP4 DUP1 ADD OR DUP6 SSTORE PUSH2 0x4A4 JUMP JUMPDEST DUP3 DUP1 ADD PUSH1 0x1 ADD DUP6 SSTORE DUP3 ISZERO PUSH2 0x4A4 JUMPI SWAP2 DUP3 ADD JUMPDEST DUP3 DUP2 GT ISZERO PUSH2 0x4A3 JUMPI DUP3 MLOAD DUP3 SSTORE SWAP2 PUSH1 0x20 ADD SWAP2 SWAP1 PUSH1 0x1 ADD SWAP1 PUSH2 0x488 JUMP JUMPDEST JUMPDEST POP SWAP1 POP PUSH2 0x4B1 SWAP2 SWAP1 PUSH2 0x4B5 JUMP JUMPDEST POP SWAP1 JUMP JUMPDEST JUMPDEST DUP1 DUP3 GT ISZERO PUSH2 0x4CE JUMPI PUSH1 0x0 DUP2 PUSH1 0x0 SWAP1 SSTORE POP PUSH1 0x1 ADD PUSH2 0x4B6 JUMP JUMPDEST POP SWAP1 JUMP JUMPDEST PUSH1 0x0 PUSH2 0x4E5 PUSH2 0x4E0 DUP5 PUSH2 0x6D0 JUMP JUMPDEST PUSH2 0x69F JUMP JUMPDEST SWAP1 POP DUP3 DUP2 MSTORE PUSH1 0x20 DUP2 ADD DUP5 DUP5 DUP5 ADD GT ISZERO PUSH2 0x4FD JUMPI PUSH1 0x0 DUP1 REVERT JUMPDEST PUSH2 0x508 DUP5 DUP3 DUP6 PUSH2 0x7BA JUMP JUMPDEST POP SWAP4 SWAP3 POP POP POP JUMP JUMPDEST PUSH1 0x0 DUP2 CALLDATALOAD SWAP1 POP PUSH2 0x51F DUP2 PUSH2 0x8CC JUMP JUMPDEST SWAP3 SWAP2 POP POP JUMP JUMPDEST PUSH1 0x0 DUP3 PUSH1 0x1F DUP4 ADD SLT PUSH2 0x536 JUMPI PUSH1 0x0 DUP1 REVERT JUMPDEST DUP2 CALLDATALOAD PUSH2 0x546 DUP5 DUP3 PUSH1 0x20 DUP7 ADD PUSH2 0x4D2 JUMP JUMPDEST SWAP2 POP POP SWAP3 SWAP2 POP POP JUMP JUMPDEST PUSH1 0x0 PUSH1 0x20 DUP3 DUP5 SUB SLT ISZERO PUSH2 0x561 JUMPI PUSH1 0x0 DUP1 REVERT JUMPDEST PUSH1 0x0 PUSH2 0x56F DUP5 DUP3 DUP6 ADD PUSH2 0x510 JUMP JUMPDEST SWAP2 POP POP SWAP3 SWAP2 POP POP JUMP JUMPDEST PUSH1 0x0 DUP1 PUSH1 0x0 PUSH1 0x60 DUP5 DUP7 SUB SLT ISZERO PUSH2 0x58D JUMPI PUSH1 0x0 DUP1 REVERT JUMPDEST PUSH1 0x0 PUSH2 0x59B DUP7 DUP3 DUP8 ADD PUSH2 0x510 JUMP JUMPDEST SWAP4 POP POP PUSH1 0x20 DUP5 ADD CALLDATALOAD PUSH8 0xFFFFFFFFFFFFFFFF DUP2 GT ISZERO PUSH2 0x5B8 JUMPI PUSH1 0x0 DUP1 REVERT JUMPDEST PUSH2 0x5C4 DUP7 DUP3 DUP8 ADD PUSH2 0x525 JUMP JUMPDEST SWAP3 POP POP PUSH1 0x40 DUP5 ADD CALLDATALOAD PUSH8 0xFFFFFFFFFFFFFFFF DUP2 GT ISZERO PUSH2 0x5E1 JUMPI PUSH1 0x0 DUP1 REVERT JUMPDEST PUSH2 0x5ED DUP7 DUP3 DUP8 ADD PUSH2 0x525 JUMP JUMPDEST SWAP2 POP POP SWAP3 POP SWAP3 POP SWAP3 JUMP JUMPDEST PUSH2 0x600 DUP2 PUSH2 0x7B0 JUMP JUMPDEST DUP3 MSTORE POP POP JUMP JUMPDEST PUSH1 0x0 PUSH2 0x611 DUP3 PUSH2 0x700 JUMP JUMPDEST PUSH2 0x61B DUP2 DUP6 PUSH2 0x70B JUMP JUMPDEST SWAP4 POP PUSH2 0x62B DUP2 DUP6 PUSH1 0x20 DUP7 ADD PUSH2 0x7C9 JUMP JUMPDEST PUSH2 0x634 DUP2 PUSH2 0x8BB JUMP JUMPDEST DUP5 ADD SWAP2 POP POP SWAP3 SWAP2 POP POP JUMP JUMPDEST PUSH1 0x0 PUSH1 0x20 DUP3 ADD SWAP1 POP PUSH2 0x654 PUSH1 0x0 DUP4 ADD DUP5 PUSH2 0x5F7 JUMP JUMPDEST SWAP3 SWAP2 POP POP JUMP JUMPDEST PUSH1 0x0 PUSH1 0x60 DUP3 ADD SWAP1 POP PUSH2 0x66F PUSH1 0x0 DUP4 ADD DUP7 PUSH2 0x5F7 JUMP JUMPDEST DUP2 DUP2 SUB PUSH1 0x20 DUP4 ADD MSTORE PUSH2 0x681 DUP2 DUP6 PUSH2 0x606 JUMP JUMPDEST SWAP1 POP DUP2 DUP2 SUB PUSH1 0x40 DUP4 ADD MSTORE PUSH2 0x695 DUP2 DUP5 PUSH2 0x606 JUMP JUMPDEST SWAP1 POP SWAP5 SWAP4 POP POP POP POP JUMP JUMPDEST PUSH1 0x0 PUSH1 0x40 MLOAD SWAP1 POP DUP2 DUP2 ADD DUP2 DUP2 LT PUSH8 0xFFFFFFFFFFFFFFFF DUP3 GT OR ISZERO PUSH2 0x6C6 JUMPI PUSH2 0x6C5 PUSH2 0x88C JUMP JUMPDEST JUMPDEST DUP1 PUSH1 0x40 MSTORE POP SWAP2 SWAP1 POP JUMP JUMPDEST PUSH1 0x0 PUSH8 0xFFFFFFFFFFFFFFFF DUP3 GT ISZERO PUSH2 0x6EB JUMPI PUSH2 0x6EA PUSH2 0x88C JUMP JUMPDEST JUMPDEST PUSH1 0x1F NOT PUSH1 0x1F DUP4 ADD AND SWAP1 POP PUSH1 0x20 DUP2 ADD SWAP1 POP SWAP2 SWAP1 POP JUMP JUMPDEST PUSH1 0x0 DUP2 MLOAD SWAP1 POP SWAP2 SWAP1 POP JUMP JUMPDEST PUSH1 0x0 DUP3 DUP3 MSTORE PUSH1 0x20 DUP3 ADD SWAP1 POP SWAP3 SWAP2 POP POP JUMP JUMPDEST PUSH1 0x0 PUSH2 0x727 DUP3 PUSH2 0x7B0 JUMP JUMPDEST SWAP2 POP PUSH2 0x732 DUP4 PUSH2 0x7B0 JUMP JUMPDEST SWAP3 POP DUP2 PUSH32 0x7FFFFFFFFFFFFFFFFFFFFFFFFFFFFFFFFFFFFFFFFFFFFFFFFFFFFFFFFFFFFFFF SUB DUP4 SGT PUSH1 0x0 DUP4 SLT ISZERO AND ISZERO PUSH2 0x76D JUMPI PUSH2 0x76C PUSH2 0x82E JUMP JUMPDEST JUMPDEST DUP2 PUSH32 0x8000000000000000000000000000000000000000000000000000000000000000 SUB DUP4 SLT PUSH1 0x0 DUP4 SLT AND ISZERO PUSH2 0x7A5 JUMPI PUSH2 0x7A4 PUSH2 0x82E JUMP JUMPDEST JUMPDEST DUP3 DUP3 ADD SWAP1 POP SWAP3 SWAP2 POP POP JUMP JUMPDEST PUSH1 0x0 DUP2 SWAP1 POP SWAP2 SWAP1 POP JUMP JUMPDEST DUP3 DUP2 DUP4 CALLDATACOPY PUSH1 0x0 DUP4 DUP4 ADD MSTORE POP POP POP JUMP JUMPDEST PUSH1 0x0 JUMPDEST DUP4 DUP2 LT ISZERO PUSH2 0x7E7 JUMPI DUP1 DUP3 ADD MLOAD DUP2 DUP5 ADD MSTORE PUSH1 0x20 DUP2 ADD SWAP1 POP PUSH2 0x7CC JUMP JUMPDEST DUP4 DUP2 GT ISZERO PUSH2 0x7F6 JUMPI PUSH1 0x0 DUP5 DUP5 ADD MSTORE JUMPDEST POP POP POP POP JUMP JUMPDEST PUSH1 0x0 PUSH1 0x2 DUP3 DIV SWAP1 POP PUSH1 0x1 DUP3 AND DUP1 PUSH2 0x814 JUMPI PUSH1 0x7F DUP3 AND SWAP2 POP JUMPDEST PUSH1 0x20 DUP3 LT DUP2 EQ ISZERO PUSH2 0x828 JUMPI PUSH2 0x827 PUSH2 0x85D JUMP JUMPDEST JUMPDEST POP SWAP2 SWAP1 POP JUMP JUMPDEST PUSH32 0x4E487B7100000000000000000000000000000000000000000000000000000000 PUSH1 0x0 MSTORE PUSH1 0x11 PUSH1 0x4 MSTORE PUSH1 0x24 PUSH1 0x0 REVERT JUMPDEST PUSH32 0x4E487B7100000000000000000000000000000000000000000000000000000000 PUSH1 0x0 MSTORE PUSH1 0x22 PUSH1 0x4 MSTORE PUSH1 0x24 PUSH1 0x0 REVERT JUMPDEST PUSH32 0x4E487B7100000000000000000000000000000000000000000000000000000000 PUSH1 0x0 MSTORE PUSH1 0x41 PUSH1 0x4 MSTORE PUSH1 0x24 PUSH1 0x0 REVERT JUMPDEST PUSH1 0x0 PUSH1 0x1F NOT PUSH1 0x1F DUP4 ADD AND SWAP1 POP SWAP2 SWAP1 POP JUMP JUMPDEST PUSH2 0x8D5 DUP2 PUSH2 0x7B0 JUMP JUMPDEST DUP2 EQ PUSH2 0x8E0 JUMPI PUSH1 0x0 DUP1 REVERT JUMPDEST POP JUMP INVALID LOG2 PUSH5 0x6970667358 0x22 SLT KECCAK256 GAS CALL 0xB1 DUP8 SGT PUSH18 0xCE27916ADA51D15E98C2F5A2ED08B8D236EE 0x27 PUSH8 0x8AD58CBB49E36473 PUSH16 0x6C634300080000330000000000000000 "
				},
				"gasEstimates": {
					"creation": {
						"codeDepositCost": "465800",
						"executionCost": "5505",
						"totalCost": "471305"
					},
					"external": {
						"addNewStudent(int256,string,string)": "infinite",
						"getStudentDetails(int256)": "infinite",
						"studentID()": "1151",
						"studentRecords(int256)": "infinite"
					}
				},
				"methodIdentifiers": {
					"addNewStudent(int256,string,string)": "b6f41098",
					"getStudentDetails(int256)": "fcd56be3",
					"studentID()": "b7e00013",
					"studentRecords(int256)": "6a7ae124"
				}
			},
			"storageLayout": {
				"storage": [
					{
						"astId": 11,
						"contract": "contracts/_StudentDatabase.sol:StudentDatabase",
						"label": "studentID",
						"offset": 0,
						"slot": "0",
						"type": "t_int256"
					},
					{
						"astId": 16,
						"contract": "contracts/_StudentDatabase.sol:StudentDatabase",
						"label": "studentRecords",
						"offset": 0,
						"slot": "1",
						"type": "t_mapping(t_int256,t_struct(Student)8_storage)"
					}
				],
				"types": {
					"t_int256": {
						"encoding": "inplace",
						"label": "int256",
						"numberOfBytes": "32"
					},
					"t_mapping(t_int256,t_struct(Student)8_storage)": {
						"encoding": "mapping",
						"key": "t_int256",
						"label": "mapping(int256 => struct StudentDatabase.Student)",
						"numberOfBytes": "32",
						"value": "t_struct(Student)8_storage"
					},
					"t_string_storage": {
						"encoding": "bytes",
						"label": "string",
						"numberOfBytes": "32"
					},
					"t_struct(Student)8_storage": {
						"encoding": "inplace",
						"label": "struct StudentDatabase.Student",
						"members": [
							{
								"astId": 3,
								"contract": "contracts/_StudentDatabase.sol:StudentDatabase",
								"label": "ID",
								"offset": 0,
								"slot": "0",
								"type": "t_int256"
							},
							{
								"astId": 5,
								"contract": "contracts/_StudentDatabase.sol:StudentDatabase",
								"label": "firstName",
								"offset": 0,
								"slot": "1",
								"type": "t_string_storage"
							},
							{
								"astId": 7,
								"contract": "contracts/_StudentDatabase.sol:StudentDatabase",
								"label": "lastName",
								"offset": 0,
								"slot": "2",
								"type": "t_string_storage"
							}
						],
						"numberOfBytes": "96"
					}
				}
			},
			"userdoc": {
				"kind": "user",
				"methods": {},
				"version": 1
			}
		}
	}
}