{
	"contracts/_StudentDatabase.sol": {
		"StudentDatabase": {
			"abi": [
				{
					"inputs": [
						{
							"internalType": "int256",
							"name": "_ID",
							"type": "int256"
						},
						{
							"internalType": "string",
							"name": "_firstName",
							"type": "string"
						},
						{
							"internalType": "string",
							"name": "_lastName",
							"type": "string"
						}
					],
					"name": "addNewStudents",
					"outputs": [],
					"stateMutability": "nonpayable",
					"type": "function"
				},
				{
					"inputs": [],
					"name": "owner",
					"outputs": [
						{
							"internalType": "address",
							"name": "",
							"type": "address"
						}
					],
					"stateMutability": "view",
					"type": "function"
				},
				{
					"inputs": [],
					"name": "studentID",
					"outputs": [
						{
							"internalType": "int256",
							"name": "",
							"type": "int256"
						}
					],
					"stateMutability": "view",
					"type": "function"
				},
				{
					"inputs": [
						{
							"internalType": "int256",
							"name": "",
							"type": "int256"
						}
					],
					"name": "studentRecords",
					"outputs": [
						{
							"internalType": "int256",
							"name": "ID",
							"type": "int256"
						},
						{
							"internalType": "string",
							"name": "firstName",
							"type": "string"
						},
						{
							"internalType": "string",
							"name": "lastName",
							"type": "string"
						}
					],
					"stateMutability": "view",
					"type": "function"
				}
			],
			"devdoc": {
				"kind": "dev",
				"methods": {},
				"version": 1
			},
			"evm": {
				"assembly": "    /* \"contracts/_StudentDatabase.sol\":69:758  contract StudentDatabase{\r... */\n  mstore(0x40, 0x80)\n    /* \"contracts/_StudentDatabase.sol\":253:254  0 */\n  0x00\n    /* \"contracts/_StudentDatabase.sol\":230:254  int public studentID = 0 */\n  0x01\n  sstore\n    /* \"contracts/_StudentDatabase.sol\":69:758  contract StudentDatabase{\r... */\n  callvalue\n  dup1\n  iszero\n  tag_1\n  jumpi\n  0x00\n  dup1\n  revert\ntag_1:\n  pop\n  dataSize(sub_0)\n  dup1\n  dataOffset(sub_0)\n  0x00\n  codecopy\n  0x00\n  return\nstop\n\nsub_0: assembly {\n        /* \"contracts/_StudentDatabase.sol\":69:758  contract StudentDatabase{\r... */\n      mstore(0x40, 0x80)\n      callvalue\n      dup1\n      iszero\n      tag_1\n      jumpi\n      0x00\n      dup1\n      revert\n    tag_1:\n      pop\n      jumpi(tag_2, lt(calldatasize, 0x04))\n      shr(0xe0, calldataload(0x00))\n      dup1\n      0x6a7ae124\n      eq\n      tag_3\n      jumpi\n      dup1\n      0x8306c10b\n      eq\n      tag_4\n      jumpi\n      dup1\n      0x8da5cb5b\n      eq\n      tag_5\n      jumpi\n      dup1\n      0xb7e00013\n      eq\n      tag_6\n      jumpi\n    tag_2:\n      0x00\n      dup1\n      revert\n        /* \"contracts/_StudentDatabase.sol\":261:306  mapping(int => Student) public studentRecords */\n    tag_3:\n      tag_7\n      0x04\n      dup1\n      calldatasize\n      sub\n      dup2\n      add\n      swap1\n      tag_8\n      swap2\n      swap1\n      tag_9\n      jump\t// in\n    tag_8:\n      tag_10\n      jump\t// in\n    tag_7:\n      mload(0x40)\n      tag_11\n      swap4\n      swap3\n      swap2\n      swap1\n      tag_12\n      jump\t// in\n    tag_11:\n      mload(0x40)\n      dup1\n      swap2\n      sub\n      swap1\n      return\n        /* \"contracts/_StudentDatabase.sol\":440:749  function addNewStudents(int _ID, string memory _firstName, string memory _lastName) public {\r... */\n    tag_4:\n      tag_13\n      0x04\n      dup1\n      calldatasize\n      sub\n      dup2\n      add\n      swap1\n      tag_14\n      swap2\n      swap1\n      tag_15\n      jump\t// in\n    tag_14:\n      tag_16\n      jump\t// in\n    tag_13:\n      stop\n        /* \"contracts/_StudentDatabase.sol\":203:223  address public owner */\n    tag_5:\n      tag_17\n      tag_18\n      jump\t// in\n    tag_17:\n      mload(0x40)\n      tag_19\n      swap2\n      swap1\n      tag_20\n      jump\t// in\n    tag_19:\n      mload(0x40)\n      dup1\n      swap2\n      sub\n      swap1\n      return\n        /* \"contracts/_StudentDatabase.sol\":230:254  int public studentID = 0 */\n    tag_6:\n      tag_21\n      tag_22\n      jump\t// in\n    tag_21:\n      mload(0x40)\n      tag_23\n      swap2\n      swap1\n      tag_24\n      jump\t// in\n    tag_23:\n      mload(0x40)\n      dup1\n      swap2\n      sub\n      swap1\n      return\n        /* \"contracts/_StudentDatabase.sol\":261:306  mapping(int => Student) public studentRecords */\n    tag_10:\n      mstore(0x20, 0x02)\n      dup1\n      0x00\n      mstore\n      keccak256(0x00, 0x40)\n      0x00\n      swap2\n      pop\n      swap1\n      pop\n      dup1\n      0x00\n      add\n      sload\n      swap1\n      dup1\n      0x01\n      add\n      dup1\n      sload\n      tag_25\n      swap1\n      tag_26\n      jump\t// in\n    tag_25:\n      dup1\n      0x1f\n      add\n      0x20\n      dup1\n      swap2\n      div\n      mul\n      0x20\n      add\n      mload(0x40)\n      swap1\n      dup2\n      add\n      0x40\n      mstore\n      dup1\n      swap3\n      swap2\n      swap1\n      dup2\n      dup2\n      mstore\n      0x20\n      add\n      dup3\n      dup1\n      sload\n      tag_27\n      swap1\n      tag_26\n      jump\t// in\n    tag_27:\n      dup1\n      iszero\n      tag_28\n      jumpi\n      dup1\n      0x1f\n      lt\n      tag_29\n      jumpi\n      0x0100\n      dup1\n      dup4\n      sload\n      div\n      mul\n      dup4\n      mstore\n      swap2\n      0x20\n      add\n      swap2\n      jump(tag_28)\n    tag_29:\n      dup3\n      add\n      swap2\n      swap1\n      0x00\n      mstore\n      keccak256(0x00, 0x20)\n      swap1\n    tag_30:\n      dup2\n      sload\n      dup2\n      mstore\n      swap1\n      0x01\n      add\n      swap1\n      0x20\n      add\n      dup1\n      dup4\n      gt\n      tag_30\n      jumpi\n      dup3\n      swap1\n      sub\n      0x1f\n      and\n      dup3\n      add\n      swap2\n    tag_28:\n      pop\n      pop\n      pop\n      pop\n      pop\n      swap1\n      dup1\n      0x02\n      add\n      dup1\n      sload\n      tag_31\n      swap1\n      tag_26\n      jump\t// in\n    tag_31:\n      dup1\n      0x1f\n      add\n      0x20\n      dup1\n      swap2\n      div\n      mul\n      0x20\n      add\n      mload(0x40)\n      swap1\n      dup2\n      add\n      0x40\n      mstore\n      dup1\n      swap3\n      swap2\n      swap1\n      dup2\n      dup2\n      mstore\n      0x20\n      add\n      dup3\n      dup1\n      sload\n      tag_32\n      swap1\n      tag_26\n      jump\t// in\n    tag_32:\n      dup1\n      iszero\n      tag_33\n      jumpi\n      dup1\n      0x1f\n      lt\n      tag_34\n      jumpi\n      0x0100\n      dup1\n      dup4\n      sload\n      div\n      mul\n      dup4\n      mstore\n      swap2\n      0x20\n      add\n      swap2\n      jump(tag_33)\n    tag_34:\n      dup3\n      add\n      swap2\n      swap1\n      0x00\n      mstore\n      keccak256(0x00, 0x20)\n      swap1\n    tag_35:\n      dup2\n      sload\n      dup2\n      mstore\n      swap1\n      0x01\n      add\n      swap1\n      0x20\n      add\n      dup1\n      dup4\n      gt\n      tag_35\n      jumpi\n      dup3\n      swap1\n      sub\n      0x1f\n      and\n      dup3\n      add\n      swap2\n    tag_33:\n      pop\n      pop\n      pop\n      pop\n      pop\n      swap1\n      pop\n      dup4\n      jump\t// out\n        /* \"contracts/_StudentDatabase.sol\":440:749  function addNewStudents(int _ID, string memory _firstName, string memory _lastName) public {\r... */\n    tag_16:\n        /* \"contracts/_StudentDatabase.sol\":627:628  1 */\n      0x01\n        /* \"contracts/_StudentDatabase.sol\":615:624  studentID */\n      dup1\n      sload\n        /* \"contracts/_StudentDatabase.sol\":615:628  studentID + 1 */\n      tag_37\n      swap2\n      swap1\n      tag_38\n      jump\t// in\n    tag_37:\n        /* \"contracts/_StudentDatabase.sol\":603:612  studentID */\n      0x01\n        /* \"contracts/_StudentDatabase.sol\":603:628  studentID = studentID + 1 */\n      dup2\n      swap1\n      sstore\n      pop\n        /* \"contracts/_StudentDatabase.sol\":706:741  Student(_ID, _firstName, _lastName) */\n      mload(0x40)\n      dup1\n      0x60\n      add\n      0x40\n      mstore\n      dup1\n        /* \"contracts/_StudentDatabase.sol\":714:717  _ID */\n      dup5\n        /* \"contracts/_StudentDatabase.sol\":706:741  Student(_ID, _firstName, _lastName) */\n      dup2\n      mstore\n      0x20\n      add\n        /* \"contracts/_StudentDatabase.sol\":719:729  _firstName */\n      dup4\n        /* \"contracts/_StudentDatabase.sol\":706:741  Student(_ID, _firstName, _lastName) */\n      dup2\n      mstore\n      0x20\n      add\n        /* \"contracts/_StudentDatabase.sol\":731:740  _lastName */\n      dup3\n        /* \"contracts/_StudentDatabase.sol\":706:741  Student(_ID, _firstName, _lastName) */\n      dup2\n      mstore\n      pop\n        /* \"contracts/_StudentDatabase.sol\":678:692  studentRecords */\n      0x02\n        /* \"contracts/_StudentDatabase.sol\":678:703  studentRecords[studentID] */\n      0x00\n        /* \"contracts/_StudentDatabase.sol\":693:702  studentID */\n      sload(0x01)\n        /* \"contracts/_StudentDatabase.sol\":678:703  studentRecords[studentID] */\n      dup2\n      mstore\n      0x20\n      add\n      swap1\n      dup2\n      mstore\n      0x20\n      add\n      0x00\n      keccak256\n        /* \"contracts/_StudentDatabase.sol\":678:741  studentRecords[studentID] = Student(_ID, _firstName, _lastName) */\n      0x00\n      dup3\n      add\n      mload\n      dup2\n      0x00\n      add\n      sstore\n      0x20\n      dup3\n      add\n      mload\n      dup2\n      0x01\n      add\n      swap1\n      dup1\n      mload\n      swap1\n      0x20\n      add\n      swap1\n      tag_39\n      swap3\n      swap2\n      swap1\n      tag_40\n      jump\t// in\n    tag_39:\n      pop\n      0x40\n      dup3\n      add\n      mload\n      dup2\n      0x02\n      add\n      swap1\n      dup1\n      mload\n      swap1\n      0x20\n      add\n      swap1\n      tag_41\n      swap3\n      swap2\n      swap1\n      tag_40\n      jump\t// in\n    tag_41:\n      pop\n      swap1\n      pop\n      pop\n        /* \"contracts/_StudentDatabase.sol\":440:749  function addNewStudents(int _ID, string memory _firstName, string memory _lastName) public {\r... */\n      pop\n      pop\n      pop\n      jump\t// out\n        /* \"contracts/_StudentDatabase.sol\":203:223  address public owner */\n    tag_18:\n      0x00\n      dup1\n      sload\n      swap1\n      0x0100\n      exp\n      swap1\n      div\n      0xffffffffffffffffffffffffffffffffffffffff\n      and\n      dup2\n      jump\t// out\n        /* \"contracts/_StudentDatabase.sol\":230:254  int public studentID = 0 */\n    tag_22:\n      sload(0x01)\n      dup2\n      jump\t// out\n    tag_40:\n      dup3\n      dup1\n      sload\n      tag_42\n      swap1\n      tag_26\n      jump\t// in\n    tag_42:\n      swap1\n      0x00\n      mstore\n      keccak256(0x00, 0x20)\n      swap1\n      0x1f\n      add\n      0x20\n      swap1\n      div\n      dup2\n      add\n      swap3\n      dup3\n      tag_44\n      jumpi\n      0x00\n      dup6\n      sstore\n      jump(tag_43)\n    tag_44:\n      dup3\n      0x1f\n      lt\n      tag_45\n      jumpi\n      dup1\n      mload\n      not(0xff)\n      and\n      dup4\n      dup1\n      add\n      or\n      dup6\n      sstore\n      jump(tag_43)\n    tag_45:\n      dup3\n      dup1\n      add\n      0x01\n      add\n      dup6\n      sstore\n      dup3\n      iszero\n      tag_43\n      jumpi\n      swap2\n      dup3\n      add\n    tag_46:\n      dup3\n      dup2\n      gt\n      iszero\n      tag_47\n      jumpi\n      dup3\n      mload\n      dup3\n      sstore\n      swap2\n      0x20\n      add\n      swap2\n      swap1\n      0x01\n      add\n      swap1\n      jump(tag_46)\n    tag_47:\n    tag_43:\n      pop\n      swap1\n      pop\n      tag_48\n      swap2\n      swap1\n      tag_49\n      jump\t// in\n    tag_48:\n      pop\n      swap1\n      jump\t// out\n    tag_49:\n    tag_50:\n      dup1\n      dup3\n      gt\n      iszero\n      tag_51\n      jumpi\n      0x00\n      dup2\n      0x00\n      swap1\n      sstore\n      pop\n      0x01\n      add\n      jump(tag_50)\n    tag_51:\n      pop\n      swap1\n      jump\t// out\n        /* \"#utility.yul\":7:351   */\n    tag_53:\n      0x00\n        /* \"#utility.yul\":110:175   */\n      tag_55\n        /* \"#utility.yul\":125:174   */\n      tag_56\n        /* \"#utility.yul\":167:173   */\n      dup5\n        /* \"#utility.yul\":125:174   */\n      tag_57\n      jump\t// in\n    tag_56:\n        /* \"#utility.yul\":110:175   */\n      tag_58\n      jump\t// in\n    tag_55:\n        /* \"#utility.yul\":101:175   */\n      swap1\n      pop\n        /* \"#utility.yul\":198:204   */\n      dup3\n        /* \"#utility.yul\":191:196   */\n      dup2\n        /* \"#utility.yul\":184:205   */\n      mstore\n        /* \"#utility.yul\":236:240   */\n      0x20\n        /* \"#utility.yul\":229:234   */\n      dup2\n        /* \"#utility.yul\":225:241   */\n      add\n        /* \"#utility.yul\":274:277   */\n      dup5\n        /* \"#utility.yul\":265:271   */\n      dup5\n        /* \"#utility.yul\":260:263   */\n      dup5\n        /* \"#utility.yul\":256:272   */\n      add\n        /* \"#utility.yul\":253:278   */\n      gt\n        /* \"#utility.yul\":250:252   */\n      iszero\n      tag_59\n      jumpi\n        /* \"#utility.yul\":291:292   */\n      0x00\n        /* \"#utility.yul\":288:289   */\n      dup1\n        /* \"#utility.yul\":281:293   */\n      revert\n        /* \"#utility.yul\":250:252   */\n    tag_59:\n        /* \"#utility.yul\":304:345   */\n      tag_60\n        /* \"#utility.yul\":338:344   */\n      dup5\n        /* \"#utility.yul\":333:336   */\n      dup3\n        /* \"#utility.yul\":328:331   */\n      dup6\n        /* \"#utility.yul\":304:345   */\n      tag_61\n      jump\t// in\n    tag_60:\n        /* \"#utility.yul\":91:351   */\n      pop\n      swap4\n      swap3\n      pop\n      pop\n      pop\n      jump\t// out\n        /* \"#utility.yul\":357:494   */\n    tag_62:\n      0x00\n        /* \"#utility.yul\":440:446   */\n      dup2\n        /* \"#utility.yul\":427:447   */\n      calldataload\n        /* \"#utility.yul\":418:447   */\n      swap1\n      pop\n        /* \"#utility.yul\":456:488   */\n      tag_64\n        /* \"#utility.yul\":482:487   */\n      dup2\n        /* \"#utility.yul\":456:488   */\n      tag_65\n      jump\t// in\n    tag_64:\n        /* \"#utility.yul\":408:494   */\n      swap3\n      swap2\n      pop\n      pop\n      jump\t// out\n        /* \"#utility.yul\":514:787   */\n    tag_66:\n      0x00\n        /* \"#utility.yul\":619:622   */\n      dup3\n        /* \"#utility.yul\":612:616   */\n      0x1f\n        /* \"#utility.yul\":604:610   */\n      dup4\n        /* \"#utility.yul\":600:617   */\n      add\n        /* \"#utility.yul\":596:623   */\n      slt\n        /* \"#utility.yul\":586:588   */\n      tag_68\n      jumpi\n        /* \"#utility.yul\":637:638   */\n      0x00\n        /* \"#utility.yul\":634:635   */\n      dup1\n        /* \"#utility.yul\":627:639   */\n      revert\n        /* \"#utility.yul\":586:588   */\n    tag_68:\n        /* \"#utility.yul\":677:683   */\n      dup2\n        /* \"#utility.yul\":664:684   */\n      calldataload\n        /* \"#utility.yul\":702:781   */\n      tag_69\n        /* \"#utility.yul\":777:780   */\n      dup5\n        /* \"#utility.yul\":769:775   */\n      dup3\n        /* \"#utility.yul\":762:766   */\n      0x20\n        /* \"#utility.yul\":754:760   */\n      dup7\n        /* \"#utility.yul\":750:767   */\n      add\n        /* \"#utility.yul\":702:781   */\n      tag_53\n      jump\t// in\n    tag_69:\n        /* \"#utility.yul\":693:781   */\n      swap2\n      pop\n        /* \"#utility.yul\":576:787   */\n      pop\n      swap3\n      swap2\n      pop\n      pop\n      jump\t// out\n        /* \"#utility.yul\":793:1053   */\n    tag_9:\n      0x00\n        /* \"#utility.yul\":900:902   */\n      0x20\n        /* \"#utility.yul\":888:897   */\n      dup3\n        /* \"#utility.yul\":879:886   */\n      dup5\n        /* \"#utility.yul\":875:898   */\n      sub\n        /* \"#utility.yul\":871:903   */\n      slt\n        /* \"#utility.yul\":868:870   */\n      iszero\n      tag_71\n      jumpi\n        /* \"#utility.yul\":916:917   */\n      0x00\n        /* \"#utility.yul\":913:914   */\n      dup1\n        /* \"#utility.yul\":906:918   */\n      revert\n        /* \"#utility.yul\":868:870   */\n    tag_71:\n        /* \"#utility.yul\":959:960   */\n      0x00\n        /* \"#utility.yul\":984:1036   */\n      tag_72\n        /* \"#utility.yul\":1028:1035   */\n      dup5\n        /* \"#utility.yul\":1019:1025   */\n      dup3\n        /* \"#utility.yul\":1008:1017   */\n      dup6\n        /* \"#utility.yul\":1004:1026   */\n      add\n        /* \"#utility.yul\":984:1036   */\n      tag_62\n      jump\t// in\n    tag_72:\n        /* \"#utility.yul\":974:1036   */\n      swap2\n      pop\n        /* \"#utility.yul\":930:1046   */\n      pop\n        /* \"#utility.yul\":858:1053   */\n      swap3\n      swap2\n      pop\n      pop\n      jump\t// out\n        /* \"#utility.yul\":1059:1835   */\n    tag_15:\n      0x00\n      dup1\n      0x00\n        /* \"#utility.yul\":1220:1222   */\n      0x60\n        /* \"#utility.yul\":1208:1217   */\n      dup5\n        /* \"#utility.yul\":1199:1206   */\n      dup7\n        /* \"#utility.yul\":1195:1218   */\n      sub\n        /* \"#utility.yul\":1191:1223   */\n      slt\n        /* \"#utility.yul\":1188:1190   */\n      iszero\n      tag_74\n      jumpi\n        /* \"#utility.yul\":1236:1237   */\n      0x00\n        /* \"#utility.yul\":1233:1234   */\n      dup1\n        /* \"#utility.yul\":1226:1238   */\n      revert\n        /* \"#utility.yul\":1188:1190   */\n    tag_74:\n        /* \"#utility.yul\":1279:1280   */\n      0x00\n        /* \"#utility.yul\":1304:1356   */\n      tag_75\n        /* \"#utility.yul\":1348:1355   */\n      dup7\n        /* \"#utility.yul\":1339:1345   */\n      dup3\n        /* \"#utility.yul\":1328:1337   */\n      dup8\n        /* \"#utility.yul\":1324:1346   */\n      add\n        /* \"#utility.yul\":1304:1356   */\n      tag_62\n      jump\t// in\n    tag_75:\n        /* \"#utility.yul\":1294:1356   */\n      swap4\n      pop\n        /* \"#utility.yul\":1250:1366   */\n      pop\n        /* \"#utility.yul\":1433:1435   */\n      0x20\n        /* \"#utility.yul\":1422:1431   */\n      dup5\n        /* \"#utility.yul\":1418:1436   */\n      add\n        /* \"#utility.yul\":1405:1437   */\n      calldataload\n        /* \"#utility.yul\":1464:1482   */\n      0xffffffffffffffff\n        /* \"#utility.yul\":1456:1462   */\n      dup2\n        /* \"#utility.yul\":1453:1483   */\n      gt\n        /* \"#utility.yul\":1450:1452   */\n      iszero\n      tag_76\n      jumpi\n        /* \"#utility.yul\":1496:1497   */\n      0x00\n        /* \"#utility.yul\":1493:1494   */\n      dup1\n        /* \"#utility.yul\":1486:1498   */\n      revert\n        /* \"#utility.yul\":1450:1452   */\n    tag_76:\n        /* \"#utility.yul\":1524:1587   */\n      tag_77\n        /* \"#utility.yul\":1579:1586   */\n      dup7\n        /* \"#utility.yul\":1570:1576   */\n      dup3\n        /* \"#utility.yul\":1559:1568   */\n      dup8\n        /* \"#utility.yul\":1555:1577   */\n      add\n        /* \"#utility.yul\":1524:1587   */\n      tag_66\n      jump\t// in\n    tag_77:\n        /* \"#utility.yul\":1514:1587   */\n      swap3\n      pop\n        /* \"#utility.yul\":1376:1597   */\n      pop\n        /* \"#utility.yul\":1664:1666   */\n      0x40\n        /* \"#utility.yul\":1653:1662   */\n      dup5\n        /* \"#utility.yul\":1649:1667   */\n      add\n        /* \"#utility.yul\":1636:1668   */\n      calldataload\n        /* \"#utility.yul\":1695:1713   */\n      0xffffffffffffffff\n        /* \"#utility.yul\":1687:1693   */\n      dup2\n        /* \"#utility.yul\":1684:1714   */\n      gt\n        /* \"#utility.yul\":1681:1683   */\n      iszero\n      tag_78\n      jumpi\n        /* \"#utility.yul\":1727:1728   */\n      0x00\n        /* \"#utility.yul\":1724:1725   */\n      dup1\n        /* \"#utility.yul\":1717:1729   */\n      revert\n        /* \"#utility.yul\":1681:1683   */\n    tag_78:\n        /* \"#utility.yul\":1755:1818   */\n      tag_79\n        /* \"#utility.yul\":1810:1817   */\n      dup7\n        /* \"#utility.yul\":1801:1807   */\n      dup3\n        /* \"#utility.yul\":1790:1799   */\n      dup8\n        /* \"#utility.yul\":1786:1808   */\n      add\n        /* \"#utility.yul\":1755:1818   */\n      tag_66\n      jump\t// in\n    tag_79:\n        /* \"#utility.yul\":1745:1818   */\n      swap2\n      pop\n        /* \"#utility.yul\":1607:1828   */\n      pop\n        /* \"#utility.yul\":1178:1835   */\n      swap3\n      pop\n      swap3\n      pop\n      swap3\n      jump\t// out\n        /* \"#utility.yul\":1841:1959   */\n    tag_80:\n        /* \"#utility.yul\":1928:1952   */\n      tag_82\n        /* \"#utility.yul\":1946:1951   */\n      dup2\n        /* \"#utility.yul\":1928:1952   */\n      tag_83\n      jump\t// in\n    tag_82:\n        /* \"#utility.yul\":1923:1926   */\n      dup3\n        /* \"#utility.yul\":1916:1953   */\n      mstore\n        /* \"#utility.yul\":1906:1959   */\n      pop\n      pop\n      jump\t// out\n        /* \"#utility.yul\":1965:2080   */\n    tag_84:\n        /* \"#utility.yul\":2050:2073   */\n      tag_86\n        /* \"#utility.yul\":2067:2072   */\n      dup2\n        /* \"#utility.yul\":2050:2073   */\n      tag_87\n      jump\t// in\n    tag_86:\n        /* \"#utility.yul\":2045:2048   */\n      dup3\n        /* \"#utility.yul\":2038:2074   */\n      mstore\n        /* \"#utility.yul\":2028:2080   */\n      pop\n      pop\n      jump\t// out\n        /* \"#utility.yul\":2086:2450   */\n    tag_88:\n      0x00\n        /* \"#utility.yul\":2202:2241   */\n      tag_90\n        /* \"#utility.yul\":2235:2240   */\n      dup3\n        /* \"#utility.yul\":2202:2241   */\n      tag_91\n      jump\t// in\n    tag_90:\n        /* \"#utility.yul\":2257:2328   */\n      tag_92\n        /* \"#utility.yul\":2321:2327   */\n      dup2\n        /* \"#utility.yul\":2316:2319   */\n      dup6\n        /* \"#utility.yul\":2257:2328   */\n      tag_93\n      jump\t// in\n    tag_92:\n        /* \"#utility.yul\":2250:2328   */\n      swap4\n      pop\n        /* \"#utility.yul\":2337:2389   */\n      tag_94\n        /* \"#utility.yul\":2382:2388   */\n      dup2\n        /* \"#utility.yul\":2377:2380   */\n      dup6\n        /* \"#utility.yul\":2370:2374   */\n      0x20\n        /* \"#utility.yul\":2363:2368   */\n      dup7\n        /* \"#utility.yul\":2359:2375   */\n      add\n        /* \"#utility.yul\":2337:2389   */\n      tag_95\n      jump\t// in\n    tag_94:\n        /* \"#utility.yul\":2414:2443   */\n      tag_96\n        /* \"#utility.yul\":2436:2442   */\n      dup2\n        /* \"#utility.yul\":2414:2443   */\n      tag_97\n      jump\t// in\n    tag_96:\n        /* \"#utility.yul\":2409:2412   */\n      dup5\n        /* \"#utility.yul\":2405:2444   */\n      add\n        /* \"#utility.yul\":2398:2444   */\n      swap2\n      pop\n        /* \"#utility.yul\":2178:2450   */\n      pop\n      swap3\n      swap2\n      pop\n      pop\n      jump\t// out\n        /* \"#utility.yul\":2456:2678   */\n    tag_20:\n      0x00\n        /* \"#utility.yul\":2587:2589   */\n      0x20\n        /* \"#utility.yul\":2576:2585   */\n      dup3\n        /* \"#utility.yul\":2572:2590   */\n      add\n        /* \"#utility.yul\":2564:2590   */\n      swap1\n      pop\n        /* \"#utility.yul\":2600:2671   */\n      tag_99\n        /* \"#utility.yul\":2668:2669   */\n      0x00\n        /* \"#utility.yul\":2657:2666   */\n      dup4\n        /* \"#utility.yul\":2653:2670   */\n      add\n        /* \"#utility.yul\":2644:2650   */\n      dup5\n        /* \"#utility.yul\":2600:2671   */\n      tag_80\n      jump\t// in\n    tag_99:\n        /* \"#utility.yul\":2554:2678   */\n      swap3\n      swap2\n      pop\n      pop\n      jump\t// out\n        /* \"#utility.yul\":2684:2902   */\n    tag_24:\n      0x00\n        /* \"#utility.yul\":2813:2815   */\n      0x20\n        /* \"#utility.yul\":2802:2811   */\n      dup3\n        /* \"#utility.yul\":2798:2816   */\n      add\n        /* \"#utility.yul\":2790:2816   */\n      swap1\n      pop\n        /* \"#utility.yul\":2826:2895   */\n      tag_101\n        /* \"#utility.yul\":2892:2893   */\n      0x00\n        /* \"#utility.yul\":2881:2890   */\n      dup4\n        /* \"#utility.yul\":2877:2894   */\n      add\n        /* \"#utility.yul\":2868:2874   */\n      dup5\n        /* \"#utility.yul\":2826:2895   */\n      tag_84\n      jump\t// in\n    tag_101:\n        /* \"#utility.yul\":2780:2902   */\n      swap3\n      swap2\n      pop\n      pop\n      jump\t// out\n        /* \"#utility.yul\":2908:3528   */\n    tag_12:\n      0x00\n        /* \"#utility.yul\":3133:3135   */\n      0x60\n        /* \"#utility.yul\":3122:3131   */\n      dup3\n        /* \"#utility.yul\":3118:3136   */\n      add\n        /* \"#utility.yul\":3110:3136   */\n      swap1\n      pop\n        /* \"#utility.yul\":3146:3215   */\n      tag_103\n        /* \"#utility.yul\":3212:3213   */\n      0x00\n        /* \"#utility.yul\":3201:3210   */\n      dup4\n        /* \"#utility.yul\":3197:3214   */\n      add\n        /* \"#utility.yul\":3188:3194   */\n      dup7\n        /* \"#utility.yul\":3146:3215   */\n      tag_84\n      jump\t// in\n    tag_103:\n        /* \"#utility.yul\":3262:3271   */\n      dup2\n        /* \"#utility.yul\":3256:3260   */\n      dup2\n        /* \"#utility.yul\":3252:3272   */\n      sub\n        /* \"#utility.yul\":3247:3249   */\n      0x20\n        /* \"#utility.yul\":3236:3245   */\n      dup4\n        /* \"#utility.yul\":3232:3250   */\n      add\n        /* \"#utility.yul\":3225:3273   */\n      mstore\n        /* \"#utility.yul\":3290:3368   */\n      tag_104\n        /* \"#utility.yul\":3363:3367   */\n      dup2\n        /* \"#utility.yul\":3354:3360   */\n      dup6\n        /* \"#utility.yul\":3290:3368   */\n      tag_88\n      jump\t// in\n    tag_104:\n        /* \"#utility.yul\":3282:3368   */\n      swap1\n      pop\n        /* \"#utility.yul\":3415:3424   */\n      dup2\n        /* \"#utility.yul\":3409:3413   */\n      dup2\n        /* \"#utility.yul\":3405:3425   */\n      sub\n        /* \"#utility.yul\":3400:3402   */\n      0x40\n        /* \"#utility.yul\":3389:3398   */\n      dup4\n        /* \"#utility.yul\":3385:3403   */\n      add\n        /* \"#utility.yul\":3378:3426   */\n      mstore\n        /* \"#utility.yul\":3443:3521   */\n      tag_105\n        /* \"#utility.yul\":3516:3520   */\n      dup2\n        /* \"#utility.yul\":3507:3513   */\n      dup5\n        /* \"#utility.yul\":3443:3521   */\n      tag_88\n      jump\t// in\n    tag_105:\n        /* \"#utility.yul\":3435:3521   */\n      swap1\n      pop\n        /* \"#utility.yul\":3100:3528   */\n      swap5\n      swap4\n      pop\n      pop\n      pop\n      pop\n      jump\t// out\n        /* \"#utility.yul\":3534:3817   */\n    tag_58:\n      0x00\n        /* \"#utility.yul\":3600:3602   */\n      0x40\n        /* \"#utility.yul\":3594:3603   */\n      mload\n        /* \"#utility.yul\":3584:3603   */\n      swap1\n      pop\n        /* \"#utility.yul\":3642:3646   */\n      dup2\n        /* \"#utility.yul\":3634:3640   */\n      dup2\n        /* \"#utility.yul\":3630:3647   */\n      add\n        /* \"#utility.yul\":3749:3755   */\n      dup2\n        /* \"#utility.yul\":3737:3747   */\n      dup2\n        /* \"#utility.yul\":3734:3756   */\n      lt\n        /* \"#utility.yul\":3713:3731   */\n      0xffffffffffffffff\n        /* \"#utility.yul\":3701:3711   */\n      dup3\n        /* \"#utility.yul\":3698:3732   */\n      gt\n        /* \"#utility.yul\":3695:3757   */\n      or\n        /* \"#utility.yul\":3692:3694   */\n      iszero\n      tag_107\n      jumpi\n        /* \"#utility.yul\":3760:3778   */\n      tag_108\n      tag_109\n      jump\t// in\n    tag_108:\n        /* \"#utility.yul\":3692:3694   */\n    tag_107:\n        /* \"#utility.yul\":3800:3810   */\n      dup1\n        /* \"#utility.yul\":3796:3798   */\n      0x40\n        /* \"#utility.yul\":3789:3811   */\n      mstore\n        /* \"#utility.yul\":3574:3817   */\n      pop\n      swap2\n      swap1\n      pop\n      jump\t// out\n        /* \"#utility.yul\":3823:4155   */\n    tag_57:\n      0x00\n        /* \"#utility.yul\":3975:3993   */\n      0xffffffffffffffff\n        /* \"#utility.yul\":3967:3973   */\n      dup3\n        /* \"#utility.yul\":3964:3994   */\n      gt\n        /* \"#utility.yul\":3961:3963   */\n      iszero\n      tag_111\n      jumpi\n        /* \"#utility.yul\":3997:4015   */\n      tag_112\n      tag_109\n      jump\t// in\n    tag_112:\n        /* \"#utility.yul\":3961:3963   */\n    tag_111:\n        /* \"#utility.yul\":4082:4086   */\n      0x1f\n        /* \"#utility.yul\":4078:4087   */\n      not\n        /* \"#utility.yul\":4071:4075   */\n      0x1f\n        /* \"#utility.yul\":4063:4069   */\n      dup4\n        /* \"#utility.yul\":4059:4076   */\n      add\n        /* \"#utility.yul\":4055:4088   */\n      and\n        /* \"#utility.yul\":4047:4088   */\n      swap1\n      pop\n        /* \"#utility.yul\":4143:4147   */\n      0x20\n        /* \"#utility.yul\":4137:4141   */\n      dup2\n        /* \"#utility.yul\":4133:4148   */\n      add\n        /* \"#utility.yul\":4125:4148   */\n      swap1\n      pop\n        /* \"#utility.yul\":3890:4155   */\n      swap2\n      swap1\n      pop\n      jump\t// out\n        /* \"#utility.yul\":4161:4260   */\n    tag_91:\n      0x00\n        /* \"#utility.yul\":4247:4252   */\n      dup2\n        /* \"#utility.yul\":4241:4253   */\n      mload\n        /* \"#utility.yul\":4231:4253   */\n      swap1\n      pop\n        /* \"#utility.yul\":4220:4260   */\n      swap2\n      swap1\n      pop\n      jump\t// out\n        /* \"#utility.yul\":4266:4435   */\n    tag_93:\n      0x00\n        /* \"#utility.yul\":4384:4390   */\n      dup3\n        /* \"#utility.yul\":4379:4382   */\n      dup3\n        /* \"#utility.yul\":4372:4391   */\n      mstore\n        /* \"#utility.yul\":4424:4428   */\n      0x20\n        /* \"#utility.yul\":4419:4422   */\n      dup3\n        /* \"#utility.yul\":4415:4429   */\n      add\n        /* \"#utility.yul\":4400:4429   */\n      swap1\n      pop\n        /* \"#utility.yul\":4362:4435   */\n      swap3\n      swap2\n      pop\n      pop\n      jump\t// out\n        /* \"#utility.yul\":4441:4966   */\n    tag_38:\n      0x00\n        /* \"#utility.yul\":4499:4518   */\n      tag_116\n        /* \"#utility.yul\":4516:4517   */\n      dup3\n        /* \"#utility.yul\":4499:4518   */\n      tag_87\n      jump\t// in\n    tag_116:\n        /* \"#utility.yul\":4494:4518   */\n      swap2\n      pop\n        /* \"#utility.yul\":4532:4551   */\n      tag_117\n        /* \"#utility.yul\":4549:4550   */\n      dup4\n        /* \"#utility.yul\":4532:4551   */\n      tag_87\n      jump\t// in\n    tag_117:\n        /* \"#utility.yul\":4527:4551   */\n      swap3\n      pop\n        /* \"#utility.yul\":4720:4721   */\n      dup2\n        /* \"#utility.yul\":4652:4718   */\n      0x7fffffffffffffffffffffffffffffffffffffffffffffffffffffffffffffff\n        /* \"#utility.yul\":4648:4722   */\n      sub\n        /* \"#utility.yul\":4645:4646   */\n      dup4\n        /* \"#utility.yul\":4641:4723   */\n      sgt\n        /* \"#utility.yul\":4636:4637   */\n      0x00\n        /* \"#utility.yul\":4633:4634   */\n      dup4\n        /* \"#utility.yul\":4629:4638   */\n      slt\n        /* \"#utility.yul\":4622:4639   */\n      iszero\n        /* \"#utility.yul\":4618:4724   */\n      and\n        /* \"#utility.yul\":4615:4617   */\n      iszero\n      tag_118\n      jumpi\n        /* \"#utility.yul\":4727:4745   */\n      tag_119\n      tag_120\n      jump\t// in\n    tag_119:\n        /* \"#utility.yul\":4615:4617   */\n    tag_118:\n        /* \"#utility.yul\":4907:4908   */\n      dup2\n        /* \"#utility.yul\":4839:4905   */\n      0x8000000000000000000000000000000000000000000000000000000000000000\n        /* \"#utility.yul\":4835:4909   */\n      sub\n        /* \"#utility.yul\":4832:4833   */\n      dup4\n        /* \"#utility.yul\":4828:4910   */\n      slt\n        /* \"#utility.yul\":4824:4825   */\n      0x00\n        /* \"#utility.yul\":4821:4822   */\n      dup4\n        /* \"#utility.yul\":4817:4826   */\n      slt\n        /* \"#utility.yul\":4813:4911   */\n      and\n        /* \"#utility.yul\":4810:4812   */\n      iszero\n      tag_121\n      jumpi\n        /* \"#utility.yul\":4914:4932   */\n      tag_122\n      tag_120\n      jump\t// in\n    tag_122:\n        /* \"#utility.yul\":4810:4812   */\n    tag_121:\n        /* \"#utility.yul\":4958:4959   */\n      dup3\n        /* \"#utility.yul\":4955:4956   */\n      dup3\n        /* \"#utility.yul\":4951:4960   */\n      add\n        /* \"#utility.yul\":4944:4960   */\n      swap1\n      pop\n        /* \"#utility.yul\":4484:4966   */\n      swap3\n      swap2\n      pop\n      pop\n      jump\t// out\n        /* \"#utility.yul\":4972:5068   */\n    tag_83:\n      0x00\n        /* \"#utility.yul\":5038:5062   */\n      tag_124\n        /* \"#utility.yul\":5056:5061   */\n      dup3\n        /* \"#utility.yul\":5038:5062   */\n      tag_125\n      jump\t// in\n    tag_124:\n        /* \"#utility.yul\":5027:5062   */\n      swap1\n      pop\n        /* \"#utility.yul\":5017:5068   */\n      swap2\n      swap1\n      pop\n      jump\t// out\n        /* \"#utility.yul\":5074:5150   */\n    tag_87:\n      0x00\n        /* \"#utility.yul\":5139:5144   */\n      dup2\n        /* \"#utility.yul\":5128:5144   */\n      swap1\n      pop\n        /* \"#utility.yul\":5118:5150   */\n      swap2\n      swap1\n      pop\n      jump\t// out\n        /* \"#utility.yul\":5156:5282   */\n    tag_125:\n      0x00\n        /* \"#utility.yul\":5233:5275   */\n      0xffffffffffffffffffffffffffffffffffffffff\n        /* \"#utility.yul\":5226:5231   */\n      dup3\n        /* \"#utility.yul\":5222:5276   */\n      and\n        /* \"#utility.yul\":5211:5276   */\n      swap1\n      pop\n        /* \"#utility.yul\":5201:5282   */\n      swap2\n      swap1\n      pop\n      jump\t// out\n        /* \"#utility.yul\":5288:5442   */\n    tag_61:\n        /* \"#utility.yul\":5372:5378   */\n      dup3\n        /* \"#utility.yul\":5367:5370   */\n      dup2\n        /* \"#utility.yul\":5362:5365   */\n      dup4\n        /* \"#utility.yul\":5349:5379   */\n      calldatacopy\n        /* \"#utility.yul\":5434:5435   */\n      0x00\n        /* \"#utility.yul\":5425:5431   */\n      dup4\n        /* \"#utility.yul\":5420:5423   */\n      dup4\n        /* \"#utility.yul\":5416:5432   */\n      add\n        /* \"#utility.yul\":5409:5436   */\n      mstore\n        /* \"#utility.yul\":5339:5442   */\n      pop\n      pop\n      pop\n      jump\t// out\n        /* \"#utility.yul\":5448:5755   */\n    tag_95:\n        /* \"#utility.yul\":5516:5517   */\n      0x00\n        /* \"#utility.yul\":5526:5639   */\n    tag_130:\n        /* \"#utility.yul\":5540:5546   */\n      dup4\n        /* \"#utility.yul\":5537:5538   */\n      dup2\n        /* \"#utility.yul\":5534:5547   */\n      lt\n        /* \"#utility.yul\":5526:5639   */\n      iszero\n      tag_132\n      jumpi\n        /* \"#utility.yul\":5625:5626   */\n      dup1\n        /* \"#utility.yul\":5620:5623   */\n      dup3\n        /* \"#utility.yul\":5616:5627   */\n      add\n        /* \"#utility.yul\":5610:5628   */\n      mload\n        /* \"#utility.yul\":5606:5607   */\n      dup2\n        /* \"#utility.yul\":5601:5604   */\n      dup5\n        /* \"#utility.yul\":5597:5608   */\n      add\n        /* \"#utility.yul\":5590:5629   */\n      mstore\n        /* \"#utility.yul\":5562:5564   */\n      0x20\n        /* \"#utility.yul\":5559:5560   */\n      dup2\n        /* \"#utility.yul\":5555:5565   */\n      add\n        /* \"#utility.yul\":5550:5565   */\n      swap1\n      pop\n        /* \"#utility.yul\":5526:5639   */\n      jump(tag_130)\n    tag_132:\n        /* \"#utility.yul\":5657:5663   */\n      dup4\n        /* \"#utility.yul\":5654:5655   */\n      dup2\n        /* \"#utility.yul\":5651:5664   */\n      gt\n        /* \"#utility.yul\":5648:5650   */\n      iszero\n      tag_133\n      jumpi\n        /* \"#utility.yul\":5737:5738   */\n      0x00\n        /* \"#utility.yul\":5728:5734   */\n      dup5\n        /* \"#utility.yul\":5723:5726   */\n      dup5\n        /* \"#utility.yul\":5719:5735   */\n      add\n        /* \"#utility.yul\":5712:5739   */\n      mstore\n        /* \"#utility.yul\":5648:5650   */\n    tag_133:\n        /* \"#utility.yul\":5497:5755   */\n      pop\n      pop\n      pop\n      pop\n      jump\t// out\n        /* \"#utility.yul\":5761:6081   */\n    tag_26:\n      0x00\n        /* \"#utility.yul\":5842:5843   */\n      0x02\n        /* \"#utility.yul\":5836:5840   */\n      dup3\n        /* \"#utility.yul\":5832:5844   */\n      div\n        /* \"#utility.yul\":5822:5844   */\n      swap1\n      pop\n        /* \"#utility.yul\":5889:5890   */\n      0x01\n        /* \"#utility.yul\":5883:5887   */\n      dup3\n        /* \"#utility.yul\":5879:5891   */\n      and\n        /* \"#utility.yul\":5910:5928   */\n      dup1\n        /* \"#utility.yul\":5900:5902   */\n      tag_135\n      jumpi\n        /* \"#utility.yul\":5966:5970   */\n      0x7f\n        /* \"#utility.yul\":5958:5964   */\n      dup3\n        /* \"#utility.yul\":5954:5971   */\n      and\n        /* \"#utility.yul\":5944:5971   */\n      swap2\n      pop\n        /* \"#utility.yul\":5900:5902   */\n    tag_135:\n        /* \"#utility.yul\":6028:6030   */\n      0x20\n        /* \"#utility.yul\":6020:6026   */\n      dup3\n        /* \"#utility.yul\":6017:6031   */\n      lt\n        /* \"#utility.yul\":5997:6015   */\n      dup2\n        /* \"#utility.yul\":5994:6032   */\n      eq\n        /* \"#utility.yul\":5991:5993   */\n      iszero\n      tag_136\n      jumpi\n        /* \"#utility.yul\":6047:6065   */\n      tag_137\n      tag_138\n      jump\t// in\n    tag_137:\n        /* \"#utility.yul\":5991:5993   */\n    tag_136:\n        /* \"#utility.yul\":5812:6081   */\n      pop\n      swap2\n      swap1\n      pop\n      jump\t// out\n        /* \"#utility.yul\":6087:6267   */\n    tag_120:\n        /* \"#utility.yul\":6135:6212   */\n      0x4e487b7100000000000000000000000000000000000000000000000000000000\n        /* \"#utility.yul\":6132:6133   */\n      0x00\n        /* \"#utility.yul\":6125:6213   */\n      mstore\n        /* \"#utility.yul\":6232:6236   */\n      0x11\n        /* \"#utility.yul\":6229:6230   */\n      0x04\n        /* \"#utility.yul\":6222:6237   */\n      mstore\n        /* \"#utility.yul\":6256:6260   */\n      0x24\n        /* \"#utility.yul\":6253:6254   */\n      0x00\n        /* \"#utility.yul\":6246:6261   */\n      revert\n        /* \"#utility.yul\":6273:6453   */\n    tag_138:\n        /* \"#utility.yul\":6321:6398   */\n      0x4e487b7100000000000000000000000000000000000000000000000000000000\n        /* \"#utility.yul\":6318:6319   */\n      0x00\n        /* \"#utility.yul\":6311:6399   */\n      mstore\n        /* \"#utility.yul\":6418:6422   */\n      0x22\n        /* \"#utility.yul\":6415:6416   */\n      0x04\n        /* \"#utility.yul\":6408:6423   */\n      mstore\n        /* \"#utility.yul\":6442:6446   */\n      0x24\n        /* \"#utility.yul\":6439:6440   */\n      0x00\n        /* \"#utility.yul\":6432:6447   */\n      revert\n        /* \"#utility.yul\":6459:6639   */\n    tag_109:\n        /* \"#utility.yul\":6507:6584   */\n      0x4e487b7100000000000000000000000000000000000000000000000000000000\n        /* \"#utility.yul\":6504:6505   */\n      0x00\n        /* \"#utility.yul\":6497:6585   */\n      mstore\n        /* \"#utility.yul\":6604:6608   */\n      0x41\n        /* \"#utility.yul\":6601:6602   */\n      0x04\n        /* \"#utility.yul\":6594:6609   */\n      mstore\n        /* \"#utility.yul\":6628:6632   */\n      0x24\n        /* \"#utility.yul\":6625:6626   */\n      0x00\n        /* \"#utility.yul\":6618:6633   */\n      revert\n        /* \"#utility.yul\":6645:6747   */\n    tag_97:\n      0x00\n        /* \"#utility.yul\":6737:6739   */\n      0x1f\n        /* \"#utility.yul\":6733:6740   */\n      not\n        /* \"#utility.yul\":6728:6730   */\n      0x1f\n        /* \"#utility.yul\":6721:6726   */\n      dup4\n        /* \"#utility.yul\":6717:6731   */\n      add\n        /* \"#utility.yul\":6713:6741   */\n      and\n        /* \"#utility.yul\":6703:6741   */\n      swap1\n      pop\n        /* \"#utility.yul\":6693:6747   */\n      swap2\n      swap1\n      pop\n      jump\t// out\n        /* \"#utility.yul\":6753:6873   */\n    tag_65:\n        /* \"#utility.yul\":6825:6848   */\n      tag_144\n        /* \"#utility.yul\":6842:6847   */\n      dup2\n        /* \"#utility.yul\":6825:6848   */\n      tag_87\n      jump\t// in\n    tag_144:\n        /* \"#utility.yul\":6818:6823   */\n      dup2\n        /* \"#utility.yul\":6815:6849   */\n      eq\n        /* \"#utility.yul\":6805:6807   */\n      tag_145\n      jumpi\n        /* \"#utility.yul\":6863:6864   */\n      0x00\n        /* \"#utility.yul\":6860:6861   */\n      dup1\n        /* \"#utility.yul\":6853:6865   */\n      revert\n        /* \"#utility.yul\":6805:6807   */\n    tag_145:\n        /* \"#utility.yul\":6795:6873   */\n      pop\n      jump\t// out\n\n    auxdata: 0xa264697066735822122052b095399114b245dc9794c9170cfcca74b6dce08241414ab939fabd6aa7905d64736f6c63430008000033\n}\n",
				"bytecode": {
					"linkReferences": {},
					"object": "6080604052600060015534801561001557600080fd5b50610815806100256000396000f3fe608060405234801561001057600080fd5b506004361061004c5760003560e01c80636a7ae124146100515780638306c10b146100835780638da5cb5b1461009f578063b7e00013146100bd575b600080fd5b61006b600480360381019061006691906103ef565b6100db565b60405161007a93929190610524565b60405180910390f35b61009d60048036038101906100989190610418565b610215565b005b6100a76102a5565b6040516100b491906104ee565b60405180910390f35b6100c56102c9565b6040516100d29190610509565b60405180910390f35b6002602052806000526040600020600091509050806000015490806001018054610104906106f8565b80601f0160208091040260200160405190810160405280929190818152602001828054610130906106f8565b801561017d5780601f106101525761010080835404028352916020019161017d565b820191906000526020600020905b81548152906001019060200180831161016057829003601f168201915b505050505090806002018054610192906106f8565b80601f01602080910402602001604051908101604052809291908181526020018280546101be906106f8565b801561020b5780601f106101e05761010080835404028352916020019161020b565b820191906000526020600020905b8154815290600101906020018083116101ee57829003601f168201915b5050505050905083565b6001805461022391906105e6565b60018190555060405180606001604052808481526020018381526020018281525060026000600154815260200190815260200160002060008201518160000155602082015181600101908051906020019061027f9291906102cf565b50604082015181600201908051906020019061029c9291906102cf565b50905050505050565b60008054906101000a900473ffffffffffffffffffffffffffffffffffffffff1681565b60015481565b8280546102db906106f8565b90600052602060002090601f0160209004810192826102fd5760008555610344565b82601f1061031657805160ff1916838001178555610344565b82800160010185558215610344579182015b82811115610343578251825591602001919060010190610328565b5b5090506103519190610355565b5090565b5b8082111561036e576000816000905550600101610356565b5090565b60006103856103808461059a565b610569565b90508281526020810184848401111561039d57600080fd5b6103a88482856106b6565b509392505050565b6000813590506103bf816107c8565b92915050565b600082601f8301126103d657600080fd5b81356103e6848260208601610372565b91505092915050565b60006020828403121561040157600080fd5b600061040f848285016103b0565b91505092915050565b60008060006060848603121561042d57600080fd5b600061043b868287016103b0565b935050602084013567ffffffffffffffff81111561045857600080fd5b610464868287016103c5565b925050604084013567ffffffffffffffff81111561048157600080fd5b61048d868287016103c5565b9150509250925092565b6104a08161067a565b82525050565b6104af8161068c565b82525050565b60006104c0826105ca565b6104ca81856105d5565b93506104da8185602086016106c5565b6104e3816107b7565b840191505092915050565b60006020820190506105036000830184610497565b92915050565b600060208201905061051e60008301846104a6565b92915050565b600060608201905061053960008301866104a6565b818103602083015261054b81856104b5565b9050818103604083015261055f81846104b5565b9050949350505050565b6000604051905081810181811067ffffffffffffffff821117156105905761058f610788565b5b8060405250919050565b600067ffffffffffffffff8211156105b5576105b4610788565b5b601f19601f8301169050602081019050919050565b600081519050919050565b600082825260208201905092915050565b60006105f18261068c565b91506105fc8361068c565b9250817f7fffffffffffffffffffffffffffffffffffffffffffffffffffffffffffffff038313600083121516156106375761063661072a565b5b817f800000000000000000000000000000000000000000000000000000000000000003831260008312161561066f5761066e61072a565b5b828201905092915050565b600061068582610696565b9050919050565b6000819050919050565b600073ffffffffffffffffffffffffffffffffffffffff82169050919050565b82818337600083830152505050565b60005b838110156106e35780820151818401526020810190506106c8565b838111156106f2576000848401525b50505050565b6000600282049050600182168061071057607f821691505b6020821081141561072457610723610759565b5b50919050565b7f4e487b7100000000000000000000000000000000000000000000000000000000600052601160045260246000fd5b7f4e487b7100000000000000000000000000000000000000000000000000000000600052602260045260246000fd5b7f4e487b7100000000000000000000000000000000000000000000000000000000600052604160045260246000fd5b6000601f19601f8301169050919050565b6107d18161068c565b81146107dc57600080fd5b5056fea264697066735822122052b095399114b245dc9794c9170cfcca74b6dce08241414ab939fabd6aa7905d64736f6c63430008000033",
					"opcodes": "PUSH1 0x80 PUSH1 0x40 MSTORE PUSH1 0x0 PUSH1 0x1 SSTORE CALLVALUE DUP1 ISZERO PUSH2 0x15 JUMPI PUSH1 0x0 DUP1 REVERT JUMPDEST POP PUSH2 0x815 DUP1 PUSH2 0x25 PUSH1 0x0 CODECOPY PUSH1 0x0 RETURN INVALID PUSH1 0x80 PUSH1 0x40 MSTORE CALLVALUE DUP1 ISZERO PUSH2 0x10 JUMPI PUSH1 0x0 DUP1 REVERT JUMPDEST POP PUSH1 0x4 CALLDATASIZE LT PUSH2 0x4C JUMPI PUSH1 0x0 CALLDATALOAD PUSH1 0xE0 SHR DUP1 PUSH4 0x6A7AE124 EQ PUSH2 0x51 JUMPI DUP1 PUSH4 0x8306C10B EQ PUSH2 0x83 JUMPI DUP1 PUSH4 0x8DA5CB5B EQ PUSH2 0x9F JUMPI DUP1 PUSH4 0xB7E00013 EQ PUSH2 0xBD JUMPI JUMPDEST PUSH1 0x0 DUP1 REVERT JUMPDEST PUSH2 0x6B PUSH1 0x4 DUP1 CALLDATASIZE SUB DUP2 ADD SWAP1 PUSH2 0x66 SWAP2 SWAP1 PUSH2 0x3EF JUMP JUMPDEST PUSH2 0xDB JUMP JUMPDEST PUSH1 0x40 MLOAD PUSH2 0x7A SWAP4 SWAP3 SWAP2 SWAP1 PUSH2 0x524 JUMP JUMPDEST PUSH1 0x40 MLOAD DUP1 SWAP2 SUB SWAP1 RETURN JUMPDEST PUSH2 0x9D PUSH1 0x4 DUP1 CALLDATASIZE SUB DUP2 ADD SWAP1 PUSH2 0x98 SWAP2 SWAP1 PUSH2 0x418 JUMP JUMPDEST PUSH2 0x215 JUMP JUMPDEST STOP JUMPDEST PUSH2 0xA7 PUSH2 0x2A5 JUMP JUMPDEST PUSH1 0x40 MLOAD PUSH2 0xB4 SWAP2 SWAP1 PUSH2 0x4EE JUMP JUMPDEST PUSH1 0x40 MLOAD DUP1 SWAP2 SUB SWAP1 RETURN JUMPDEST PUSH2 0xC5 PUSH2 0x2C9 JUMP JUMPDEST PUSH1 0x40 MLOAD PUSH2 0xD2 SWAP2 SWAP1 PUSH2 0x509 JUMP JUMPDEST PUSH1 0x40 MLOAD DUP1 SWAP2 SUB SWAP1 RETURN JUMPDEST PUSH1 0x2 PUSH1 0x20 MSTORE DUP1 PUSH1 0x0 MSTORE PUSH1 0x40 PUSH1 0x0 KECCAK256 PUSH1 0x0 SWAP2 POP SWAP1 POP DUP1 PUSH1 0x0 ADD SLOAD SWAP1 DUP1 PUSH1 0x1 ADD DUP1 SLOAD PUSH2 0x104 SWAP1 PUSH2 0x6F8 JUMP JUMPDEST DUP1 PUSH1 0x1F ADD PUSH1 0x20 DUP1 SWAP2 DIV MUL PUSH1 0x20 ADD PUSH1 0x40 MLOAD SWAP1 DUP2 ADD PUSH1 0x40 MSTORE DUP1 SWAP3 SWAP2 SWAP1 DUP2 DUP2 MSTORE PUSH1 0x20 ADD DUP3 DUP1 SLOAD PUSH2 0x130 SWAP1 PUSH2 0x6F8 JUMP JUMPDEST DUP1 ISZERO PUSH2 0x17D JUMPI DUP1 PUSH1 0x1F LT PUSH2 0x152 JUMPI PUSH2 0x100 DUP1 DUP4 SLOAD DIV MUL DUP4 MSTORE SWAP2 PUSH1 0x20 ADD SWAP2 PUSH2 0x17D JUMP JUMPDEST DUP3 ADD SWAP2 SWAP1 PUSH1 0x0 MSTORE PUSH1 0x20 PUSH1 0x0 KECCAK256 SWAP1 JUMPDEST DUP2 SLOAD DUP2 MSTORE SWAP1 PUSH1 0x1 ADD SWAP1 PUSH1 0x20 ADD DUP1 DUP4 GT PUSH2 0x160 JUMPI DUP3 SWAP1 SUB PUSH1 0x1F AND DUP3 ADD SWAP2 JUMPDEST POP POP POP POP POP SWAP1 DUP1 PUSH1 0x2 ADD DUP1 SLOAD PUSH2 0x192 SWAP1 PUSH2 0x6F8 JUMP JUMPDEST DUP1 PUSH1 0x1F ADD PUSH1 0x20 DUP1 SWAP2 DIV MUL PUSH1 0x20 ADD PUSH1 0x40 MLOAD SWAP1 DUP2 ADD PUSH1 0x40 MSTORE DUP1 SWAP3 SWAP2 SWAP1 DUP2 DUP2 MSTORE PUSH1 0x20 ADD DUP3 DUP1 SLOAD PUSH2 0x1BE SWAP1 PUSH2 0x6F8 JUMP JUMPDEST DUP1 ISZERO PUSH2 0x20B JUMPI DUP1 PUSH1 0x1F LT PUSH2 0x1E0 JUMPI PUSH2 0x100 DUP1 DUP4 SLOAD DIV MUL DUP4 MSTORE SWAP2 PUSH1 0x20 ADD SWAP2 PUSH2 0x20B JUMP JUMPDEST DUP3 ADD SWAP2 SWAP1 PUSH1 0x0 MSTORE PUSH1 0x20 PUSH1 0x0 KECCAK256 SWAP1 JUMPDEST DUP2 SLOAD DUP2 MSTORE SWAP1 PUSH1 0x1 ADD SWAP1 PUSH1 0x20 ADD DUP1 DUP4 GT PUSH2 0x1EE JUMPI DUP3 SWAP1 SUB PUSH1 0x1F AND DUP3 ADD SWAP2 JUMPDEST POP POP POP POP POP SWAP1 POP DUP4 JUMP JUMPDEST PUSH1 0x1 DUP1 SLOAD PUSH2 0x223 SWAP2 SWAP1 PUSH2 0x5E6 JUMP JUMPDEST PUSH1 0x1 DUP2 SWAP1 SSTORE POP PUSH1 0x40 MLOAD DUP1 PUSH1 0x60 ADD PUSH1 0x40 MSTORE DUP1 DUP5 DUP2 MSTORE PUSH1 0x20 ADD DUP4 DUP2 MSTORE PUSH1 0x20 ADD DUP3 DUP2 MSTORE POP PUSH1 0x2 PUSH1 0x0 PUSH1 0x1 SLOAD DUP2 MSTORE PUSH1 0x20 ADD SWAP1 DUP2 MSTORE PUSH1 0x20 ADD PUSH1 0x0 KECCAK256 PUSH1 0x0 DUP3 ADD MLOAD DUP2 PUSH1 0x0 ADD SSTORE PUSH1 0x20 DUP3 ADD MLOAD DUP2 PUSH1 0x1 ADD SWAP1 DUP1 MLOAD SWAP1 PUSH1 0x20 ADD SWAP1 PUSH2 0x27F SWAP3 SWAP2 SWAP1 PUSH2 0x2CF JUMP JUMPDEST POP PUSH1 0x40 DUP3 ADD MLOAD DUP2 PUSH1 0x2 ADD SWAP1 DUP1 MLOAD SWAP1 PUSH1 0x20 ADD SWAP1 PUSH2 0x29C SWAP3 SWAP2 SWAP1 PUSH2 0x2CF JUMP JUMPDEST POP SWAP1 POP POP POP POP POP JUMP JUMPDEST PUSH1 0x0 DUP1 SLOAD SWAP1 PUSH2 0x100 EXP SWAP1 DIV PUSH20 0xFFFFFFFFFFFFFFFFFFFFFFFFFFFFFFFFFFFFFFFF AND DUP2 JUMP JUMPDEST PUSH1 0x1 SLOAD DUP2 JUMP JUMPDEST DUP3 DUP1 SLOAD PUSH2 0x2DB SWAP1 PUSH2 0x6F8 JUMP JUMPDEST SWAP1 PUSH1 0x0 MSTORE PUSH1 0x20 PUSH1 0x0 KECCAK256 SWAP1 PUSH1 0x1F ADD PUSH1 0x20 SWAP1 DIV DUP2 ADD SWAP3 DUP3 PUSH2 0x2FD JUMPI PUSH1 0x0 DUP6 SSTORE PUSH2 0x344 JUMP JUMPDEST DUP3 PUSH1 0x1F LT PUSH2 0x316 JUMPI DUP1 MLOAD PUSH1 0xFF NOT AND DUP4 DUP1 ADD OR DUP6 SSTORE PUSH2 0x344 JUMP JUMPDEST DUP3 DUP1 ADD PUSH1 0x1 ADD DUP6 SSTORE DUP3 ISZERO PUSH2 0x344 JUMPI SWAP2 DUP3 ADD JUMPDEST DUP3 DUP2 GT ISZERO PUSH2 0x343 JUMPI DUP3 MLOAD DUP3 SSTORE SWAP2 PUSH1 0x20 ADD SWAP2 SWAP1 PUSH1 0x1 ADD SWAP1 PUSH2 0x328 JUMP JUMPDEST JUMPDEST POP SWAP1 POP PUSH2 0x351 SWAP2 SWAP1 PUSH2 0x355 JUMP JUMPDEST POP SWAP1 JUMP JUMPDEST JUMPDEST DUP1 DUP3 GT ISZERO PUSH2 0x36E JUMPI PUSH1 0x0 DUP2 PUSH1 0x0 SWAP1 SSTORE POP PUSH1 0x1 ADD PUSH2 0x356 JUMP JUMPDEST POP SWAP1 JUMP JUMPDEST PUSH1 0x0 PUSH2 0x385 PUSH2 0x380 DUP5 PUSH2 0x59A JUMP JUMPDEST PUSH2 0x569 JUMP JUMPDEST SWAP1 POP DUP3 DUP2 MSTORE PUSH1 0x20 DUP2 ADD DUP5 DUP5 DUP5 ADD GT ISZERO PUSH2 0x39D JUMPI PUSH1 0x0 DUP1 REVERT JUMPDEST PUSH2 0x3A8 DUP5 DUP3 DUP6 PUSH2 0x6B6 JUMP JUMPDEST POP SWAP4 SWAP3 POP POP POP JUMP JUMPDEST PUSH1 0x0 DUP2 CALLDATALOAD SWAP1 POP PUSH2 0x3BF DUP2 PUSH2 0x7C8 JUMP JUMPDEST SWAP3 SWAP2 POP POP JUMP JUMPDEST PUSH1 0x0 DUP3 PUSH1 0x1F DUP4 ADD SLT PUSH2 0x3D6 JUMPI PUSH1 0x0 DUP1 REVERT JUMPDEST DUP2 CALLDATALOAD PUSH2 0x3E6 DUP5 DUP3 PUSH1 0x20 DUP7 ADD PUSH2 0x372 JUMP JUMPDEST SWAP2 POP POP SWAP3 SWAP2 POP POP JUMP JUMPDEST PUSH1 0x0 PUSH1 0x20 DUP3 DUP5 SUB SLT ISZERO PUSH2 0x401 JUMPI PUSH1 0x0 DUP1 REVERT JUMPDEST PUSH1 0x0 PUSH2 0x40F DUP5 DUP3 DUP6 ADD PUSH2 0x3B0 JUMP JUMPDEST SWAP2 POP POP SWAP3 SWAP2 POP POP JUMP JUMPDEST PUSH1 0x0 DUP1 PUSH1 0x0 PUSH1 0x60 DUP5 DUP7 SUB SLT ISZERO PUSH2 0x42D JUMPI PUSH1 0x0 DUP1 REVERT JUMPDEST PUSH1 0x0 PUSH2 0x43B DUP7 DUP3 DUP8 ADD PUSH2 0x3B0 JUMP JUMPDEST SWAP4 POP POP PUSH1 0x20 DUP5 ADD CALLDATALOAD PUSH8 0xFFFFFFFFFFFFFFFF DUP2 GT ISZERO PUSH2 0x458 JUMPI PUSH1 0x0 DUP1 REVERT JUMPDEST PUSH2 0x464 DUP7 DUP3 DUP8 ADD PUSH2 0x3C5 JUMP JUMPDEST SWAP3 POP POP PUSH1 0x40 DUP5 ADD CALLDATALOAD PUSH8 0xFFFFFFFFFFFFFFFF DUP2 GT ISZERO PUSH2 0x481 JUMPI PUSH1 0x0 DUP1 REVERT JUMPDEST PUSH2 0x48D DUP7 DUP3 DUP8 ADD PUSH2 0x3C5 JUMP JUMPDEST SWAP2 POP POP SWAP3 POP SWAP3 POP SWAP3 JUMP JUMPDEST PUSH2 0x4A0 DUP2 PUSH2 0x67A JUMP JUMPDEST DUP3 MSTORE POP POP JUMP JUMPDEST PUSH2 0x4AF DUP2 PUSH2 0x68C JUMP JUMPDEST DUP3 MSTORE POP POP JUMP JUMPDEST PUSH1 0x0 PUSH2 0x4C0 DUP3 PUSH2 0x5CA JUMP JUMPDEST PUSH2 0x4CA DUP2 DUP6 PUSH2 0x5D5 JUMP JUMPDEST SWAP4 POP PUSH2 0x4DA DUP2 DUP6 PUSH1 0x20 DUP7 ADD PUSH2 0x6C5 JUMP JUMPDEST PUSH2 0x4E3 DUP2 PUSH2 0x7B7 JUMP JUMPDEST DUP5 ADD SWAP2 POP POP SWAP3 SWAP2 POP POP JUMP JUMPDEST PUSH1 0x0 PUSH1 0x20 DUP3 ADD SWAP1 POP PUSH2 0x503 PUSH1 0x0 DUP4 ADD DUP5 PUSH2 0x497 JUMP JUMPDEST SWAP3 SWAP2 POP POP JUMP JUMPDEST PUSH1 0x0 PUSH1 0x20 DUP3 ADD SWAP1 POP PUSH2 0x51E PUSH1 0x0 DUP4 ADD DUP5 PUSH2 0x4A6 JUMP JUMPDEST SWAP3 SWAP2 POP POP JUMP JUMPDEST PUSH1 0x0 PUSH1 0x60 DUP3 ADD SWAP1 POP PUSH2 0x539 PUSH1 0x0 DUP4 ADD DUP7 PUSH2 0x4A6 JUMP JUMPDEST DUP2 DUP2 SUB PUSH1 0x20 DUP4 ADD MSTORE PUSH2 0x54B DUP2 DUP6 PUSH2 0x4B5 JUMP JUMPDEST SWAP1 POP DUP2 DUP2 SUB PUSH1 0x40 DUP4 ADD MSTORE PUSH2 0x55F DUP2 DUP5 PUSH2 0x4B5 JUMP JUMPDEST SWAP1 POP SWAP5 SWAP4 POP POP POP POP JUMP JUMPDEST PUSH1 0x0 PUSH1 0x40 MLOAD SWAP1 POP DUP2 DUP2 ADD DUP2 DUP2 LT PUSH8 0xFFFFFFFFFFFFFFFF DUP3 GT OR ISZERO PUSH2 0x590 JUMPI PUSH2 0x58F PUSH2 0x788 JUMP JUMPDEST JUMPDEST DUP1 PUSH1 0x40 MSTORE POP SWAP2 SWAP1 POP JUMP JUMPDEST PUSH1 0x0 PUSH8 0xFFFFFFFFFFFFFFFF DUP3 GT ISZERO PUSH2 0x5B5 JUMPI PUSH2 0x5B4 PUSH2 0x788 JUMP JUMPDEST JUMPDEST PUSH1 0x1F NOT PUSH1 0x1F DUP4 ADD AND SWAP1 POP PUSH1 0x20 DUP2 ADD SWAP1 POP SWAP2 SWAP1 POP JUMP JUMPDEST PUSH1 0x0 DUP2 MLOAD SWAP1 POP SWAP2 SWAP1 POP JUMP JUMPDEST PUSH1 0x0 DUP3 DUP3 MSTORE PUSH1 0x20 DUP3 ADD SWAP1 POP SWAP3 SWAP2 POP POP JUMP JUMPDEST PUSH1 0x0 PUSH2 0x5F1 DUP3 PUSH2 0x68C JUMP JUMPDEST SWAP2 POP PUSH2 0x5FC DUP4 PUSH2 0x68C JUMP JUMPDEST SWAP3 POP DUP2 PUSH32 0x7FFFFFFFFFFFFFFFFFFFFFFFFFFFFFFFFFFFFFFFFFFFFFFFFFFFFFFFFFFFFFFF SUB DUP4 SGT PUSH1 0x0 DUP4 SLT ISZERO AND ISZERO PUSH2 0x637 JUMPI PUSH2 0x636 PUSH2 0x72A JUMP JUMPDEST JUMPDEST DUP2 PUSH32 0x8000000000000000000000000000000000000000000000000000000000000000 SUB DUP4 SLT PUSH1 0x0 DUP4 SLT AND ISZERO PUSH2 0x66F JUMPI PUSH2 0x66E PUSH2 0x72A JUMP JUMPDEST JUMPDEST DUP3 DUP3 ADD SWAP1 POP SWAP3 SWAP2 POP POP JUMP JUMPDEST PUSH1 0x0 PUSH2 0x685 DUP3 PUSH2 0x696 JUMP JUMPDEST SWAP1 POP SWAP2 SWAP1 POP JUMP JUMPDEST PUSH1 0x0 DUP2 SWAP1 POP SWAP2 SWAP1 POP JUMP JUMPDEST PUSH1 0x0 PUSH20 0xFFFFFFFFFFFFFFFFFFFFFFFFFFFFFFFFFFFFFFFF DUP3 AND SWAP1 POP SWAP2 SWAP1 POP JUMP JUMPDEST DUP3 DUP2 DUP4 CALLDATACOPY PUSH1 0x0 DUP4 DUP4 ADD MSTORE POP POP POP JUMP JUMPDEST PUSH1 0x0 JUMPDEST DUP4 DUP2 LT ISZERO PUSH2 0x6E3 JUMPI DUP1 DUP3 ADD MLOAD DUP2 DUP5 ADD MSTORE PUSH1 0x20 DUP2 ADD SWAP1 POP PUSH2 0x6C8 JUMP JUMPDEST DUP4 DUP2 GT ISZERO PUSH2 0x6F2 JUMPI PUSH1 0x0 DUP5 DUP5 ADD MSTORE JUMPDEST POP POP POP POP JUMP JUMPDEST PUSH1 0x0 PUSH1 0x2 DUP3 DIV SWAP1 POP PUSH1 0x1 DUP3 AND DUP1 PUSH2 0x710 JUMPI PUSH1 0x7F DUP3 AND SWAP2 POP JUMPDEST PUSH1 0x20 DUP3 LT DUP2 EQ ISZERO PUSH2 0x724 JUMPI PUSH2 0x723 PUSH2 0x759 JUMP JUMPDEST JUMPDEST POP SWAP2 SWAP1 POP JUMP JUMPDEST PUSH32 0x4E487B7100000000000000000000000000000000000000000000000000000000 PUSH1 0x0 MSTORE PUSH1 0x11 PUSH1 0x4 MSTORE PUSH1 0x24 PUSH1 0x0 REVERT JUMPDEST PUSH32 0x4E487B7100000000000000000000000000000000000000000000000000000000 PUSH1 0x0 MSTORE PUSH1 0x22 PUSH1 0x4 MSTORE PUSH1 0x24 PUSH1 0x0 REVERT JUMPDEST PUSH32 0x4E487B7100000000000000000000000000000000000000000000000000000000 PUSH1 0x0 MSTORE PUSH1 0x41 PUSH1 0x4 MSTORE PUSH1 0x24 PUSH1 0x0 REVERT JUMPDEST PUSH1 0x0 PUSH1 0x1F NOT PUSH1 0x1F DUP4 ADD AND SWAP1 POP SWAP2 SWAP1 POP JUMP JUMPDEST PUSH2 0x7D1 DUP2 PUSH2 0x68C JUMP JUMPDEST DUP2 EQ PUSH2 0x7DC JUMPI PUSH1 0x0 DUP1 REVERT JUMPDEST POP JUMP INVALID LOG2 PUSH5 0x6970667358 0x22 SLT KECCAK256 MSTORE 0xB0 SWAP6 CODECOPY SWAP2 EQ 0xB2 GASLIMIT 0xDC SWAP8 SWAP5 0xC9 OR 0xC 0xFC 0xCA PUSH21 0xB6DCE08241414AB939FABD6AA7905D64736F6C6343 STOP ADDMOD STOP STOP CALLER "
				},
				"gasEstimates": {
					"creation": {
						"codeDepositCost": "413800",
						"executionCost": "5455",
						"totalCost": "419255"
					},
					"external": {
						"addNewStudents(int256,string,string)": "infinite",
						"owner()": "1233",
						"studentID()": "1173",
						"studentRecords(int256)": "infinite"
					}
				},
				"methodIdentifiers": {
					"addNewStudents(int256,string,string)": "8306c10b",
					"owner()": "8da5cb5b",
					"studentID()": "b7e00013",
					"studentRecords(int256)": "6a7ae124"
				}
			},
			"storageLayout": {
				"storage": [
					{
						"astId": 10,
						"contract": "contracts/_StudentDatabase.sol:StudentDatabase",
						"label": "owner",
						"offset": 0,
						"slot": "0",
						"type": "t_address"
					},
					{
						"astId": 13,
						"contract": "contracts/_StudentDatabase.sol:StudentDatabase",
						"label": "studentID",
						"offset": 0,
						"slot": "1",
						"type": "t_int256"
					},
					{
						"astId": 18,
						"contract": "contracts/_StudentDatabase.sol:StudentDatabase",
						"label": "studentRecords",
						"offset": 0,
						"slot": "2",
						"type": "t_mapping(t_int256,t_struct(Student)8_storage)"
					}
				],
				"types": {
					"t_address": {
						"encoding": "inplace",
						"label": "address",
						"numberOfBytes": "20"
					},
					"t_int256": {
						"encoding": "inplace",
						"label": "int256",
						"numberOfBytes": "32"
					},
					"t_mapping(t_int256,t_struct(Student)8_storage)": {
						"encoding": "mapping",
						"key": "t_int256",
						"label": "mapping(int256 => struct StudentDatabase.Student)",
						"numberOfBytes": "32",
						"value": "t_struct(Student)8_storage"
					},
					"t_string_storage": {
						"encoding": "bytes",
						"label": "string",
						"numberOfBytes": "32"
					},
					"t_struct(Student)8_storage": {
						"encoding": "inplace",
						"label": "struct StudentDatabase.Student",
						"members": [
							{
								"astId": 3,
								"contract": "contracts/_StudentDatabase.sol:StudentDatabase",
								"label": "ID",
								"offset": 0,
								"slot": "0",
								"type": "t_int256"
							},
							{
								"astId": 5,
								"contract": "contracts/_StudentDatabase.sol:StudentDatabase",
								"label": "firstName",
								"offset": 0,
								"slot": "1",
								"type": "t_string_storage"
							},
							{
								"astId": 7,
								"contract": "contracts/_StudentDatabase.sol:StudentDatabase",
								"label": "lastName",
								"offset": 0,
								"slot": "2",
								"type": "t_string_storage"
							}
						],
						"numberOfBytes": "96"
					}
				}
			},
			"userdoc": {
				"kind": "user",
				"methods": {},
				"version": 1
			}
		}
	}
}