{
	"contracts/_StudentDatabase.sol": {
		"StudentDatabase": {
			"abi": [
				{
					"inputs": [
						{
							"internalType": "int256",
							"name": "",
							"type": "int256"
						}
					],
					"name": "studentDatabase",
					"outputs": [
						{
							"internalType": "int256",
							"name": "ID",
							"type": "int256"
						},
						{
							"internalType": "string",
							"name": "firstName",
							"type": "string"
						},
						{
							"internalType": "string",
							"name": "lastName",
							"type": "string"
						}
					],
					"stateMutability": "view",
					"type": "function"
				},
				{
					"inputs": [],
					"name": "studentID",
					"outputs": [
						{
							"internalType": "int256",
							"name": "",
							"type": "int256"
						}
					],
					"stateMutability": "view",
					"type": "function"
				}
			],
			"devdoc": {
				"kind": "dev",
				"methods": {},
				"version": 1
			},
			"evm": {
				"assembly": "    /* \"contracts/_StudentDatabase.sol\":69:343  contract StudentDatabase{\r... */\n  mstore(0x40, 0x80)\n    /* \"contracts/_StudentDatabase.sol\":246:247  0 */\n  0x00\n    /* \"contracts/_StudentDatabase.sol\":223:247  int public studentID = 0 */\n  0x01\n  sstore\n    /* \"contracts/_StudentDatabase.sol\":69:343  contract StudentDatabase{\r... */\n  callvalue\n  dup1\n  iszero\n  tag_1\n  jumpi\n  0x00\n  dup1\n  revert\ntag_1:\n  pop\n  dataSize(sub_0)\n  dup1\n  dataOffset(sub_0)\n  0x00\n  codecopy\n  0x00\n  return\nstop\n\nsub_0: assembly {\n        /* \"contracts/_StudentDatabase.sol\":69:343  contract StudentDatabase{\r... */\n      mstore(0x40, 0x80)\n      callvalue\n      dup1\n      iszero\n      tag_1\n      jumpi\n      0x00\n      dup1\n      revert\n    tag_1:\n      pop\n      jumpi(tag_2, lt(calldatasize, 0x04))\n      shr(0xe0, calldataload(0x00))\n      dup1\n      0x575150b1\n      eq\n      tag_3\n      jumpi\n      dup1\n      0xb7e00013\n      eq\n      tag_4\n      jumpi\n    tag_2:\n      0x00\n      dup1\n      revert\n        /* \"contracts/_StudentDatabase.sol\":254:300  mapping(int => Student) public studentDatabase */\n    tag_3:\n      tag_5\n      0x04\n      dup1\n      calldatasize\n      sub\n      dup2\n      add\n      swap1\n      tag_6\n      swap2\n      swap1\n      tag_7\n      jump\t// in\n    tag_6:\n      tag_8\n      jump\t// in\n    tag_5:\n      mload(0x40)\n      tag_9\n      swap4\n      swap3\n      swap2\n      swap1\n      tag_10\n      jump\t// in\n    tag_9:\n      mload(0x40)\n      dup1\n      swap2\n      sub\n      swap1\n      return\n        /* \"contracts/_StudentDatabase.sol\":223:247  int public studentID = 0 */\n    tag_4:\n      tag_11\n      tag_12\n      jump\t// in\n    tag_11:\n      mload(0x40)\n      tag_13\n      swap2\n      swap1\n      tag_14\n      jump\t// in\n    tag_13:\n      mload(0x40)\n      dup1\n      swap2\n      sub\n      swap1\n      return\n        /* \"contracts/_StudentDatabase.sol\":254:300  mapping(int => Student) public studentDatabase */\n    tag_8:\n      mstore(0x20, 0x02)\n      dup1\n      0x00\n      mstore\n      keccak256(0x00, 0x40)\n      0x00\n      swap2\n      pop\n      swap1\n      pop\n      dup1\n      0x00\n      add\n      sload\n      swap1\n      dup1\n      0x01\n      add\n      dup1\n      sload\n      tag_15\n      swap1\n      tag_16\n      jump\t// in\n    tag_15:\n      dup1\n      0x1f\n      add\n      0x20\n      dup1\n      swap2\n      div\n      mul\n      0x20\n      add\n      mload(0x40)\n      swap1\n      dup2\n      add\n      0x40\n      mstore\n      dup1\n      swap3\n      swap2\n      swap1\n      dup2\n      dup2\n      mstore\n      0x20\n      add\n      dup3\n      dup1\n      sload\n      tag_17\n      swap1\n      tag_16\n      jump\t// in\n    tag_17:\n      dup1\n      iszero\n      tag_18\n      jumpi\n      dup1\n      0x1f\n      lt\n      tag_19\n      jumpi\n      0x0100\n      dup1\n      dup4\n      sload\n      div\n      mul\n      dup4\n      mstore\n      swap2\n      0x20\n      add\n      swap2\n      jump(tag_18)\n    tag_19:\n      dup3\n      add\n      swap2\n      swap1\n      0x00\n      mstore\n      keccak256(0x00, 0x20)\n      swap1\n    tag_20:\n      dup2\n      sload\n      dup2\n      mstore\n      swap1\n      0x01\n      add\n      swap1\n      0x20\n      add\n      dup1\n      dup4\n      gt\n      tag_20\n      jumpi\n      dup3\n      swap1\n      sub\n      0x1f\n      and\n      dup3\n      add\n      swap2\n    tag_18:\n      pop\n      pop\n      pop\n      pop\n      pop\n      swap1\n      dup1\n      0x02\n      add\n      dup1\n      sload\n      tag_21\n      swap1\n      tag_16\n      jump\t// in\n    tag_21:\n      dup1\n      0x1f\n      add\n      0x20\n      dup1\n      swap2\n      div\n      mul\n      0x20\n      add\n      mload(0x40)\n      swap1\n      dup2\n      add\n      0x40\n      mstore\n      dup1\n      swap3\n      swap2\n      swap1\n      dup2\n      dup2\n      mstore\n      0x20\n      add\n      dup3\n      dup1\n      sload\n      tag_22\n      swap1\n      tag_16\n      jump\t// in\n    tag_22:\n      dup1\n      iszero\n      tag_23\n      jumpi\n      dup1\n      0x1f\n      lt\n      tag_24\n      jumpi\n      0x0100\n      dup1\n      dup4\n      sload\n      div\n      mul\n      dup4\n      mstore\n      swap2\n      0x20\n      add\n      swap2\n      jump(tag_23)\n    tag_24:\n      dup3\n      add\n      swap2\n      swap1\n      0x00\n      mstore\n      keccak256(0x00, 0x20)\n      swap1\n    tag_25:\n      dup2\n      sload\n      dup2\n      mstore\n      swap1\n      0x01\n      add\n      swap1\n      0x20\n      add\n      dup1\n      dup4\n      gt\n      tag_25\n      jumpi\n      dup3\n      swap1\n      sub\n      0x1f\n      and\n      dup3\n      add\n      swap2\n    tag_23:\n      pop\n      pop\n      pop\n      pop\n      pop\n      swap1\n      pop\n      dup4\n      jump\t// out\n        /* \"contracts/_StudentDatabase.sol\":223:247  int public studentID = 0 */\n    tag_12:\n      sload(0x01)\n      dup2\n      jump\t// out\n        /* \"#utility.yul\":7:144   */\n    tag_27:\n      0x00\n        /* \"#utility.yul\":90:96   */\n      dup2\n        /* \"#utility.yul\":77:97   */\n      calldataload\n        /* \"#utility.yul\":68:97   */\n      swap1\n      pop\n        /* \"#utility.yul\":106:138   */\n      tag_29\n        /* \"#utility.yul\":132:137   */\n      dup2\n        /* \"#utility.yul\":106:138   */\n      tag_30\n      jump\t// in\n    tag_29:\n        /* \"#utility.yul\":58:144   */\n      swap3\n      swap2\n      pop\n      pop\n      jump\t// out\n        /* \"#utility.yul\":150:410   */\n    tag_7:\n      0x00\n        /* \"#utility.yul\":257:259   */\n      0x20\n        /* \"#utility.yul\":245:254   */\n      dup3\n        /* \"#utility.yul\":236:243   */\n      dup5\n        /* \"#utility.yul\":232:255   */\n      sub\n        /* \"#utility.yul\":228:260   */\n      slt\n        /* \"#utility.yul\":225:227   */\n      iszero\n      tag_32\n      jumpi\n        /* \"#utility.yul\":273:274   */\n      0x00\n        /* \"#utility.yul\":270:271   */\n      dup1\n        /* \"#utility.yul\":263:275   */\n      revert\n        /* \"#utility.yul\":225:227   */\n    tag_32:\n        /* \"#utility.yul\":316:317   */\n      0x00\n        /* \"#utility.yul\":341:393   */\n      tag_33\n        /* \"#utility.yul\":385:392   */\n      dup5\n        /* \"#utility.yul\":376:382   */\n      dup3\n        /* \"#utility.yul\":365:374   */\n      dup6\n        /* \"#utility.yul\":361:383   */\n      add\n        /* \"#utility.yul\":341:393   */\n      tag_27\n      jump\t// in\n    tag_33:\n        /* \"#utility.yul\":331:393   */\n      swap2\n      pop\n        /* \"#utility.yul\":287:403   */\n      pop\n        /* \"#utility.yul\":215:410   */\n      swap3\n      swap2\n      pop\n      pop\n      jump\t// out\n        /* \"#utility.yul\":416:531   */\n    tag_34:\n        /* \"#utility.yul\":501:524   */\n      tag_36\n        /* \"#utility.yul\":518:523   */\n      dup2\n        /* \"#utility.yul\":501:524   */\n      tag_37\n      jump\t// in\n    tag_36:\n        /* \"#utility.yul\":496:499   */\n      dup3\n        /* \"#utility.yul\":489:525   */\n      mstore\n        /* \"#utility.yul\":479:531   */\n      pop\n      pop\n      jump\t// out\n        /* \"#utility.yul\":537:901   */\n    tag_38:\n      0x00\n        /* \"#utility.yul\":653:692   */\n      tag_40\n        /* \"#utility.yul\":686:691   */\n      dup3\n        /* \"#utility.yul\":653:692   */\n      tag_41\n      jump\t// in\n    tag_40:\n        /* \"#utility.yul\":708:779   */\n      tag_42\n        /* \"#utility.yul\":772:778   */\n      dup2\n        /* \"#utility.yul\":767:770   */\n      dup6\n        /* \"#utility.yul\":708:779   */\n      tag_43\n      jump\t// in\n    tag_42:\n        /* \"#utility.yul\":701:779   */\n      swap4\n      pop\n        /* \"#utility.yul\":788:840   */\n      tag_44\n        /* \"#utility.yul\":833:839   */\n      dup2\n        /* \"#utility.yul\":828:831   */\n      dup6\n        /* \"#utility.yul\":821:825   */\n      0x20\n        /* \"#utility.yul\":814:819   */\n      dup7\n        /* \"#utility.yul\":810:826   */\n      add\n        /* \"#utility.yul\":788:840   */\n      tag_45\n      jump\t// in\n    tag_44:\n        /* \"#utility.yul\":865:894   */\n      tag_46\n        /* \"#utility.yul\":887:893   */\n      dup2\n        /* \"#utility.yul\":865:894   */\n      tag_47\n      jump\t// in\n    tag_46:\n        /* \"#utility.yul\":860:863   */\n      dup5\n        /* \"#utility.yul\":856:895   */\n      add\n        /* \"#utility.yul\":849:895   */\n      swap2\n      pop\n        /* \"#utility.yul\":629:901   */\n      pop\n      swap3\n      swap2\n      pop\n      pop\n      jump\t// out\n        /* \"#utility.yul\":907:1125   */\n    tag_14:\n      0x00\n        /* \"#utility.yul\":1036:1038   */\n      0x20\n        /* \"#utility.yul\":1025:1034   */\n      dup3\n        /* \"#utility.yul\":1021:1039   */\n      add\n        /* \"#utility.yul\":1013:1039   */\n      swap1\n      pop\n        /* \"#utility.yul\":1049:1118   */\n      tag_49\n        /* \"#utility.yul\":1115:1116   */\n      0x00\n        /* \"#utility.yul\":1104:1113   */\n      dup4\n        /* \"#utility.yul\":1100:1117   */\n      add\n        /* \"#utility.yul\":1091:1097   */\n      dup5\n        /* \"#utility.yul\":1049:1118   */\n      tag_34\n      jump\t// in\n    tag_49:\n        /* \"#utility.yul\":1003:1125   */\n      swap3\n      swap2\n      pop\n      pop\n      jump\t// out\n        /* \"#utility.yul\":1131:1751   */\n    tag_10:\n      0x00\n        /* \"#utility.yul\":1356:1358   */\n      0x60\n        /* \"#utility.yul\":1345:1354   */\n      dup3\n        /* \"#utility.yul\":1341:1359   */\n      add\n        /* \"#utility.yul\":1333:1359   */\n      swap1\n      pop\n        /* \"#utility.yul\":1369:1438   */\n      tag_51\n        /* \"#utility.yul\":1435:1436   */\n      0x00\n        /* \"#utility.yul\":1424:1433   */\n      dup4\n        /* \"#utility.yul\":1420:1437   */\n      add\n        /* \"#utility.yul\":1411:1417   */\n      dup7\n        /* \"#utility.yul\":1369:1438   */\n      tag_34\n      jump\t// in\n    tag_51:\n        /* \"#utility.yul\":1485:1494   */\n      dup2\n        /* \"#utility.yul\":1479:1483   */\n      dup2\n        /* \"#utility.yul\":1475:1495   */\n      sub\n        /* \"#utility.yul\":1470:1472   */\n      0x20\n        /* \"#utility.yul\":1459:1468   */\n      dup4\n        /* \"#utility.yul\":1455:1473   */\n      add\n        /* \"#utility.yul\":1448:1496   */\n      mstore\n        /* \"#utility.yul\":1513:1591   */\n      tag_52\n        /* \"#utility.yul\":1586:1590   */\n      dup2\n        /* \"#utility.yul\":1577:1583   */\n      dup6\n        /* \"#utility.yul\":1513:1591   */\n      tag_38\n      jump\t// in\n    tag_52:\n        /* \"#utility.yul\":1505:1591   */\n      swap1\n      pop\n        /* \"#utility.yul\":1638:1647   */\n      dup2\n        /* \"#utility.yul\":1632:1636   */\n      dup2\n        /* \"#utility.yul\":1628:1648   */\n      sub\n        /* \"#utility.yul\":1623:1625   */\n      0x40\n        /* \"#utility.yul\":1612:1621   */\n      dup4\n        /* \"#utility.yul\":1608:1626   */\n      add\n        /* \"#utility.yul\":1601:1649   */\n      mstore\n        /* \"#utility.yul\":1666:1744   */\n      tag_53\n        /* \"#utility.yul\":1739:1743   */\n      dup2\n        /* \"#utility.yul\":1730:1736   */\n      dup5\n        /* \"#utility.yul\":1666:1744   */\n      tag_38\n      jump\t// in\n    tag_53:\n        /* \"#utility.yul\":1658:1744   */\n      swap1\n      pop\n        /* \"#utility.yul\":1323:1751   */\n      swap5\n      swap4\n      pop\n      pop\n      pop\n      pop\n      jump\t// out\n        /* \"#utility.yul\":1757:1856   */\n    tag_41:\n      0x00\n        /* \"#utility.yul\":1843:1848   */\n      dup2\n        /* \"#utility.yul\":1837:1849   */\n      mload\n        /* \"#utility.yul\":1827:1849   */\n      swap1\n      pop\n        /* \"#utility.yul\":1816:1856   */\n      swap2\n      swap1\n      pop\n      jump\t// out\n        /* \"#utility.yul\":1862:2031   */\n    tag_43:\n      0x00\n        /* \"#utility.yul\":1980:1986   */\n      dup3\n        /* \"#utility.yul\":1975:1978   */\n      dup3\n        /* \"#utility.yul\":1968:1987   */\n      mstore\n        /* \"#utility.yul\":2020:2024   */\n      0x20\n        /* \"#utility.yul\":2015:2018   */\n      dup3\n        /* \"#utility.yul\":2011:2025   */\n      add\n        /* \"#utility.yul\":1996:2025   */\n      swap1\n      pop\n        /* \"#utility.yul\":1958:2031   */\n      swap3\n      swap2\n      pop\n      pop\n      jump\t// out\n        /* \"#utility.yul\":2037:2113   */\n    tag_37:\n      0x00\n        /* \"#utility.yul\":2102:2107   */\n      dup2\n        /* \"#utility.yul\":2091:2107   */\n      swap1\n      pop\n        /* \"#utility.yul\":2081:2113   */\n      swap2\n      swap1\n      pop\n      jump\t// out\n        /* \"#utility.yul\":2119:2426   */\n    tag_45:\n        /* \"#utility.yul\":2187:2188   */\n      0x00\n        /* \"#utility.yul\":2197:2310   */\n    tag_58:\n        /* \"#utility.yul\":2211:2217   */\n      dup4\n        /* \"#utility.yul\":2208:2209   */\n      dup2\n        /* \"#utility.yul\":2205:2218   */\n      lt\n        /* \"#utility.yul\":2197:2310   */\n      iszero\n      tag_60\n      jumpi\n        /* \"#utility.yul\":2296:2297   */\n      dup1\n        /* \"#utility.yul\":2291:2294   */\n      dup3\n        /* \"#utility.yul\":2287:2298   */\n      add\n        /* \"#utility.yul\":2281:2299   */\n      mload\n        /* \"#utility.yul\":2277:2278   */\n      dup2\n        /* \"#utility.yul\":2272:2275   */\n      dup5\n        /* \"#utility.yul\":2268:2279   */\n      add\n        /* \"#utility.yul\":2261:2300   */\n      mstore\n        /* \"#utility.yul\":2233:2235   */\n      0x20\n        /* \"#utility.yul\":2230:2231   */\n      dup2\n        /* \"#utility.yul\":2226:2236   */\n      add\n        /* \"#utility.yul\":2221:2236   */\n      swap1\n      pop\n        /* \"#utility.yul\":2197:2310   */\n      jump(tag_58)\n    tag_60:\n        /* \"#utility.yul\":2328:2334   */\n      dup4\n        /* \"#utility.yul\":2325:2326   */\n      dup2\n        /* \"#utility.yul\":2322:2335   */\n      gt\n        /* \"#utility.yul\":2319:2321   */\n      iszero\n      tag_61\n      jumpi\n        /* \"#utility.yul\":2408:2409   */\n      0x00\n        /* \"#utility.yul\":2399:2405   */\n      dup5\n        /* \"#utility.yul\":2394:2397   */\n      dup5\n        /* \"#utility.yul\":2390:2406   */\n      add\n        /* \"#utility.yul\":2383:2410   */\n      mstore\n        /* \"#utility.yul\":2319:2321   */\n    tag_61:\n        /* \"#utility.yul\":2168:2426   */\n      pop\n      pop\n      pop\n      pop\n      jump\t// out\n        /* \"#utility.yul\":2432:2752   */\n    tag_16:\n      0x00\n        /* \"#utility.yul\":2513:2514   */\n      0x02\n        /* \"#utility.yul\":2507:2511   */\n      dup3\n        /* \"#utility.yul\":2503:2515   */\n      div\n        /* \"#utility.yul\":2493:2515   */\n      swap1\n      pop\n        /* \"#utility.yul\":2560:2561   */\n      0x01\n        /* \"#utility.yul\":2554:2558   */\n      dup3\n        /* \"#utility.yul\":2550:2562   */\n      and\n        /* \"#utility.yul\":2581:2599   */\n      dup1\n        /* \"#utility.yul\":2571:2573   */\n      tag_63\n      jumpi\n        /* \"#utility.yul\":2637:2641   */\n      0x7f\n        /* \"#utility.yul\":2629:2635   */\n      dup3\n        /* \"#utility.yul\":2625:2642   */\n      and\n        /* \"#utility.yul\":2615:2642   */\n      swap2\n      pop\n        /* \"#utility.yul\":2571:2573   */\n    tag_63:\n        /* \"#utility.yul\":2699:2701   */\n      0x20\n        /* \"#utility.yul\":2691:2697   */\n      dup3\n        /* \"#utility.yul\":2688:2702   */\n      lt\n        /* \"#utility.yul\":2668:2686   */\n      dup2\n        /* \"#utility.yul\":2665:2703   */\n      eq\n        /* \"#utility.yul\":2662:2664   */\n      iszero\n      tag_64\n      jumpi\n        /* \"#utility.yul\":2718:2736   */\n      tag_65\n      tag_66\n      jump\t// in\n    tag_65:\n        /* \"#utility.yul\":2662:2664   */\n    tag_64:\n        /* \"#utility.yul\":2483:2752   */\n      pop\n      swap2\n      swap1\n      pop\n      jump\t// out\n        /* \"#utility.yul\":2758:2938   */\n    tag_66:\n        /* \"#utility.yul\":2806:2883   */\n      0x4e487b7100000000000000000000000000000000000000000000000000000000\n        /* \"#utility.yul\":2803:2804   */\n      0x00\n        /* \"#utility.yul\":2796:2884   */\n      mstore\n        /* \"#utility.yul\":2903:2907   */\n      0x22\n        /* \"#utility.yul\":2900:2901   */\n      0x04\n        /* \"#utility.yul\":2893:2908   */\n      mstore\n        /* \"#utility.yul\":2927:2931   */\n      0x24\n        /* \"#utility.yul\":2924:2925   */\n      0x00\n        /* \"#utility.yul\":2917:2932   */\n      revert\n        /* \"#utility.yul\":2944:3046   */\n    tag_47:\n      0x00\n        /* \"#utility.yul\":3036:3038   */\n      0x1f\n        /* \"#utility.yul\":3032:3039   */\n      not\n        /* \"#utility.yul\":3027:3029   */\n      0x1f\n        /* \"#utility.yul\":3020:3025   */\n      dup4\n        /* \"#utility.yul\":3016:3030   */\n      add\n        /* \"#utility.yul\":3012:3040   */\n      and\n        /* \"#utility.yul\":3002:3040   */\n      swap1\n      pop\n        /* \"#utility.yul\":2992:3046   */\n      swap2\n      swap1\n      pop\n      jump\t// out\n        /* \"#utility.yul\":3052:3172   */\n    tag_30:\n        /* \"#utility.yul\":3124:3147   */\n      tag_70\n        /* \"#utility.yul\":3141:3146   */\n      dup2\n        /* \"#utility.yul\":3124:3147   */\n      tag_37\n      jump\t// in\n    tag_70:\n        /* \"#utility.yul\":3117:3122   */\n      dup2\n        /* \"#utility.yul\":3114:3148   */\n      eq\n        /* \"#utility.yul\":3104:3106   */\n      tag_71\n      jumpi\n        /* \"#utility.yul\":3162:3163   */\n      0x00\n        /* \"#utility.yul\":3159:3160   */\n      dup1\n        /* \"#utility.yul\":3152:3164   */\n      revert\n        /* \"#utility.yul\":3104:3106   */\n    tag_71:\n        /* \"#utility.yul\":3094:3172   */\n      pop\n      jump\t// out\n\n    auxdata: 0xa26469706673582212204c9a38b9d18ecb844b93e62f978dfab8199b25b0200a41729ffbc32bad13517564736f6c63430008000033\n}\n",
				"bytecode": {
					"linkReferences": {},
					"object": "6080604052600060015534801561001557600080fd5b506103c9806100256000396000f3fe608060405234801561001057600080fd5b50600436106100365760003560e01c8063575150b11461003b578063b7e000131461006d575b600080fd5b610055600480360381019061005091906101e0565b61008b565b6040516100649392919061026c565b60405180910390f35b6100756101c5565b6040516100829190610251565b60405180910390f35b60026020528060005260406000206000915090508060000154908060010180546100b49061030a565b80601f01602080910402602001604051908101604052809291908181526020018280546100e09061030a565b801561012d5780601f106101025761010080835404028352916020019161012d565b820191906000526020600020905b81548152906001019060200180831161011057829003601f168201915b5050505050908060020180546101429061030a565b80601f016020809104026020016040519081016040528092919081815260200182805461016e9061030a565b80156101bb5780601f10610190576101008083540402835291602001916101bb565b820191906000526020600020905b81548152906001019060200180831161019e57829003601f168201915b5050505050905083565b60015481565b6000813590506101da8161037c565b92915050565b6000602082840312156101f257600080fd5b6000610200848285016101cb565b91505092915050565b610212816102cd565b82525050565b6000610223826102b1565b61022d81856102bc565b935061023d8185602086016102d7565b6102468161036b565b840191505092915050565b60006020820190506102666000830184610209565b92915050565b60006060820190506102816000830186610209565b81810360208301526102938185610218565b905081810360408301526102a78184610218565b9050949350505050565b600081519050919050565b600082825260208201905092915050565b6000819050919050565b60005b838110156102f55780820151818401526020810190506102da565b83811115610304576000848401525b50505050565b6000600282049050600182168061032257607f821691505b602082108114156103365761033561033c565b5b50919050565b7f4e487b7100000000000000000000000000000000000000000000000000000000600052602260045260246000fd5b6000601f19601f8301169050919050565b610385816102cd565b811461039057600080fd5b5056fea26469706673582212204c9a38b9d18ecb844b93e62f978dfab8199b25b0200a41729ffbc32bad13517564736f6c63430008000033",
					"opcodes": "PUSH1 0x80 PUSH1 0x40 MSTORE PUSH1 0x0 PUSH1 0x1 SSTORE CALLVALUE DUP1 ISZERO PUSH2 0x15 JUMPI PUSH1 0x0 DUP1 REVERT JUMPDEST POP PUSH2 0x3C9 DUP1 PUSH2 0x25 PUSH1 0x0 CODECOPY PUSH1 0x0 RETURN INVALID PUSH1 0x80 PUSH1 0x40 MSTORE CALLVALUE DUP1 ISZERO PUSH2 0x10 JUMPI PUSH1 0x0 DUP1 REVERT JUMPDEST POP PUSH1 0x4 CALLDATASIZE LT PUSH2 0x36 JUMPI PUSH1 0x0 CALLDATALOAD PUSH1 0xE0 SHR DUP1 PUSH4 0x575150B1 EQ PUSH2 0x3B JUMPI DUP1 PUSH4 0xB7E00013 EQ PUSH2 0x6D JUMPI JUMPDEST PUSH1 0x0 DUP1 REVERT JUMPDEST PUSH2 0x55 PUSH1 0x4 DUP1 CALLDATASIZE SUB DUP2 ADD SWAP1 PUSH2 0x50 SWAP2 SWAP1 PUSH2 0x1E0 JUMP JUMPDEST PUSH2 0x8B JUMP JUMPDEST PUSH1 0x40 MLOAD PUSH2 0x64 SWAP4 SWAP3 SWAP2 SWAP1 PUSH2 0x26C JUMP JUMPDEST PUSH1 0x40 MLOAD DUP1 SWAP2 SUB SWAP1 RETURN JUMPDEST PUSH2 0x75 PUSH2 0x1C5 JUMP JUMPDEST PUSH1 0x40 MLOAD PUSH2 0x82 SWAP2 SWAP1 PUSH2 0x251 JUMP JUMPDEST PUSH1 0x40 MLOAD DUP1 SWAP2 SUB SWAP1 RETURN JUMPDEST PUSH1 0x2 PUSH1 0x20 MSTORE DUP1 PUSH1 0x0 MSTORE PUSH1 0x40 PUSH1 0x0 KECCAK256 PUSH1 0x0 SWAP2 POP SWAP1 POP DUP1 PUSH1 0x0 ADD SLOAD SWAP1 DUP1 PUSH1 0x1 ADD DUP1 SLOAD PUSH2 0xB4 SWAP1 PUSH2 0x30A JUMP JUMPDEST DUP1 PUSH1 0x1F ADD PUSH1 0x20 DUP1 SWAP2 DIV MUL PUSH1 0x20 ADD PUSH1 0x40 MLOAD SWAP1 DUP2 ADD PUSH1 0x40 MSTORE DUP1 SWAP3 SWAP2 SWAP1 DUP2 DUP2 MSTORE PUSH1 0x20 ADD DUP3 DUP1 SLOAD PUSH2 0xE0 SWAP1 PUSH2 0x30A JUMP JUMPDEST DUP1 ISZERO PUSH2 0x12D JUMPI DUP1 PUSH1 0x1F LT PUSH2 0x102 JUMPI PUSH2 0x100 DUP1 DUP4 SLOAD DIV MUL DUP4 MSTORE SWAP2 PUSH1 0x20 ADD SWAP2 PUSH2 0x12D JUMP JUMPDEST DUP3 ADD SWAP2 SWAP1 PUSH1 0x0 MSTORE PUSH1 0x20 PUSH1 0x0 KECCAK256 SWAP1 JUMPDEST DUP2 SLOAD DUP2 MSTORE SWAP1 PUSH1 0x1 ADD SWAP1 PUSH1 0x20 ADD DUP1 DUP4 GT PUSH2 0x110 JUMPI DUP3 SWAP1 SUB PUSH1 0x1F AND DUP3 ADD SWAP2 JUMPDEST POP POP POP POP POP SWAP1 DUP1 PUSH1 0x2 ADD DUP1 SLOAD PUSH2 0x142 SWAP1 PUSH2 0x30A JUMP JUMPDEST DUP1 PUSH1 0x1F ADD PUSH1 0x20 DUP1 SWAP2 DIV MUL PUSH1 0x20 ADD PUSH1 0x40 MLOAD SWAP1 DUP2 ADD PUSH1 0x40 MSTORE DUP1 SWAP3 SWAP2 SWAP1 DUP2 DUP2 MSTORE PUSH1 0x20 ADD DUP3 DUP1 SLOAD PUSH2 0x16E SWAP1 PUSH2 0x30A JUMP JUMPDEST DUP1 ISZERO PUSH2 0x1BB JUMPI DUP1 PUSH1 0x1F LT PUSH2 0x190 JUMPI PUSH2 0x100 DUP1 DUP4 SLOAD DIV MUL DUP4 MSTORE SWAP2 PUSH1 0x20 ADD SWAP2 PUSH2 0x1BB JUMP JUMPDEST DUP3 ADD SWAP2 SWAP1 PUSH1 0x0 MSTORE PUSH1 0x20 PUSH1 0x0 KECCAK256 SWAP1 JUMPDEST DUP2 SLOAD DUP2 MSTORE SWAP1 PUSH1 0x1 ADD SWAP1 PUSH1 0x20 ADD DUP1 DUP4 GT PUSH2 0x19E JUMPI DUP3 SWAP1 SUB PUSH1 0x1F AND DUP3 ADD SWAP2 JUMPDEST POP POP POP POP POP SWAP1 POP DUP4 JUMP JUMPDEST PUSH1 0x1 SLOAD DUP2 JUMP JUMPDEST PUSH1 0x0 DUP2 CALLDATALOAD SWAP1 POP PUSH2 0x1DA DUP2 PUSH2 0x37C JUMP JUMPDEST SWAP3 SWAP2 POP POP JUMP JUMPDEST PUSH1 0x0 PUSH1 0x20 DUP3 DUP5 SUB SLT ISZERO PUSH2 0x1F2 JUMPI PUSH1 0x0 DUP1 REVERT JUMPDEST PUSH1 0x0 PUSH2 0x200 DUP5 DUP3 DUP6 ADD PUSH2 0x1CB JUMP JUMPDEST SWAP2 POP POP SWAP3 SWAP2 POP POP JUMP JUMPDEST PUSH2 0x212 DUP2 PUSH2 0x2CD JUMP JUMPDEST DUP3 MSTORE POP POP JUMP JUMPDEST PUSH1 0x0 PUSH2 0x223 DUP3 PUSH2 0x2B1 JUMP JUMPDEST PUSH2 0x22D DUP2 DUP6 PUSH2 0x2BC JUMP JUMPDEST SWAP4 POP PUSH2 0x23D DUP2 DUP6 PUSH1 0x20 DUP7 ADD PUSH2 0x2D7 JUMP JUMPDEST PUSH2 0x246 DUP2 PUSH2 0x36B JUMP JUMPDEST DUP5 ADD SWAP2 POP POP SWAP3 SWAP2 POP POP JUMP JUMPDEST PUSH1 0x0 PUSH1 0x20 DUP3 ADD SWAP1 POP PUSH2 0x266 PUSH1 0x0 DUP4 ADD DUP5 PUSH2 0x209 JUMP JUMPDEST SWAP3 SWAP2 POP POP JUMP JUMPDEST PUSH1 0x0 PUSH1 0x60 DUP3 ADD SWAP1 POP PUSH2 0x281 PUSH1 0x0 DUP4 ADD DUP7 PUSH2 0x209 JUMP JUMPDEST DUP2 DUP2 SUB PUSH1 0x20 DUP4 ADD MSTORE PUSH2 0x293 DUP2 DUP6 PUSH2 0x218 JUMP JUMPDEST SWAP1 POP DUP2 DUP2 SUB PUSH1 0x40 DUP4 ADD MSTORE PUSH2 0x2A7 DUP2 DUP5 PUSH2 0x218 JUMP JUMPDEST SWAP1 POP SWAP5 SWAP4 POP POP POP POP JUMP JUMPDEST PUSH1 0x0 DUP2 MLOAD SWAP1 POP SWAP2 SWAP1 POP JUMP JUMPDEST PUSH1 0x0 DUP3 DUP3 MSTORE PUSH1 0x20 DUP3 ADD SWAP1 POP SWAP3 SWAP2 POP POP JUMP JUMPDEST PUSH1 0x0 DUP2 SWAP1 POP SWAP2 SWAP1 POP JUMP JUMPDEST PUSH1 0x0 JUMPDEST DUP4 DUP2 LT ISZERO PUSH2 0x2F5 JUMPI DUP1 DUP3 ADD MLOAD DUP2 DUP5 ADD MSTORE PUSH1 0x20 DUP2 ADD SWAP1 POP PUSH2 0x2DA JUMP JUMPDEST DUP4 DUP2 GT ISZERO PUSH2 0x304 JUMPI PUSH1 0x0 DUP5 DUP5 ADD MSTORE JUMPDEST POP POP POP POP JUMP JUMPDEST PUSH1 0x0 PUSH1 0x2 DUP3 DIV SWAP1 POP PUSH1 0x1 DUP3 AND DUP1 PUSH2 0x322 JUMPI PUSH1 0x7F DUP3 AND SWAP2 POP JUMPDEST PUSH1 0x20 DUP3 LT DUP2 EQ ISZERO PUSH2 0x336 JUMPI PUSH2 0x335 PUSH2 0x33C JUMP JUMPDEST JUMPDEST POP SWAP2 SWAP1 POP JUMP JUMPDEST PUSH32 0x4E487B7100000000000000000000000000000000000000000000000000000000 PUSH1 0x0 MSTORE PUSH1 0x22 PUSH1 0x4 MSTORE PUSH1 0x24 PUSH1 0x0 REVERT JUMPDEST PUSH1 0x0 PUSH1 0x1F NOT PUSH1 0x1F DUP4 ADD AND SWAP1 POP SWAP2 SWAP1 POP JUMP JUMPDEST PUSH2 0x385 DUP2 PUSH2 0x2CD JUMP JUMPDEST DUP2 EQ PUSH2 0x390 JUMPI PUSH1 0x0 DUP1 REVERT JUMPDEST POP JUMP INVALID LOG2 PUSH5 0x6970667358 0x22 SLT KECCAK256 0x4C SWAP11 CODESIZE 0xB9 0xD1 DUP15 0xCB DUP5 0x4B SWAP4 0xE6 0x2F SWAP8 DUP14 STATICCALL 0xB8 NOT SWAP12 0x25 0xB0 KECCAK256 EXP COINBASE PUSH19 0x9FFBC32BAD13517564736F6C63430008000033 "
				},
				"gasEstimates": {
					"creation": {
						"codeDepositCost": "193800",
						"executionCost": "5244",
						"totalCost": "199044"
					},
					"external": {
						"studentDatabase(int256)": "infinite",
						"studentID()": "1129"
					}
				},
				"methodIdentifiers": {
					"studentDatabase(int256)": "575150b1",
					"studentID()": "b7e00013"
				}
			},
			"storageLayout": {
				"storage": [
					{
						"astId": 10,
						"contract": "contracts/_StudentDatabase.sol:StudentDatabase",
						"label": "owner",
						"offset": 0,
						"slot": "0",
						"type": "t_address"
					},
					{
						"astId": 13,
						"contract": "contracts/_StudentDatabase.sol:StudentDatabase",
						"label": "studentID",
						"offset": 0,
						"slot": "1",
						"type": "t_int256"
					},
					{
						"astId": 18,
						"contract": "contracts/_StudentDatabase.sol:StudentDatabase",
						"label": "studentDatabase",
						"offset": 0,
						"slot": "2",
						"type": "t_mapping(t_int256,t_struct(Student)8_storage)"
					}
				],
				"types": {
					"t_address": {
						"encoding": "inplace",
						"label": "address",
						"numberOfBytes": "20"
					},
					"t_int256": {
						"encoding": "inplace",
						"label": "int256",
						"numberOfBytes": "32"
					},
					"t_mapping(t_int256,t_struct(Student)8_storage)": {
						"encoding": "mapping",
						"key": "t_int256",
						"label": "mapping(int256 => struct StudentDatabase.Student)",
						"numberOfBytes": "32",
						"value": "t_struct(Student)8_storage"
					},
					"t_string_storage": {
						"encoding": "bytes",
						"label": "string",
						"numberOfBytes": "32"
					},
					"t_struct(Student)8_storage": {
						"encoding": "inplace",
						"label": "struct StudentDatabase.Student",
						"members": [
							{
								"astId": 3,
								"contract": "contracts/_StudentDatabase.sol:StudentDatabase",
								"label": "ID",
								"offset": 0,
								"slot": "0",
								"type": "t_int256"
							},
							{
								"astId": 5,
								"contract": "contracts/_StudentDatabase.sol:StudentDatabase",
								"label": "firstName",
								"offset": 0,
								"slot": "1",
								"type": "t_string_storage"
							},
							{
								"astId": 7,
								"contract": "contracts/_StudentDatabase.sol:StudentDatabase",
								"label": "lastName",
								"offset": 0,
								"slot": "2",
								"type": "t_string_storage"
							}
						],
						"numberOfBytes": "96"
					}
				}
			},
			"userdoc": {
				"kind": "user",
				"methods": {},
				"version": 1
			}
		}
	}
}