{
	"contracts/_StudentDatabase.sol": {
		"StudentDatabase": {
			"abi": [
				{
					"inputs": [
						{
							"internalType": "int256",
							"name": "_ID",
							"type": "int256"
						},
						{
							"internalType": "string",
							"name": "_firstName",
							"type": "string"
						},
						{
							"internalType": "string",
							"name": "_lastName",
							"type": "string"
						}
					],
					"name": "addNewStudents",
					"outputs": [],
					"stateMutability": "nonpayable",
					"type": "function"
				},
				{
					"inputs": [
						{
							"internalType": "int256",
							"name": "",
							"type": "int256"
						}
					],
					"name": "studentDatabase",
					"outputs": [
						{
							"internalType": "int256",
							"name": "ID",
							"type": "int256"
						},
						{
							"internalType": "string",
							"name": "firstName",
							"type": "string"
						},
						{
							"internalType": "string",
							"name": "lastName",
							"type": "string"
						}
					],
					"stateMutability": "view",
					"type": "function"
				},
				{
					"inputs": [],
					"name": "studentID",
					"outputs": [
						{
							"internalType": "int256",
							"name": "",
							"type": "int256"
						}
					],
					"stateMutability": "view",
					"type": "function"
				}
			],
			"devdoc": {
				"kind": "dev",
				"methods": {},
				"version": 1
			},
			"evm": {
				"assembly": "    /* \"contracts/_StudentDatabase.sol\":69:485  contract StudentDatabase{\r... */\n  mstore(0x40, 0x80)\n    /* \"contracts/_StudentDatabase.sol\":246:247  0 */\n  0x00\n    /* \"contracts/_StudentDatabase.sol\":223:247  int public studentID = 0 */\n  0x01\n  sstore\n    /* \"contracts/_StudentDatabase.sol\":69:485  contract StudentDatabase{\r... */\n  callvalue\n  dup1\n  iszero\n  tag_1\n  jumpi\n  0x00\n  dup1\n  revert\ntag_1:\n  pop\n  dataSize(sub_0)\n  dup1\n  dataOffset(sub_0)\n  0x00\n  codecopy\n  0x00\n  return\nstop\n\nsub_0: assembly {\n        /* \"contracts/_StudentDatabase.sol\":69:485  contract StudentDatabase{\r... */\n      mstore(0x40, 0x80)\n      callvalue\n      dup1\n      iszero\n      tag_1\n      jumpi\n      0x00\n      dup1\n      revert\n    tag_1:\n      pop\n      jumpi(tag_2, lt(calldatasize, 0x04))\n      shr(0xe0, calldataload(0x00))\n      dup1\n      0x575150b1\n      eq\n      tag_3\n      jumpi\n      dup1\n      0x8306c10b\n      eq\n      tag_4\n      jumpi\n      dup1\n      0xb7e00013\n      eq\n      tag_5\n      jumpi\n    tag_2:\n      0x00\n      dup1\n      revert\n        /* \"contracts/_StudentDatabase.sol\":254:300  mapping(int => Student) public studentDatabase */\n    tag_3:\n      tag_6\n      0x04\n      dup1\n      calldatasize\n      sub\n      dup2\n      add\n      swap1\n      tag_7\n      swap2\n      swap1\n      tag_8\n      jump\t// in\n    tag_7:\n      tag_9\n      jump\t// in\n    tag_6:\n      mload(0x40)\n      tag_10\n      swap4\n      swap3\n      swap2\n      swap1\n      tag_11\n      jump\t// in\n    tag_10:\n      mload(0x40)\n      dup1\n      swap2\n      sub\n      swap1\n      return\n        /* \"contracts/_StudentDatabase.sol\":348:476  function addNewStudents(int _ID, string memory _firstName, string memory _lastName) public {\r... */\n    tag_4:\n      tag_12\n      0x04\n      dup1\n      calldatasize\n      sub\n      dup2\n      add\n      swap1\n      tag_13\n      swap2\n      swap1\n      tag_14\n      jump\t// in\n    tag_13:\n      tag_15\n      jump\t// in\n    tag_12:\n      stop\n        /* \"contracts/_StudentDatabase.sol\":223:247  int public studentID = 0 */\n    tag_5:\n      tag_16\n      tag_17\n      jump\t// in\n    tag_16:\n      mload(0x40)\n      tag_18\n      swap2\n      swap1\n      tag_19\n      jump\t// in\n    tag_18:\n      mload(0x40)\n      dup1\n      swap2\n      sub\n      swap1\n      return\n        /* \"contracts/_StudentDatabase.sol\":254:300  mapping(int => Student) public studentDatabase */\n    tag_9:\n      mstore(0x20, 0x02)\n      dup1\n      0x00\n      mstore\n      keccak256(0x00, 0x40)\n      0x00\n      swap2\n      pop\n      swap1\n      pop\n      dup1\n      0x00\n      add\n      sload\n      swap1\n      dup1\n      0x01\n      add\n      dup1\n      sload\n      tag_20\n      swap1\n      tag_21\n      jump\t// in\n    tag_20:\n      dup1\n      0x1f\n      add\n      0x20\n      dup1\n      swap2\n      div\n      mul\n      0x20\n      add\n      mload(0x40)\n      swap1\n      dup2\n      add\n      0x40\n      mstore\n      dup1\n      swap3\n      swap2\n      swap1\n      dup2\n      dup2\n      mstore\n      0x20\n      add\n      dup3\n      dup1\n      sload\n      tag_22\n      swap1\n      tag_21\n      jump\t// in\n    tag_22:\n      dup1\n      iszero\n      tag_23\n      jumpi\n      dup1\n      0x1f\n      lt\n      tag_24\n      jumpi\n      0x0100\n      dup1\n      dup4\n      sload\n      div\n      mul\n      dup4\n      mstore\n      swap2\n      0x20\n      add\n      swap2\n      jump(tag_23)\n    tag_24:\n      dup3\n      add\n      swap2\n      swap1\n      0x00\n      mstore\n      keccak256(0x00, 0x20)\n      swap1\n    tag_25:\n      dup2\n      sload\n      dup2\n      mstore\n      swap1\n      0x01\n      add\n      swap1\n      0x20\n      add\n      dup1\n      dup4\n      gt\n      tag_25\n      jumpi\n      dup3\n      swap1\n      sub\n      0x1f\n      and\n      dup3\n      add\n      swap2\n    tag_23:\n      pop\n      pop\n      pop\n      pop\n      pop\n      swap1\n      dup1\n      0x02\n      add\n      dup1\n      sload\n      tag_26\n      swap1\n      tag_21\n      jump\t// in\n    tag_26:\n      dup1\n      0x1f\n      add\n      0x20\n      dup1\n      swap2\n      div\n      mul\n      0x20\n      add\n      mload(0x40)\n      swap1\n      dup2\n      add\n      0x40\n      mstore\n      dup1\n      swap3\n      swap2\n      swap1\n      dup2\n      dup2\n      mstore\n      0x20\n      add\n      dup3\n      dup1\n      sload\n      tag_27\n      swap1\n      tag_21\n      jump\t// in\n    tag_27:\n      dup1\n      iszero\n      tag_28\n      jumpi\n      dup1\n      0x1f\n      lt\n      tag_29\n      jumpi\n      0x0100\n      dup1\n      dup4\n      sload\n      div\n      mul\n      dup4\n      mstore\n      swap2\n      0x20\n      add\n      swap2\n      jump(tag_28)\n    tag_29:\n      dup3\n      add\n      swap2\n      swap1\n      0x00\n      mstore\n      keccak256(0x00, 0x20)\n      swap1\n    tag_30:\n      dup2\n      sload\n      dup2\n      mstore\n      swap1\n      0x01\n      add\n      swap1\n      0x20\n      add\n      dup1\n      dup4\n      gt\n      tag_30\n      jumpi\n      dup3\n      swap1\n      sub\n      0x1f\n      and\n      dup3\n      add\n      swap2\n    tag_28:\n      pop\n      pop\n      pop\n      pop\n      pop\n      swap1\n      pop\n      dup4\n      jump\t// out\n        /* \"contracts/_StudentDatabase.sol\":348:476  function addNewStudents(int _ID, string memory _firstName, string memory _lastName) public {\r... */\n    tag_15:\n      pop\n      pop\n      pop\n      jump\t// out\n        /* \"contracts/_StudentDatabase.sol\":223:247  int public studentID = 0 */\n    tag_17:\n      sload(0x01)\n      dup2\n      jump\t// out\n        /* \"#utility.yul\":7:351   */\n    tag_33:\n      0x00\n        /* \"#utility.yul\":110:175   */\n      tag_35\n        /* \"#utility.yul\":125:174   */\n      tag_36\n        /* \"#utility.yul\":167:173   */\n      dup5\n        /* \"#utility.yul\":125:174   */\n      tag_37\n      jump\t// in\n    tag_36:\n        /* \"#utility.yul\":110:175   */\n      tag_38\n      jump\t// in\n    tag_35:\n        /* \"#utility.yul\":101:175   */\n      swap1\n      pop\n        /* \"#utility.yul\":198:204   */\n      dup3\n        /* \"#utility.yul\":191:196   */\n      dup2\n        /* \"#utility.yul\":184:205   */\n      mstore\n        /* \"#utility.yul\":236:240   */\n      0x20\n        /* \"#utility.yul\":229:234   */\n      dup2\n        /* \"#utility.yul\":225:241   */\n      add\n        /* \"#utility.yul\":274:277   */\n      dup5\n        /* \"#utility.yul\":265:271   */\n      dup5\n        /* \"#utility.yul\":260:263   */\n      dup5\n        /* \"#utility.yul\":256:272   */\n      add\n        /* \"#utility.yul\":253:278   */\n      gt\n        /* \"#utility.yul\":250:252   */\n      iszero\n      tag_39\n      jumpi\n        /* \"#utility.yul\":291:292   */\n      0x00\n        /* \"#utility.yul\":288:289   */\n      dup1\n        /* \"#utility.yul\":281:293   */\n      revert\n        /* \"#utility.yul\":250:252   */\n    tag_39:\n        /* \"#utility.yul\":304:345   */\n      tag_40\n        /* \"#utility.yul\":338:344   */\n      dup5\n        /* \"#utility.yul\":333:336   */\n      dup3\n        /* \"#utility.yul\":328:331   */\n      dup6\n        /* \"#utility.yul\":304:345   */\n      tag_41\n      jump\t// in\n    tag_40:\n        /* \"#utility.yul\":91:351   */\n      pop\n      swap4\n      swap3\n      pop\n      pop\n      pop\n      jump\t// out\n        /* \"#utility.yul\":357:494   */\n    tag_42:\n      0x00\n        /* \"#utility.yul\":440:446   */\n      dup2\n        /* \"#utility.yul\":427:447   */\n      calldataload\n        /* \"#utility.yul\":418:447   */\n      swap1\n      pop\n        /* \"#utility.yul\":456:488   */\n      tag_44\n        /* \"#utility.yul\":482:487   */\n      dup2\n        /* \"#utility.yul\":456:488   */\n      tag_45\n      jump\t// in\n    tag_44:\n        /* \"#utility.yul\":408:494   */\n      swap3\n      swap2\n      pop\n      pop\n      jump\t// out\n        /* \"#utility.yul\":514:787   */\n    tag_46:\n      0x00\n        /* \"#utility.yul\":619:622   */\n      dup3\n        /* \"#utility.yul\":612:616   */\n      0x1f\n        /* \"#utility.yul\":604:610   */\n      dup4\n        /* \"#utility.yul\":600:617   */\n      add\n        /* \"#utility.yul\":596:623   */\n      slt\n        /* \"#utility.yul\":586:588   */\n      tag_48\n      jumpi\n        /* \"#utility.yul\":637:638   */\n      0x00\n        /* \"#utility.yul\":634:635   */\n      dup1\n        /* \"#utility.yul\":627:639   */\n      revert\n        /* \"#utility.yul\":586:588   */\n    tag_48:\n        /* \"#utility.yul\":677:683   */\n      dup2\n        /* \"#utility.yul\":664:684   */\n      calldataload\n        /* \"#utility.yul\":702:781   */\n      tag_49\n        /* \"#utility.yul\":777:780   */\n      dup5\n        /* \"#utility.yul\":769:775   */\n      dup3\n        /* \"#utility.yul\":762:766   */\n      0x20\n        /* \"#utility.yul\":754:760   */\n      dup7\n        /* \"#utility.yul\":750:767   */\n      add\n        /* \"#utility.yul\":702:781   */\n      tag_33\n      jump\t// in\n    tag_49:\n        /* \"#utility.yul\":693:781   */\n      swap2\n      pop\n        /* \"#utility.yul\":576:787   */\n      pop\n      swap3\n      swap2\n      pop\n      pop\n      jump\t// out\n        /* \"#utility.yul\":793:1053   */\n    tag_8:\n      0x00\n        /* \"#utility.yul\":900:902   */\n      0x20\n        /* \"#utility.yul\":888:897   */\n      dup3\n        /* \"#utility.yul\":879:886   */\n      dup5\n        /* \"#utility.yul\":875:898   */\n      sub\n        /* \"#utility.yul\":871:903   */\n      slt\n        /* \"#utility.yul\":868:870   */\n      iszero\n      tag_51\n      jumpi\n        /* \"#utility.yul\":916:917   */\n      0x00\n        /* \"#utility.yul\":913:914   */\n      dup1\n        /* \"#utility.yul\":906:918   */\n      revert\n        /* \"#utility.yul\":868:870   */\n    tag_51:\n        /* \"#utility.yul\":959:960   */\n      0x00\n        /* \"#utility.yul\":984:1036   */\n      tag_52\n        /* \"#utility.yul\":1028:1035   */\n      dup5\n        /* \"#utility.yul\":1019:1025   */\n      dup3\n        /* \"#utility.yul\":1008:1017   */\n      dup6\n        /* \"#utility.yul\":1004:1026   */\n      add\n        /* \"#utility.yul\":984:1036   */\n      tag_42\n      jump\t// in\n    tag_52:\n        /* \"#utility.yul\":974:1036   */\n      swap2\n      pop\n        /* \"#utility.yul\":930:1046   */\n      pop\n        /* \"#utility.yul\":858:1053   */\n      swap3\n      swap2\n      pop\n      pop\n      jump\t// out\n        /* \"#utility.yul\":1059:1835   */\n    tag_14:\n      0x00\n      dup1\n      0x00\n        /* \"#utility.yul\":1220:1222   */\n      0x60\n        /* \"#utility.yul\":1208:1217   */\n      dup5\n        /* \"#utility.yul\":1199:1206   */\n      dup7\n        /* \"#utility.yul\":1195:1218   */\n      sub\n        /* \"#utility.yul\":1191:1223   */\n      slt\n        /* \"#utility.yul\":1188:1190   */\n      iszero\n      tag_54\n      jumpi\n        /* \"#utility.yul\":1236:1237   */\n      0x00\n        /* \"#utility.yul\":1233:1234   */\n      dup1\n        /* \"#utility.yul\":1226:1238   */\n      revert\n        /* \"#utility.yul\":1188:1190   */\n    tag_54:\n        /* \"#utility.yul\":1279:1280   */\n      0x00\n        /* \"#utility.yul\":1304:1356   */\n      tag_55\n        /* \"#utility.yul\":1348:1355   */\n      dup7\n        /* \"#utility.yul\":1339:1345   */\n      dup3\n        /* \"#utility.yul\":1328:1337   */\n      dup8\n        /* \"#utility.yul\":1324:1346   */\n      add\n        /* \"#utility.yul\":1304:1356   */\n      tag_42\n      jump\t// in\n    tag_55:\n        /* \"#utility.yul\":1294:1356   */\n      swap4\n      pop\n        /* \"#utility.yul\":1250:1366   */\n      pop\n        /* \"#utility.yul\":1433:1435   */\n      0x20\n        /* \"#utility.yul\":1422:1431   */\n      dup5\n        /* \"#utility.yul\":1418:1436   */\n      add\n        /* \"#utility.yul\":1405:1437   */\n      calldataload\n        /* \"#utility.yul\":1464:1482   */\n      0xffffffffffffffff\n        /* \"#utility.yul\":1456:1462   */\n      dup2\n        /* \"#utility.yul\":1453:1483   */\n      gt\n        /* \"#utility.yul\":1450:1452   */\n      iszero\n      tag_56\n      jumpi\n        /* \"#utility.yul\":1496:1497   */\n      0x00\n        /* \"#utility.yul\":1493:1494   */\n      dup1\n        /* \"#utility.yul\":1486:1498   */\n      revert\n        /* \"#utility.yul\":1450:1452   */\n    tag_56:\n        /* \"#utility.yul\":1524:1587   */\n      tag_57\n        /* \"#utility.yul\":1579:1586   */\n      dup7\n        /* \"#utility.yul\":1570:1576   */\n      dup3\n        /* \"#utility.yul\":1559:1568   */\n      dup8\n        /* \"#utility.yul\":1555:1577   */\n      add\n        /* \"#utility.yul\":1524:1587   */\n      tag_46\n      jump\t// in\n    tag_57:\n        /* \"#utility.yul\":1514:1587   */\n      swap3\n      pop\n        /* \"#utility.yul\":1376:1597   */\n      pop\n        /* \"#utility.yul\":1664:1666   */\n      0x40\n        /* \"#utility.yul\":1653:1662   */\n      dup5\n        /* \"#utility.yul\":1649:1667   */\n      add\n        /* \"#utility.yul\":1636:1668   */\n      calldataload\n        /* \"#utility.yul\":1695:1713   */\n      0xffffffffffffffff\n        /* \"#utility.yul\":1687:1693   */\n      dup2\n        /* \"#utility.yul\":1684:1714   */\n      gt\n        /* \"#utility.yul\":1681:1683   */\n      iszero\n      tag_58\n      jumpi\n        /* \"#utility.yul\":1727:1728   */\n      0x00\n        /* \"#utility.yul\":1724:1725   */\n      dup1\n        /* \"#utility.yul\":1717:1729   */\n      revert\n        /* \"#utility.yul\":1681:1683   */\n    tag_58:\n        /* \"#utility.yul\":1755:1818   */\n      tag_59\n        /* \"#utility.yul\":1810:1817   */\n      dup7\n        /* \"#utility.yul\":1801:1807   */\n      dup3\n        /* \"#utility.yul\":1790:1799   */\n      dup8\n        /* \"#utility.yul\":1786:1808   */\n      add\n        /* \"#utility.yul\":1755:1818   */\n      tag_46\n      jump\t// in\n    tag_59:\n        /* \"#utility.yul\":1745:1818   */\n      swap2\n      pop\n        /* \"#utility.yul\":1607:1828   */\n      pop\n        /* \"#utility.yul\":1178:1835   */\n      swap3\n      pop\n      swap3\n      pop\n      swap3\n      jump\t// out\n        /* \"#utility.yul\":1841:1956   */\n    tag_60:\n        /* \"#utility.yul\":1926:1949   */\n      tag_62\n        /* \"#utility.yul\":1943:1948   */\n      dup2\n        /* \"#utility.yul\":1926:1949   */\n      tag_63\n      jump\t// in\n    tag_62:\n        /* \"#utility.yul\":1921:1924   */\n      dup3\n        /* \"#utility.yul\":1914:1950   */\n      mstore\n        /* \"#utility.yul\":1904:1956   */\n      pop\n      pop\n      jump\t// out\n        /* \"#utility.yul\":1962:2326   */\n    tag_64:\n      0x00\n        /* \"#utility.yul\":2078:2117   */\n      tag_66\n        /* \"#utility.yul\":2111:2116   */\n      dup3\n        /* \"#utility.yul\":2078:2117   */\n      tag_67\n      jump\t// in\n    tag_66:\n        /* \"#utility.yul\":2133:2204   */\n      tag_68\n        /* \"#utility.yul\":2197:2203   */\n      dup2\n        /* \"#utility.yul\":2192:2195   */\n      dup6\n        /* \"#utility.yul\":2133:2204   */\n      tag_69\n      jump\t// in\n    tag_68:\n        /* \"#utility.yul\":2126:2204   */\n      swap4\n      pop\n        /* \"#utility.yul\":2213:2265   */\n      tag_70\n        /* \"#utility.yul\":2258:2264   */\n      dup2\n        /* \"#utility.yul\":2253:2256   */\n      dup6\n        /* \"#utility.yul\":2246:2250   */\n      0x20\n        /* \"#utility.yul\":2239:2244   */\n      dup7\n        /* \"#utility.yul\":2235:2251   */\n      add\n        /* \"#utility.yul\":2213:2265   */\n      tag_71\n      jump\t// in\n    tag_70:\n        /* \"#utility.yul\":2290:2319   */\n      tag_72\n        /* \"#utility.yul\":2312:2318   */\n      dup2\n        /* \"#utility.yul\":2290:2319   */\n      tag_73\n      jump\t// in\n    tag_72:\n        /* \"#utility.yul\":2285:2288   */\n      dup5\n        /* \"#utility.yul\":2281:2320   */\n      add\n        /* \"#utility.yul\":2274:2320   */\n      swap2\n      pop\n        /* \"#utility.yul\":2054:2326   */\n      pop\n      swap3\n      swap2\n      pop\n      pop\n      jump\t// out\n        /* \"#utility.yul\":2332:2550   */\n    tag_19:\n      0x00\n        /* \"#utility.yul\":2461:2463   */\n      0x20\n        /* \"#utility.yul\":2450:2459   */\n      dup3\n        /* \"#utility.yul\":2446:2464   */\n      add\n        /* \"#utility.yul\":2438:2464   */\n      swap1\n      pop\n        /* \"#utility.yul\":2474:2543   */\n      tag_75\n        /* \"#utility.yul\":2540:2541   */\n      0x00\n        /* \"#utility.yul\":2529:2538   */\n      dup4\n        /* \"#utility.yul\":2525:2542   */\n      add\n        /* \"#utility.yul\":2516:2522   */\n      dup5\n        /* \"#utility.yul\":2474:2543   */\n      tag_60\n      jump\t// in\n    tag_75:\n        /* \"#utility.yul\":2428:2550   */\n      swap3\n      swap2\n      pop\n      pop\n      jump\t// out\n        /* \"#utility.yul\":2556:3176   */\n    tag_11:\n      0x00\n        /* \"#utility.yul\":2781:2783   */\n      0x60\n        /* \"#utility.yul\":2770:2779   */\n      dup3\n        /* \"#utility.yul\":2766:2784   */\n      add\n        /* \"#utility.yul\":2758:2784   */\n      swap1\n      pop\n        /* \"#utility.yul\":2794:2863   */\n      tag_77\n        /* \"#utility.yul\":2860:2861   */\n      0x00\n        /* \"#utility.yul\":2849:2858   */\n      dup4\n        /* \"#utility.yul\":2845:2862   */\n      add\n        /* \"#utility.yul\":2836:2842   */\n      dup7\n        /* \"#utility.yul\":2794:2863   */\n      tag_60\n      jump\t// in\n    tag_77:\n        /* \"#utility.yul\":2910:2919   */\n      dup2\n        /* \"#utility.yul\":2904:2908   */\n      dup2\n        /* \"#utility.yul\":2900:2920   */\n      sub\n        /* \"#utility.yul\":2895:2897   */\n      0x20\n        /* \"#utility.yul\":2884:2893   */\n      dup4\n        /* \"#utility.yul\":2880:2898   */\n      add\n        /* \"#utility.yul\":2873:2921   */\n      mstore\n        /* \"#utility.yul\":2938:3016   */\n      tag_78\n        /* \"#utility.yul\":3011:3015   */\n      dup2\n        /* \"#utility.yul\":3002:3008   */\n      dup6\n        /* \"#utility.yul\":2938:3016   */\n      tag_64\n      jump\t// in\n    tag_78:\n        /* \"#utility.yul\":2930:3016   */\n      swap1\n      pop\n        /* \"#utility.yul\":3063:3072   */\n      dup2\n        /* \"#utility.yul\":3057:3061   */\n      dup2\n        /* \"#utility.yul\":3053:3073   */\n      sub\n        /* \"#utility.yul\":3048:3050   */\n      0x40\n        /* \"#utility.yul\":3037:3046   */\n      dup4\n        /* \"#utility.yul\":3033:3051   */\n      add\n        /* \"#utility.yul\":3026:3074   */\n      mstore\n        /* \"#utility.yul\":3091:3169   */\n      tag_79\n        /* \"#utility.yul\":3164:3168   */\n      dup2\n        /* \"#utility.yul\":3155:3161   */\n      dup5\n        /* \"#utility.yul\":3091:3169   */\n      tag_64\n      jump\t// in\n    tag_79:\n        /* \"#utility.yul\":3083:3169   */\n      swap1\n      pop\n        /* \"#utility.yul\":2748:3176   */\n      swap5\n      swap4\n      pop\n      pop\n      pop\n      pop\n      jump\t// out\n        /* \"#utility.yul\":3182:3465   */\n    tag_38:\n      0x00\n        /* \"#utility.yul\":3248:3250   */\n      0x40\n        /* \"#utility.yul\":3242:3251   */\n      mload\n        /* \"#utility.yul\":3232:3251   */\n      swap1\n      pop\n        /* \"#utility.yul\":3290:3294   */\n      dup2\n        /* \"#utility.yul\":3282:3288   */\n      dup2\n        /* \"#utility.yul\":3278:3295   */\n      add\n        /* \"#utility.yul\":3397:3403   */\n      dup2\n        /* \"#utility.yul\":3385:3395   */\n      dup2\n        /* \"#utility.yul\":3382:3404   */\n      lt\n        /* \"#utility.yul\":3361:3379   */\n      0xffffffffffffffff\n        /* \"#utility.yul\":3349:3359   */\n      dup3\n        /* \"#utility.yul\":3346:3380   */\n      gt\n        /* \"#utility.yul\":3343:3405   */\n      or\n        /* \"#utility.yul\":3340:3342   */\n      iszero\n      tag_81\n      jumpi\n        /* \"#utility.yul\":3408:3426   */\n      tag_82\n      tag_83\n      jump\t// in\n    tag_82:\n        /* \"#utility.yul\":3340:3342   */\n    tag_81:\n        /* \"#utility.yul\":3448:3458   */\n      dup1\n        /* \"#utility.yul\":3444:3446   */\n      0x40\n        /* \"#utility.yul\":3437:3459   */\n      mstore\n        /* \"#utility.yul\":3222:3465   */\n      pop\n      swap2\n      swap1\n      pop\n      jump\t// out\n        /* \"#utility.yul\":3471:3803   */\n    tag_37:\n      0x00\n        /* \"#utility.yul\":3623:3641   */\n      0xffffffffffffffff\n        /* \"#utility.yul\":3615:3621   */\n      dup3\n        /* \"#utility.yul\":3612:3642   */\n      gt\n        /* \"#utility.yul\":3609:3611   */\n      iszero\n      tag_85\n      jumpi\n        /* \"#utility.yul\":3645:3663   */\n      tag_86\n      tag_83\n      jump\t// in\n    tag_86:\n        /* \"#utility.yul\":3609:3611   */\n    tag_85:\n        /* \"#utility.yul\":3730:3734   */\n      0x1f\n        /* \"#utility.yul\":3726:3735   */\n      not\n        /* \"#utility.yul\":3719:3723   */\n      0x1f\n        /* \"#utility.yul\":3711:3717   */\n      dup4\n        /* \"#utility.yul\":3707:3724   */\n      add\n        /* \"#utility.yul\":3703:3736   */\n      and\n        /* \"#utility.yul\":3695:3736   */\n      swap1\n      pop\n        /* \"#utility.yul\":3791:3795   */\n      0x20\n        /* \"#utility.yul\":3785:3789   */\n      dup2\n        /* \"#utility.yul\":3781:3796   */\n      add\n        /* \"#utility.yul\":3773:3796   */\n      swap1\n      pop\n        /* \"#utility.yul\":3538:3803   */\n      swap2\n      swap1\n      pop\n      jump\t// out\n        /* \"#utility.yul\":3809:3908   */\n    tag_67:\n      0x00\n        /* \"#utility.yul\":3895:3900   */\n      dup2\n        /* \"#utility.yul\":3889:3901   */\n      mload\n        /* \"#utility.yul\":3879:3901   */\n      swap1\n      pop\n        /* \"#utility.yul\":3868:3908   */\n      swap2\n      swap1\n      pop\n      jump\t// out\n        /* \"#utility.yul\":3914:4083   */\n    tag_69:\n      0x00\n        /* \"#utility.yul\":4032:4038   */\n      dup3\n        /* \"#utility.yul\":4027:4030   */\n      dup3\n        /* \"#utility.yul\":4020:4039   */\n      mstore\n        /* \"#utility.yul\":4072:4076   */\n      0x20\n        /* \"#utility.yul\":4067:4070   */\n      dup3\n        /* \"#utility.yul\":4063:4077   */\n      add\n        /* \"#utility.yul\":4048:4077   */\n      swap1\n      pop\n        /* \"#utility.yul\":4010:4083   */\n      swap3\n      swap2\n      pop\n      pop\n      jump\t// out\n        /* \"#utility.yul\":4089:4165   */\n    tag_63:\n      0x00\n        /* \"#utility.yul\":4154:4159   */\n      dup2\n        /* \"#utility.yul\":4143:4159   */\n      swap1\n      pop\n        /* \"#utility.yul\":4133:4165   */\n      swap2\n      swap1\n      pop\n      jump\t// out\n        /* \"#utility.yul\":4171:4325   */\n    tag_41:\n        /* \"#utility.yul\":4255:4261   */\n      dup3\n        /* \"#utility.yul\":4250:4253   */\n      dup2\n        /* \"#utility.yul\":4245:4248   */\n      dup4\n        /* \"#utility.yul\":4232:4262   */\n      calldatacopy\n        /* \"#utility.yul\":4317:4318   */\n      0x00\n        /* \"#utility.yul\":4308:4314   */\n      dup4\n        /* \"#utility.yul\":4303:4306   */\n      dup4\n        /* \"#utility.yul\":4299:4315   */\n      add\n        /* \"#utility.yul\":4292:4319   */\n      mstore\n        /* \"#utility.yul\":4222:4325   */\n      pop\n      pop\n      pop\n      jump\t// out\n        /* \"#utility.yul\":4331:4638   */\n    tag_71:\n        /* \"#utility.yul\":4399:4400   */\n      0x00\n        /* \"#utility.yul\":4409:4522   */\n    tag_92:\n        /* \"#utility.yul\":4423:4429   */\n      dup4\n        /* \"#utility.yul\":4420:4421   */\n      dup2\n        /* \"#utility.yul\":4417:4430   */\n      lt\n        /* \"#utility.yul\":4409:4522   */\n      iszero\n      tag_94\n      jumpi\n        /* \"#utility.yul\":4508:4509   */\n      dup1\n        /* \"#utility.yul\":4503:4506   */\n      dup3\n        /* \"#utility.yul\":4499:4510   */\n      add\n        /* \"#utility.yul\":4493:4511   */\n      mload\n        /* \"#utility.yul\":4489:4490   */\n      dup2\n        /* \"#utility.yul\":4484:4487   */\n      dup5\n        /* \"#utility.yul\":4480:4491   */\n      add\n        /* \"#utility.yul\":4473:4512   */\n      mstore\n        /* \"#utility.yul\":4445:4447   */\n      0x20\n        /* \"#utility.yul\":4442:4443   */\n      dup2\n        /* \"#utility.yul\":4438:4448   */\n      add\n        /* \"#utility.yul\":4433:4448   */\n      swap1\n      pop\n        /* \"#utility.yul\":4409:4522   */\n      jump(tag_92)\n    tag_94:\n        /* \"#utility.yul\":4540:4546   */\n      dup4\n        /* \"#utility.yul\":4537:4538   */\n      dup2\n        /* \"#utility.yul\":4534:4547   */\n      gt\n        /* \"#utility.yul\":4531:4533   */\n      iszero\n      tag_95\n      jumpi\n        /* \"#utility.yul\":4620:4621   */\n      0x00\n        /* \"#utility.yul\":4611:4617   */\n      dup5\n        /* \"#utility.yul\":4606:4609   */\n      dup5\n        /* \"#utility.yul\":4602:4618   */\n      add\n        /* \"#utility.yul\":4595:4622   */\n      mstore\n        /* \"#utility.yul\":4531:4533   */\n    tag_95:\n        /* \"#utility.yul\":4380:4638   */\n      pop\n      pop\n      pop\n      pop\n      jump\t// out\n        /* \"#utility.yul\":4644:4964   */\n    tag_21:\n      0x00\n        /* \"#utility.yul\":4725:4726   */\n      0x02\n        /* \"#utility.yul\":4719:4723   */\n      dup3\n        /* \"#utility.yul\":4715:4727   */\n      div\n        /* \"#utility.yul\":4705:4727   */\n      swap1\n      pop\n        /* \"#utility.yul\":4772:4773   */\n      0x01\n        /* \"#utility.yul\":4766:4770   */\n      dup3\n        /* \"#utility.yul\":4762:4774   */\n      and\n        /* \"#utility.yul\":4793:4811   */\n      dup1\n        /* \"#utility.yul\":4783:4785   */\n      tag_97\n      jumpi\n        /* \"#utility.yul\":4849:4853   */\n      0x7f\n        /* \"#utility.yul\":4841:4847   */\n      dup3\n        /* \"#utility.yul\":4837:4854   */\n      and\n        /* \"#utility.yul\":4827:4854   */\n      swap2\n      pop\n        /* \"#utility.yul\":4783:4785   */\n    tag_97:\n        /* \"#utility.yul\":4911:4913   */\n      0x20\n        /* \"#utility.yul\":4903:4909   */\n      dup3\n        /* \"#utility.yul\":4900:4914   */\n      lt\n        /* \"#utility.yul\":4880:4898   */\n      dup2\n        /* \"#utility.yul\":4877:4915   */\n      eq\n        /* \"#utility.yul\":4874:4876   */\n      iszero\n      tag_98\n      jumpi\n        /* \"#utility.yul\":4930:4948   */\n      tag_99\n      tag_100\n      jump\t// in\n    tag_99:\n        /* \"#utility.yul\":4874:4876   */\n    tag_98:\n        /* \"#utility.yul\":4695:4964   */\n      pop\n      swap2\n      swap1\n      pop\n      jump\t// out\n        /* \"#utility.yul\":4970:5150   */\n    tag_100:\n        /* \"#utility.yul\":5018:5095   */\n      0x4e487b7100000000000000000000000000000000000000000000000000000000\n        /* \"#utility.yul\":5015:5016   */\n      0x00\n        /* \"#utility.yul\":5008:5096   */\n      mstore\n        /* \"#utility.yul\":5115:5119   */\n      0x22\n        /* \"#utility.yul\":5112:5113   */\n      0x04\n        /* \"#utility.yul\":5105:5120   */\n      mstore\n        /* \"#utility.yul\":5139:5143   */\n      0x24\n        /* \"#utility.yul\":5136:5137   */\n      0x00\n        /* \"#utility.yul\":5129:5144   */\n      revert\n        /* \"#utility.yul\":5156:5336   */\n    tag_83:\n        /* \"#utility.yul\":5204:5281   */\n      0x4e487b7100000000000000000000000000000000000000000000000000000000\n        /* \"#utility.yul\":5201:5202   */\n      0x00\n        /* \"#utility.yul\":5194:5282   */\n      mstore\n        /* \"#utility.yul\":5301:5305   */\n      0x41\n        /* \"#utility.yul\":5298:5299   */\n      0x04\n        /* \"#utility.yul\":5291:5306   */\n      mstore\n        /* \"#utility.yul\":5325:5329   */\n      0x24\n        /* \"#utility.yul\":5322:5323   */\n      0x00\n        /* \"#utility.yul\":5315:5330   */\n      revert\n        /* \"#utility.yul\":5342:5444   */\n    tag_73:\n      0x00\n        /* \"#utility.yul\":5434:5436   */\n      0x1f\n        /* \"#utility.yul\":5430:5437   */\n      not\n        /* \"#utility.yul\":5425:5427   */\n      0x1f\n        /* \"#utility.yul\":5418:5423   */\n      dup4\n        /* \"#utility.yul\":5414:5428   */\n      add\n        /* \"#utility.yul\":5410:5438   */\n      and\n        /* \"#utility.yul\":5400:5438   */\n      swap1\n      pop\n        /* \"#utility.yul\":5390:5444   */\n      swap2\n      swap1\n      pop\n      jump\t// out\n        /* \"#utility.yul\":5450:5570   */\n    tag_45:\n        /* \"#utility.yul\":5522:5545   */\n      tag_105\n        /* \"#utility.yul\":5539:5544   */\n      dup2\n        /* \"#utility.yul\":5522:5545   */\n      tag_63\n      jump\t// in\n    tag_105:\n        /* \"#utility.yul\":5515:5520   */\n      dup2\n        /* \"#utility.yul\":5512:5546   */\n      eq\n        /* \"#utility.yul\":5502:5504   */\n      tag_106\n      jumpi\n        /* \"#utility.yul\":5560:5561   */\n      0x00\n        /* \"#utility.yul\":5557:5558   */\n      dup1\n        /* \"#utility.yul\":5550:5562   */\n      revert\n        /* \"#utility.yul\":5502:5504   */\n    tag_106:\n        /* \"#utility.yul\":5492:5570   */\n      pop\n      jump\t// out\n\n    auxdata: 0xa264697066735822122071716564ef1d129fe794cd6178aad5b1bcb4a8c2589348a6198881b7b39c87b364736f6c63430008000033\n}\n",
				"bytecode": {
					"linkReferences": {},
					"object": "6080604052600060015534801561001557600080fd5b5061057b806100256000396000f3fe608060405234801561001057600080fd5b50600436106100415760003560e01c8063575150b1146100465780638306c10b14610078578063b7e0001314610094575b600080fd5b610060600480360381019061005b9190610274565b6100b2565b60405161006f9392919061037f565b60405180910390f35b610092600480360381019061008d919061029d565b6101ec565b005b61009c6101f1565b6040516100a99190610364565b60405180910390f35b60026020528060005260406000206000915090508060000154908060010180546100db9061048d565b80601f01602080910402602001604051908101604052809291908181526020018280546101079061048d565b80156101545780601f1061012957610100808354040283529160200191610154565b820191906000526020600020905b81548152906001019060200180831161013757829003601f168201915b5050505050908060020180546101699061048d565b80601f01602080910402602001604051908101604052809291908181526020018280546101959061048d565b80156101e25780601f106101b7576101008083540402835291602001916101e2565b820191906000526020600020905b8154815290600101906020018083116101c557829003601f168201915b5050505050905083565b505050565b60015481565b600061020a610205846103f5565b6103c4565b90508281526020810184848401111561022257600080fd5b61022d84828561044b565b509392505050565b6000813590506102448161052e565b92915050565b600082601f83011261025b57600080fd5b813561026b8482602086016101f7565b91505092915050565b60006020828403121561028657600080fd5b600061029484828501610235565b91505092915050565b6000806000606084860312156102b257600080fd5b60006102c086828701610235565b935050602084013567ffffffffffffffff8111156102dd57600080fd5b6102e98682870161024a565b925050604084013567ffffffffffffffff81111561030657600080fd5b6103128682870161024a565b9150509250925092565b61032581610441565b82525050565b600061033682610425565b6103408185610430565b935061035081856020860161045a565b6103598161051d565b840191505092915050565b6000602082019050610379600083018461031c565b92915050565b6000606082019050610394600083018661031c565b81810360208301526103a6818561032b565b905081810360408301526103ba818461032b565b9050949350505050565b6000604051905081810181811067ffffffffffffffff821117156103eb576103ea6104ee565b5b8060405250919050565b600067ffffffffffffffff8211156104105761040f6104ee565b5b601f19601f8301169050602081019050919050565b600081519050919050565b600082825260208201905092915050565b6000819050919050565b82818337600083830152505050565b60005b8381101561047857808201518184015260208101905061045d565b83811115610487576000848401525b50505050565b600060028204905060018216806104a557607f821691505b602082108114156104b9576104b86104bf565b5b50919050565b7f4e487b7100000000000000000000000000000000000000000000000000000000600052602260045260246000fd5b7f4e487b7100000000000000000000000000000000000000000000000000000000600052604160045260246000fd5b6000601f19601f8301169050919050565b61053781610441565b811461054257600080fd5b5056fea264697066735822122071716564ef1d129fe794cd6178aad5b1bcb4a8c2589348a6198881b7b39c87b364736f6c63430008000033",
					"opcodes": "PUSH1 0x80 PUSH1 0x40 MSTORE PUSH1 0x0 PUSH1 0x1 SSTORE CALLVALUE DUP1 ISZERO PUSH2 0x15 JUMPI PUSH1 0x0 DUP1 REVERT JUMPDEST POP PUSH2 0x57B DUP1 PUSH2 0x25 PUSH1 0x0 CODECOPY PUSH1 0x0 RETURN INVALID PUSH1 0x80 PUSH1 0x40 MSTORE CALLVALUE DUP1 ISZERO PUSH2 0x10 JUMPI PUSH1 0x0 DUP1 REVERT JUMPDEST POP PUSH1 0x4 CALLDATASIZE LT PUSH2 0x41 JUMPI PUSH1 0x0 CALLDATALOAD PUSH1 0xE0 SHR DUP1 PUSH4 0x575150B1 EQ PUSH2 0x46 JUMPI DUP1 PUSH4 0x8306C10B EQ PUSH2 0x78 JUMPI DUP1 PUSH4 0xB7E00013 EQ PUSH2 0x94 JUMPI JUMPDEST PUSH1 0x0 DUP1 REVERT JUMPDEST PUSH2 0x60 PUSH1 0x4 DUP1 CALLDATASIZE SUB DUP2 ADD SWAP1 PUSH2 0x5B SWAP2 SWAP1 PUSH2 0x274 JUMP JUMPDEST PUSH2 0xB2 JUMP JUMPDEST PUSH1 0x40 MLOAD PUSH2 0x6F SWAP4 SWAP3 SWAP2 SWAP1 PUSH2 0x37F JUMP JUMPDEST PUSH1 0x40 MLOAD DUP1 SWAP2 SUB SWAP1 RETURN JUMPDEST PUSH2 0x92 PUSH1 0x4 DUP1 CALLDATASIZE SUB DUP2 ADD SWAP1 PUSH2 0x8D SWAP2 SWAP1 PUSH2 0x29D JUMP JUMPDEST PUSH2 0x1EC JUMP JUMPDEST STOP JUMPDEST PUSH2 0x9C PUSH2 0x1F1 JUMP JUMPDEST PUSH1 0x40 MLOAD PUSH2 0xA9 SWAP2 SWAP1 PUSH2 0x364 JUMP JUMPDEST PUSH1 0x40 MLOAD DUP1 SWAP2 SUB SWAP1 RETURN JUMPDEST PUSH1 0x2 PUSH1 0x20 MSTORE DUP1 PUSH1 0x0 MSTORE PUSH1 0x40 PUSH1 0x0 KECCAK256 PUSH1 0x0 SWAP2 POP SWAP1 POP DUP1 PUSH1 0x0 ADD SLOAD SWAP1 DUP1 PUSH1 0x1 ADD DUP1 SLOAD PUSH2 0xDB SWAP1 PUSH2 0x48D JUMP JUMPDEST DUP1 PUSH1 0x1F ADD PUSH1 0x20 DUP1 SWAP2 DIV MUL PUSH1 0x20 ADD PUSH1 0x40 MLOAD SWAP1 DUP2 ADD PUSH1 0x40 MSTORE DUP1 SWAP3 SWAP2 SWAP1 DUP2 DUP2 MSTORE PUSH1 0x20 ADD DUP3 DUP1 SLOAD PUSH2 0x107 SWAP1 PUSH2 0x48D JUMP JUMPDEST DUP1 ISZERO PUSH2 0x154 JUMPI DUP1 PUSH1 0x1F LT PUSH2 0x129 JUMPI PUSH2 0x100 DUP1 DUP4 SLOAD DIV MUL DUP4 MSTORE SWAP2 PUSH1 0x20 ADD SWAP2 PUSH2 0x154 JUMP JUMPDEST DUP3 ADD SWAP2 SWAP1 PUSH1 0x0 MSTORE PUSH1 0x20 PUSH1 0x0 KECCAK256 SWAP1 JUMPDEST DUP2 SLOAD DUP2 MSTORE SWAP1 PUSH1 0x1 ADD SWAP1 PUSH1 0x20 ADD DUP1 DUP4 GT PUSH2 0x137 JUMPI DUP3 SWAP1 SUB PUSH1 0x1F AND DUP3 ADD SWAP2 JUMPDEST POP POP POP POP POP SWAP1 DUP1 PUSH1 0x2 ADD DUP1 SLOAD PUSH2 0x169 SWAP1 PUSH2 0x48D JUMP JUMPDEST DUP1 PUSH1 0x1F ADD PUSH1 0x20 DUP1 SWAP2 DIV MUL PUSH1 0x20 ADD PUSH1 0x40 MLOAD SWAP1 DUP2 ADD PUSH1 0x40 MSTORE DUP1 SWAP3 SWAP2 SWAP1 DUP2 DUP2 MSTORE PUSH1 0x20 ADD DUP3 DUP1 SLOAD PUSH2 0x195 SWAP1 PUSH2 0x48D JUMP JUMPDEST DUP1 ISZERO PUSH2 0x1E2 JUMPI DUP1 PUSH1 0x1F LT PUSH2 0x1B7 JUMPI PUSH2 0x100 DUP1 DUP4 SLOAD DIV MUL DUP4 MSTORE SWAP2 PUSH1 0x20 ADD SWAP2 PUSH2 0x1E2 JUMP JUMPDEST DUP3 ADD SWAP2 SWAP1 PUSH1 0x0 MSTORE PUSH1 0x20 PUSH1 0x0 KECCAK256 SWAP1 JUMPDEST DUP2 SLOAD DUP2 MSTORE SWAP1 PUSH1 0x1 ADD SWAP1 PUSH1 0x20 ADD DUP1 DUP4 GT PUSH2 0x1C5 JUMPI DUP3 SWAP1 SUB PUSH1 0x1F AND DUP3 ADD SWAP2 JUMPDEST POP POP POP POP POP SWAP1 POP DUP4 JUMP JUMPDEST POP POP POP JUMP JUMPDEST PUSH1 0x1 SLOAD DUP2 JUMP JUMPDEST PUSH1 0x0 PUSH2 0x20A PUSH2 0x205 DUP5 PUSH2 0x3F5 JUMP JUMPDEST PUSH2 0x3C4 JUMP JUMPDEST SWAP1 POP DUP3 DUP2 MSTORE PUSH1 0x20 DUP2 ADD DUP5 DUP5 DUP5 ADD GT ISZERO PUSH2 0x222 JUMPI PUSH1 0x0 DUP1 REVERT JUMPDEST PUSH2 0x22D DUP5 DUP3 DUP6 PUSH2 0x44B JUMP JUMPDEST POP SWAP4 SWAP3 POP POP POP JUMP JUMPDEST PUSH1 0x0 DUP2 CALLDATALOAD SWAP1 POP PUSH2 0x244 DUP2 PUSH2 0x52E JUMP JUMPDEST SWAP3 SWAP2 POP POP JUMP JUMPDEST PUSH1 0x0 DUP3 PUSH1 0x1F DUP4 ADD SLT PUSH2 0x25B JUMPI PUSH1 0x0 DUP1 REVERT JUMPDEST DUP2 CALLDATALOAD PUSH2 0x26B DUP5 DUP3 PUSH1 0x20 DUP7 ADD PUSH2 0x1F7 JUMP JUMPDEST SWAP2 POP POP SWAP3 SWAP2 POP POP JUMP JUMPDEST PUSH1 0x0 PUSH1 0x20 DUP3 DUP5 SUB SLT ISZERO PUSH2 0x286 JUMPI PUSH1 0x0 DUP1 REVERT JUMPDEST PUSH1 0x0 PUSH2 0x294 DUP5 DUP3 DUP6 ADD PUSH2 0x235 JUMP JUMPDEST SWAP2 POP POP SWAP3 SWAP2 POP POP JUMP JUMPDEST PUSH1 0x0 DUP1 PUSH1 0x0 PUSH1 0x60 DUP5 DUP7 SUB SLT ISZERO PUSH2 0x2B2 JUMPI PUSH1 0x0 DUP1 REVERT JUMPDEST PUSH1 0x0 PUSH2 0x2C0 DUP7 DUP3 DUP8 ADD PUSH2 0x235 JUMP JUMPDEST SWAP4 POP POP PUSH1 0x20 DUP5 ADD CALLDATALOAD PUSH8 0xFFFFFFFFFFFFFFFF DUP2 GT ISZERO PUSH2 0x2DD JUMPI PUSH1 0x0 DUP1 REVERT JUMPDEST PUSH2 0x2E9 DUP7 DUP3 DUP8 ADD PUSH2 0x24A JUMP JUMPDEST SWAP3 POP POP PUSH1 0x40 DUP5 ADD CALLDATALOAD PUSH8 0xFFFFFFFFFFFFFFFF DUP2 GT ISZERO PUSH2 0x306 JUMPI PUSH1 0x0 DUP1 REVERT JUMPDEST PUSH2 0x312 DUP7 DUP3 DUP8 ADD PUSH2 0x24A JUMP JUMPDEST SWAP2 POP POP SWAP3 POP SWAP3 POP SWAP3 JUMP JUMPDEST PUSH2 0x325 DUP2 PUSH2 0x441 JUMP JUMPDEST DUP3 MSTORE POP POP JUMP JUMPDEST PUSH1 0x0 PUSH2 0x336 DUP3 PUSH2 0x425 JUMP JUMPDEST PUSH2 0x340 DUP2 DUP6 PUSH2 0x430 JUMP JUMPDEST SWAP4 POP PUSH2 0x350 DUP2 DUP6 PUSH1 0x20 DUP7 ADD PUSH2 0x45A JUMP JUMPDEST PUSH2 0x359 DUP2 PUSH2 0x51D JUMP JUMPDEST DUP5 ADD SWAP2 POP POP SWAP3 SWAP2 POP POP JUMP JUMPDEST PUSH1 0x0 PUSH1 0x20 DUP3 ADD SWAP1 POP PUSH2 0x379 PUSH1 0x0 DUP4 ADD DUP5 PUSH2 0x31C JUMP JUMPDEST SWAP3 SWAP2 POP POP JUMP JUMPDEST PUSH1 0x0 PUSH1 0x60 DUP3 ADD SWAP1 POP PUSH2 0x394 PUSH1 0x0 DUP4 ADD DUP7 PUSH2 0x31C JUMP JUMPDEST DUP2 DUP2 SUB PUSH1 0x20 DUP4 ADD MSTORE PUSH2 0x3A6 DUP2 DUP6 PUSH2 0x32B JUMP JUMPDEST SWAP1 POP DUP2 DUP2 SUB PUSH1 0x40 DUP4 ADD MSTORE PUSH2 0x3BA DUP2 DUP5 PUSH2 0x32B JUMP JUMPDEST SWAP1 POP SWAP5 SWAP4 POP POP POP POP JUMP JUMPDEST PUSH1 0x0 PUSH1 0x40 MLOAD SWAP1 POP DUP2 DUP2 ADD DUP2 DUP2 LT PUSH8 0xFFFFFFFFFFFFFFFF DUP3 GT OR ISZERO PUSH2 0x3EB JUMPI PUSH2 0x3EA PUSH2 0x4EE JUMP JUMPDEST JUMPDEST DUP1 PUSH1 0x40 MSTORE POP SWAP2 SWAP1 POP JUMP JUMPDEST PUSH1 0x0 PUSH8 0xFFFFFFFFFFFFFFFF DUP3 GT ISZERO PUSH2 0x410 JUMPI PUSH2 0x40F PUSH2 0x4EE JUMP JUMPDEST JUMPDEST PUSH1 0x1F NOT PUSH1 0x1F DUP4 ADD AND SWAP1 POP PUSH1 0x20 DUP2 ADD SWAP1 POP SWAP2 SWAP1 POP JUMP JUMPDEST PUSH1 0x0 DUP2 MLOAD SWAP1 POP SWAP2 SWAP1 POP JUMP JUMPDEST PUSH1 0x0 DUP3 DUP3 MSTORE PUSH1 0x20 DUP3 ADD SWAP1 POP SWAP3 SWAP2 POP POP JUMP JUMPDEST PUSH1 0x0 DUP2 SWAP1 POP SWAP2 SWAP1 POP JUMP JUMPDEST DUP3 DUP2 DUP4 CALLDATACOPY PUSH1 0x0 DUP4 DUP4 ADD MSTORE POP POP POP JUMP JUMPDEST PUSH1 0x0 JUMPDEST DUP4 DUP2 LT ISZERO PUSH2 0x478 JUMPI DUP1 DUP3 ADD MLOAD DUP2 DUP5 ADD MSTORE PUSH1 0x20 DUP2 ADD SWAP1 POP PUSH2 0x45D JUMP JUMPDEST DUP4 DUP2 GT ISZERO PUSH2 0x487 JUMPI PUSH1 0x0 DUP5 DUP5 ADD MSTORE JUMPDEST POP POP POP POP JUMP JUMPDEST PUSH1 0x0 PUSH1 0x2 DUP3 DIV SWAP1 POP PUSH1 0x1 DUP3 AND DUP1 PUSH2 0x4A5 JUMPI PUSH1 0x7F DUP3 AND SWAP2 POP JUMPDEST PUSH1 0x20 DUP3 LT DUP2 EQ ISZERO PUSH2 0x4B9 JUMPI PUSH2 0x4B8 PUSH2 0x4BF JUMP JUMPDEST JUMPDEST POP SWAP2 SWAP1 POP JUMP JUMPDEST PUSH32 0x4E487B7100000000000000000000000000000000000000000000000000000000 PUSH1 0x0 MSTORE PUSH1 0x22 PUSH1 0x4 MSTORE PUSH1 0x24 PUSH1 0x0 REVERT JUMPDEST PUSH32 0x4E487B7100000000000000000000000000000000000000000000000000000000 PUSH1 0x0 MSTORE PUSH1 0x41 PUSH1 0x4 MSTORE PUSH1 0x24 PUSH1 0x0 REVERT JUMPDEST PUSH1 0x0 PUSH1 0x1F NOT PUSH1 0x1F DUP4 ADD AND SWAP1 POP SWAP2 SWAP1 POP JUMP JUMPDEST PUSH2 0x537 DUP2 PUSH2 0x441 JUMP JUMPDEST DUP2 EQ PUSH2 0x542 JUMPI PUSH1 0x0 DUP1 REVERT JUMPDEST POP JUMP INVALID LOG2 PUSH5 0x6970667358 0x22 SLT KECCAK256 PUSH18 0x716564EF1D129FE794CD6178AAD5B1BCB4A8 0xC2 PC SWAP4 0x48 0xA6 NOT DUP9 DUP2 0xB7 0xB3 SWAP13 DUP8 0xB3 PUSH5 0x736F6C6343 STOP ADDMOD STOP STOP CALLER "
				},
				"gasEstimates": {
					"creation": {
						"codeDepositCost": "280600",
						"executionCost": "5324",
						"totalCost": "285924"
					},
					"external": {
						"addNewStudents(int256,string,string)": "infinite",
						"studentDatabase(int256)": "infinite",
						"studentID()": "1151"
					}
				},
				"methodIdentifiers": {
					"addNewStudents(int256,string,string)": "8306c10b",
					"studentDatabase(int256)": "575150b1",
					"studentID()": "b7e00013"
				}
			},
			"storageLayout": {
				"storage": [
					{
						"astId": 10,
						"contract": "contracts/_StudentDatabase.sol:StudentDatabase",
						"label": "owner",
						"offset": 0,
						"slot": "0",
						"type": "t_address"
					},
					{
						"astId": 13,
						"contract": "contracts/_StudentDatabase.sol:StudentDatabase",
						"label": "studentID",
						"offset": 0,
						"slot": "1",
						"type": "t_int256"
					},
					{
						"astId": 18,
						"contract": "contracts/_StudentDatabase.sol:StudentDatabase",
						"label": "studentDatabase",
						"offset": 0,
						"slot": "2",
						"type": "t_mapping(t_int256,t_struct(Student)8_storage)"
					}
				],
				"types": {
					"t_address": {
						"encoding": "inplace",
						"label": "address",
						"numberOfBytes": "20"
					},
					"t_int256": {
						"encoding": "inplace",
						"label": "int256",
						"numberOfBytes": "32"
					},
					"t_mapping(t_int256,t_struct(Student)8_storage)": {
						"encoding": "mapping",
						"key": "t_int256",
						"label": "mapping(int256 => struct StudentDatabase.Student)",
						"numberOfBytes": "32",
						"value": "t_struct(Student)8_storage"
					},
					"t_string_storage": {
						"encoding": "bytes",
						"label": "string",
						"numberOfBytes": "32"
					},
					"t_struct(Student)8_storage": {
						"encoding": "inplace",
						"label": "struct StudentDatabase.Student",
						"members": [
							{
								"astId": 3,
								"contract": "contracts/_StudentDatabase.sol:StudentDatabase",
								"label": "ID",
								"offset": 0,
								"slot": "0",
								"type": "t_int256"
							},
							{
								"astId": 5,
								"contract": "contracts/_StudentDatabase.sol:StudentDatabase",
								"label": "firstName",
								"offset": 0,
								"slot": "1",
								"type": "t_string_storage"
							},
							{
								"astId": 7,
								"contract": "contracts/_StudentDatabase.sol:StudentDatabase",
								"label": "lastName",
								"offset": 0,
								"slot": "2",
								"type": "t_string_storage"
							}
						],
						"numberOfBytes": "96"
					}
				}
			},
			"userdoc": {
				"kind": "user",
				"methods": {},
				"version": 1
			}
		}
	}
}